:020000040800F2
:10000000104F002061020008F71300088F1100084C
:10001000F5130008B10300084519000800000000AE
:10002000000000000000000000000000A101000826
:10003000B303000800000000FD01000821160008BD
:100040007B0200087B0200087B0200087B0200089C
:100050007B0200087B0200087B0200087B0200088C
:100060007B0200087B0200087B0200087B0200087C
:100070007B0200087B0200087B0200087B0200086C
:100080007B0200087B0200087B0200087B0200085C
:100090007B0200087B0200087B0200087B0200084C
:1000A0007B020008E11600087B0200087B020008C2
:1000B0007B0200087B0200087B0200087B0200082C
:1000C0007B0200087B0200087B0200087B0200081C
:1000D0007B0200087B0200087B0200087B0200080C
:1000E0007B0200087B0200087B0200087B020008FC
:1000F0007B0200087B0200087B0200087B020008EC
:100100007B0200087B0200087B0200087B020008DB
:100110007B0200087B020008ED1600087B02000845
:100120007B0200087B0200087B0200087B020008BB
:100130007B0200087B0200087B0200087B020008AB
:100140007B0200087B0200087B0200087B0200089B
:100150007B0200087B0200087B0200087B0200088B
:100160007B0200087B0200087B0200087B0200087B
:100170007B0200087B0200087B02000800000000F0
:100180007B0200087B020008DFF810D000F0FEF8C8
:1001900000480047F51E0008AFF30080104F002014
:1001A0002C4B19680868B0E8F04F80F30988BFF35A
:1001B0006F8F4FF0000080F311887047000000003F
:1001C00008480068006880F308884FF0000080F35A
:1001D000148862B661B6BFF34F8FBFF36F8F00DF35
:1001E00000BF00BF08ED00E0DFF80C00016841F43B
:1001F00070010160704700BF88ED00E0EFF30980F7
:10020000BFF36F8F134B1A681EF0100F08BF20ED5D
:10021000108A20E9F04F106009B44FF0500080F3CD
:100220001188BFF34F8FBFF36F8F02F0BBFF4FF00A
:10023000000080F3118809BC19680868B0E8F04F25
:100240001EF0100F08BFB0EC108A80F30988BFF3CE
:100250006F8F704724000020EFF305807047000087
:100260000648804706480047FEE7FEE7FEE7FEE750
:10027000FEE7FEE7FEE7FEE7FEE7FEE7D116000831
:10028000890100082DE9F05F0546002092469B4653
:1002900088460646814640241BE02846414647469C
:1002A000224600F063F853465A46C01A914110D3D3
:1002B00011461846224600F04AF82D1A67EB01084D
:1002C0004F4622460120002100F041F817EB0009BB
:1002D0004E41201EA4F10104DFDC484631462A4687
:1002E0004346BDE8F09F40EA01039B0703D009E0C5
:1002F00008C9121F08C0042AFAD203E011F8013B12
:1003000000F8013B521EF9D27047D2B201E000F86A
:10031000012B491EFBD270470022F6E710B51346A9
:100320000A4604461946FFF7F0FF204610BD421C5E
:1003300010F8011B0029FBD1801A7047034611F801
:10034000012B00F8012B002AF9D118467047202A0A
:1003500004DB203A00FA02F1002070479140C2F11C
:10036000200320FA03F3194390407047202A04DB4E
:10037000203A21FA02F00021704721FA02F3D0401E
:10038000C2F120029140084319467047064C074DC0
:1003900006E0E06840F0010394E807009847103455
:1003A000AC42F6D3FFF7F4FE3C3D00085C3D00088C
:1003B000FEE7704772B6FEE72DE9F84FDFF8BCA103
:1003C000002201250AF1040B03264FF00F090BF15F
:1003D000040E00BF0B6805FA02F42340A34270D15B
:1003E0000F7907F00307012F01D0022F16D187687C
:1003F0004FEA420806FA08FC27EA0C07D1F80CC0BD
:100400000CFA08FC4CEA070CC0F808C04768A74380
:100410000C79C4F3001494403C4344600C79E443E9
:10042000A4070AD0C4684FEA420C06FA0CF7BC4392
:100430008F6807FA0CF72743C7600C7904F00304B0
:10044000022C12D1D40800EB840CDCF820405707B2
:10045000FF0E09FA07F824EA0804D1F8108008FA18
:1004600007F848EA0408CCF8208004684FEA420CF8
:1004700006FA0CF7BC430F7907F0030707FA0CF7ED
:10048000274307604C6814F4403F70D03C4C276809
:1004900047F480472760246822F0030704F480446F
:1004A0000094384C07EB040CDCF8084897074FEA37
:1004B000177809FA08F7BC43334FB84202D1002736
:1004C00024E054E0314FB84201D101271EE0304F03
:1004D000B84201D1022719E02E4FB84201D10327BB
:1004E00014E02D4FB84201D104270FE02B4FB84242
:1004F00001D105270AE02A4FB84201D1062705E0BD
:10050000284FB84201D1072700E0082707FA08F76B
:100510002743CCF80878DAF800405746D1F804C0F1
:100520009C435FEACC3C00D51C433C60DBF80040B8
:100530005F46D1F804C09C435FEA8C3C00D51C4365
:100540003C60DEF800407746D1F804C09C435FEA87
:10055000CC2C00D51C433C60084F0C373C68D1F8CC
:1005600004C09C435FEA8C2C00D51C433C60521CA9
:10057000102AFFF42FAFBDE8F88F0000003C0140C7
:1005800044380240003001400000024000040240B4
:1005900000080240000C024000100240001402401B
:1005A00000180240001C0240426921EA02030A408E
:1005B00043EA0241816170470AB1816170470904D1
:1005C000FBE700000148806870470000140000202D
:1005D000024881680278114481607047140000204D
:1005E0000B4810B5016841F400710160016841F4E5
:1005F00080610160016841F480710160032000F0B6
:100600008DF8002000F006F800F03EF8002010BD44
:10061000003C024010B5014688B00022192000F0CD
:100620005DF8192000F04CF813480024016841F0EF
:1006300001010160006805A900F00100069068460C
:1006400000F018F900F046F90C494000B0FBF1F158
:100650000C480B4A491E026040F2E732C0E903240D
:10066000C0E9011400F078FB10B1012008B010BD02
:10067000044800F0BDFBF9E74438024040420F0057
:10068000000001403C0100200C4882B0016841F4A8
:1006900080410160006800F4804000900748001F1E
:1006A000016841F0805101600068002200F0805034
:1006B00000900F21901E02B000F010B844380240A4
:1006C000002809DB00F01F02012191404009800051
:1006D00000F1E020C0F8001170470000F0B40E4BAC
:1006E0001B680C46C3F30223C3F10705042D00D990
:1006F0000425191D072901D2002300E0DB1E012675
:1007000006FA05F1491E214099409E40761E16408A
:100710003143F0BC01F03CB90CED00E0064900F0BB
:10072000070208684FF6FF03184040EA0220034A18
:1007300010430860704700000CED00E00000FA056F
:100740002DE9F0470E46050065D0DFF81481D8F892
:100750000000F7B200F00700B04207D288F800703E
:10076000D8F8000000F00700B04254D128683D4C92
:10077000810712D5400703D5206840F4E05020607F
:100780002878000703D5206840F460402060206886
:10079000A96820F0F000084320602878C0072DD019
:1007A000304968680839012812D0022813D003287C
:1007B00011D00968890700292DDA216821F0030189
:1007C00001432160FFF7FEFE814641F2883A0EE0C8
:1007D00009688903EFE709688901ECE7FFF7F2FE92
:1007E000A0EB0901514502D90320BDE8F08720683C
:1007F000696800F00C00B0EB810FEFD1D8F8001061
:10080000404601F00701B14207D90770006800F0C7
:100810000700B04201D00120E7E72878400705D55E
:100820002068E96820F4E050084320602878000739
:1008300006D52068296920F4604040EAC1002060A4
:1008400000F058F82168084AC1F30311515CC84010
:100850000649086006480068FFF7DCFE0020C4E790
:10086000003C024008380240BC3C00082000002048
:10087000180000200F2202600C4A136803F00303E3
:100880004360136803F0F0038360136803F4E053DC
:10089000C36012684FF4E05303EAD20202610448D5
:1008A000006800F007000860704700000838024048
:1008B000003C02400448054900680968044AC1F345
:1008C0008221515CC8407047200000200838024057
:1008D000CC3C00080448054900680968044AC1F393
:1008E0004231515CC8407047200000200838024067
:1008F000CC3C0008154810B5006810F00C021448F4
:1009000013D01449042A0FD0082A0ED10F4C241FEB
:100910002268236802F03F025B0207D52068C0F31B
:100920008810A0FB010106E0084610BD2168C1F354
:100930008811A1FB00010023FFF7A4FC2168C1F38B
:100940000141491C4900B0FBF1F010BD08380240DC
:100950000024F40040787D012DE9F84F04006ED0AA
:100960002078DFF84C93C007A9F104054AD009F1BB
:1009700004000168C1F38101012908D00068C0F3B7
:10098000810002280AD1D9F80000400206D5286863
:10099000800337D560680028E1D033E06068B0F5A7
:1009A000803F10D0B0F5A02F286810D020F4803000
:1009B0002860286820F4802028606068A8B1FFF7CC
:1009C00001FE06460DE0286840F48030F4E740F46C
:1009D00080202860F7E700BFFFF7F4FD801B642844
:1009E00073D828688003F7D50CE0FFF7EBFD0646C7
:1009F00005E000BFFFF7E6FD801B6428F0D82868FB
:100A00008003F7D42078DFF8AC8280074FF0000A2B
:100A10003ED5A748001D016811F00C0F08D00068F2
:100A2000C0F3810002280BD1D9F80000400207D49E
:100A30002868800716D5E068012800D112E033E16C
:100A4000E068B8B10120C8F80000FFF7BBFD06461A
:100A500005E000BFFFF7B6FD801B0228C0D828685C
:100A60008007F7D52868216920F0F80040EAC10026
:100A700028600DE0C8F800A0FFF7A4FD064604E0DA
:100A8000FFF7A0FD801B02281FD828688007F7D435
:100A90002078000722D5864F87486169703771B189
:100AA00001210160FFF78EFD064604E0FFF78AFD95
:100AB000801B022809D838688007F7D50EE0C0F8F7
:100AC00000A0FFF77FFD064605E082E0FFF77AFD14
:100AD000801B02287DD838688007F7D4207840072B
:100AE00068D5DFF8CCB100270BF13C0BDBF8000038
:100AF000C0000BD4DBF8001041F08051CBF800109F
:100B0000DBF80000012700F0805000906B4E306849
:100B1000C00510D4306840F480703060FFF752FD9B
:100B2000009005E0FFF74EFD0099401A022850D8CA
:100B30003068C005F6D55E4EA0686C3601280FD02F
:100B40000528306810D020F001003060306820F0B7
:100B500004003060A068B8B1FFF734FD00900FE0EA
:100B6000306840F00100F4E740F004003060F7E73F
:100B7000FFF728FD0099411A41F28830814266D87A
:100B800030688007F4D50EE0FFF71CFD009007E009
:100B9000FFF718FD0099411A41F28830814256D87A
:100BA00030688007F4D42FB1DBF8001021F08051B9
:100BB000CBF80010A069C8B33D49091D0968C1F30D
:100BC000810102294AD00228504607D0C8F86000A7
:100BD00000E03CE0FFF7F6FC04463BE04746C8F87F
:100BE0006000FFF7EFFC064605E000BFFFF7EAFCF8
:100BF000801B02282BD828688001F7D4D4E907018C
:100C00000843A16A2E4A490802EB0141626A41EA9F
:100C10008211084394F82C1040EA0161C9F80010D1
:100C200001203866FFF7CEFC044606E03EE000BF38
:100C3000FFF7C8FC001B022809D828688001F7D5F7
:100C400034E000BFFFF7BEFC001B022802D90320DE
:100C5000BDE8F88F28688001F4D427E00128F7D098
:100C6000D9F80000E26900F4800191421CD1226AA7
:100C700000F03F01914217D147F6C071626A01400E
:100C8000B1EB821F10D1A26A4FF0FF3300F4403164
:100C900003EB5202B1EB024F06D194F82C1000F096
:100CA0007060B0EB016F01D00120D1E70020CFE7E9
:100CB0000438024000004742800E47420070004066
:100CC0000000FFFF7047704770B590F83C20012A84
:100CD00032D0012480F83C40022280F83D20036895
:100CE0005A689D6822F070060A6832435A60134BB6
:100CF00002689A4214D0B2F1804F11D0104B9A4240
:100D00000ED0104B9A420BD00F4B9A4208D00F4B8B
:100D10009A4205D00E4B9A4202D00E4B9A4204D111
:100D2000496825F080031943916080F83D40002117
:100D300080F83C10084670BD022070BD00000140E4
:100D40000004004000080040000C00400004014086
:100D5000004001400018004010B5040003D094F892
:100D60003D0010B107E0012010BD002084F83C00D8
:100D7000204600F01FF8022084F83D00211D206865
:100D800000F0BAFC012084F8460084F83E0084F8A4
:100D90003F0084F8400084F8410084F8420084F861
:100DA000430084F8440084F8450084F83D000020A6
:100DB00010BD000008B500680B49884212D10B48ED
:100DC000016841F0100101600068002200F010008D
:100DD000009005213620FFF781FCBDE80840362051
:100DE000FFF76EBC08BD0000001000404038024014
:100DF00090F83D10012901D001207047022180F8B0
:100E00003D100168CA6842F00102CA6000681149D9
:100E1000884214D0B0F1804F11D00F4988420ED0D3
:100E20000E4988420BD00E49884208D00D498842AD
:100E300005D00D49884202D00C49884204D181680E
:100E400001F00701062903D0016841F001010160AA
:100E500000207047000001400004004000080040EE
:100E6000000C004000040140004001400018004018
:100E7000704770B50446006801694FF00005C9432A
:100E8000890715D4C168C943890711D4E91E0161D6
:100E900001202077206880698007204602D0FFF774
:100EA000E7FF04E000F098F8204600F096F8257778
:100EB00020680169C943490717D4C168C943490774
:100EC00013D46FF00401016102202077206880694B
:100ED00010F4407F204602D0FFF7CAFF04E000F084
:100EE0007BF8204600F079F8257720680169C9432E
:100EF000090716D4C168C943090712D46FF0080165
:100F00000161042020772068C0698007204602D054
:100F1000FFF7AEFF04E000F05FF8204600F05DF858
:100F2000257720680169C943C90617D4C168C94338
:100F3000C90613D46FF010010161082020772068E2
:100F4000C06910F4407F204602D0FFF791FF04E013
:100F500000F042F8204600F040F82577206801694B
:100F6000C943C90708D1C168C943C90704D1891E4B
:100F70000161204600F032F820680169C943090682
:100F800009D4C168C943090605D46FF08001016125
:100F90002046FFF797FE20680169C943490609D436
:100FA000C168C943490605D46FF04001016120467C
:100FB00000F02CF820680169C94389060BD4C16888
:100FC000C943890607D46FF0200101612046BDE8BE
:100FD0007040FFF778BE70BD7047704710B504468B
:100FE00000680749884201D1FFF7F2FA05492068F5
:100FF000884203D104480168491C016010BD00000B
:10100000000001400010004000000020704770B553
:10101000040004D094F83D00002510B106E0012042
:1010200070BD84F83C50204600F022F8242084F85B
:101030003D002068C16821F40051C160204600F0E5
:10104000BFFB2068016921F490410161206841697A
:1010500021F02A0141612068C16841F40051C1605A
:101060002564202084F83D0084F83E00002070BDF7
:1010700010B586B0044614216846FFF74DF91449AF
:101080002068884221D113480021026842F01002F2
:101090000260006800F0100005900E4814380268E5
:1010A00042F001020260006800F0010005904FF478
:1010B000C06000900220CDE90101032003900720C9
:1010C000049069460448FFF777F906B010BD0000A8
:1010D0000010014044380240000002402DE9F8436E
:1010E000044690F83D001F4616460D4620284CD178
:1010F000C5B1BEB194F83C00012846D0012084F867
:101100003C004FF00008C4F84080212084F83D00E6
:10111000FFF758FAA6848146E684A068B0F5805FA0
:1011200003D004E00120BDE8F883206928B12E46F1
:101130005FF0000584F83C800EE00026FAE780218D
:10114000204600F0C3FBA0B9AEB116F8010B216830
:101150004860E08C401EE084E08C4B464FF000027B
:1011600000970028EBD14FF04001204600F0AEFB85
:1011700030B10320D7E735F8020BC0F30800E6E7EB
:10118000202084F83D000020CDE70220CBE7FEE7D9
:1011900003480069C00501D4012070470020704752
:1011A0000020024010B5FFF7F3FF20B100F006F871
:1011B00008B1012010BD002010BD000003480068E8
:1011C000800401D4012070470020704710080240BD
:1011D00003480069000501D40120704700207047D2
:1011E0000020024003480068400701D401207047F6
:1011F00000207047101C024003480068000701D41B
:101200000120704700207047101C0240034800680E
:10121000000501D4012070470020704710140240DF
:1012200003480068000601D4012070470020704781
:101230001018024003480068000401D401207047E0
:1012400000207047101C024010B5FFF7A1FF20B12D
:10125000FFF7B4FF08B1012010BD002010BD000051
:1012600010B50E4A00210E4800F098FE0D4C0B4AB6
:101270000021206024320C4800F090FE074A606094
:1012800048320021094800F089FE044AA0606C320F
:101290000021074800F082FEE06010BD2C3C0008F1
:1012A0000114000804000020F913000825140008A8
:1012B0001914000870B586B014216846FFF72CF8A1
:1012C00028480024016841F480710160016801F43C
:1012D00080710591016841F004010160016801F02D
:1012E00004010591016841F020010160016801F0ED
:1012F00020010591016841F080010160016801F061
:1013000080010591016841F0010101600068164EFD
:1013100000F001000590012280213046FFF74CF9D2
:101320004FF4106001258DE8310069460F48FFF742
:1013300043F868038DE8310069460D48FFF73CF833
:1013400080200090CDE90154694630460394FFF7B0
:1013500033F80C208DE8310069460648FFF72CF879
:1013600006B070BD30380240001402400020024038
:1013700000080240001C02401CB500240E480094E6
:101380000C49019401604721C0E901146321846183
:10139000C160FFF7E1FC08B1FFF70CF80094694663
:1013A00005480194FFF790FC002801D0FFF702F8F0
:1013B0001CBD000000100040B00000200C4810B51B
:1013C0000A4901604FF4E1314160002181600C2243
:1013D000C160C0E904128161C161FFF718FE0028F5
:1013E00003D0BDE81040FEF7E5BF10BD001001407E
:1013F000F8000020FEE7FEE7C82000F093FDFBE7C1
:10140000044C80212046FFF7CFF8C82000F08AFD69
:10141000F7E700000014024000F0FCFC0A2000F096
:1014200081FDF9E7CCB02E4C00F08EFC002850D0A6
:1014300007282CD004DC012807D0042849D11CE05F
:101440000A2832D00D2844D13BE026A000F07CFAD7
:10145000314800F079FA684601F03AFD69462FA05C
:1014600000F072FA2EA000F06FFA684601F0D6FC88
:1014700069462AA000F068FA2BE036A000F064FA72
:101480002068002825D001F045FC00200BE02068F2
:1014900008B139A012E03DA000F056FA464A0021FA
:1014A000464800F07BFD206013E02068A8B144A00E
:1014B00000F04AFA206801F01FFE0AE000F044FA4A
:1014C00007E0206848B147A000F03EFA206801F02C
:1014D0008FFD142000F026FDA6E74CA0EEE70000EB
:1014E000040000203D3D3D3D3D3D3D3D3D3D3D3DFC
:1014F0003D3D3D3D3D3D3D3D3D3D3D3D3D3D3D3D1C
:101500003D3D3D3D3D3D3D3D3D3D3D3D3D3D3D3D0B
:101510003D3D3D3D3D0A0000D43C000825730A00D6
:10152000E4BBBBE58AA1E5908D202020202020206F
:10153000202020202020E8BF90E8A18CE8AEA1E682
:1015400095B020202020202020E4BDBFE794A8E70C
:101550008E870A004B3220E68C89E4B88BEFBC8C76
:10156000E588A0E999A4E4BBBBE58AA12076546193
:10157000736B4C45440A0000765461736B4C4544D0
:1015800020E5B7B2E5AD98E59CA80A004B3320E60C
:101590008C89E4B88BEFBC8CE9878DE696B0E58842
:1015A0009BE5BBBAE4BBBBE58AA120765461736BB3
:1015B0004C45440A000000002C3C000801140008BF
:1015C000555020E68C89E4B88BEFBC8CE68C82E821
:1015D000B5B7E4BBBBE58AA120765461736B4C457B
:1015E000440A0000444F574E20E68C89E4B88BEF44
:1015F000BC8CE681A2E5A48DE4BBBBE58AA1207684
:101600005461736B4C45440A00000000E697A0E467
:10161000BBBBE58AA120765461736B4C45440A003C
:1016200010B54FF0E020006902F04AF9012803D01C
:10163000BDE8104001F078BE10BD000030B593B099
:1016400030216846FEF768FE14210CA8FEF764FE00
:101650001D480025016841F080510160006800F0DC
:10166000805011901948016841F480410160006880
:10167000022400F480401190012003901020049077
:10168000009406940820CDE90750A820CDE909046C
:1016900004200B906846FFF75FF908B172B6FEE7C9
:1016A0000CA90F2081E831004FF4A0500F904FF4A7
:1016B0008050109005210CA8FFF742F8002801D0B7
:1016C00072B6FEE713B030BD4038024000700040F3
:1016D0000248016841F470010160704788ED00E044
:1016E0000148FFF7C6BB00003C0100200148FFF79E
:1016F000C0BB0000B0000020F0B50268254C264DAC
:10170000264E274F274B4FF0804CA04209D0604512
:1017100007D0A84205D0B04203D0B84201D09842C9
:1017200004D122F0700E4A6842EA0E02A0421BD099
:10173000604519D0A84217D0B04215D0B84213D096
:10174000984211D0184DA8420ED0184DA8420BD087
:10175000174DA84208D0174DA84205D0164DA842F3
:1017600002D0164DA84203D122F44075CA682A431C
:101770004D6922F080022A4302608A68C2620A68C8
:101780008262A04201D0984201D10969016301211E
:101790004161F0BD0000014000040040000800402D
:1017A000000C0040000401400040014000440140A2
:1017B0000048014000180040001C0040002000408C
:1017C00070B5044600680169E26821F44051114394
:1017D00001612169A068E269084361691143084316
:1017E0002168CA6849F20C639A430243CA602068C0
:1017F0004169A26921F44071114341613149206876
:10180000884202D03049884202D1FFF763F801E0F4
:10181000FFF750F8E2690023192164253226B2F55A
:10182000004F626828D0A0FB0101930F9200FEF7E1
:1018300029FD0146B0FBF5F06FF01802504301EBB3
:10184000800006EB0010B0FBF5F000F0F002B1FBF9
:10185000F5F002EB0012B1FBF5F06FF018035843FE
:1018600001EB800006EB0010B0FBF5F000F00F007C
:1018700021681044886070BDA0FB010192185B4193
:10188000FEF700FD0146B0FBF5F00201B1FBF5F0FB
:101890006FF01803584301EB800006EBC000B0FB6B
:1018A000F5F000F0F80002EB4002B1FBF5F0584310
:1018B00001EB800006EBC000B0FBF5F000F0070084
:1018C000D6E7000000100140001401402DE9F0416E
:1018D000984617460E460446069D27E0681C25D00C
:1018E0002DB1FEF76FFEA0EB0800A8421ED92068BC
:1018F0000C3050E8001F21F4D07140E80012002A9B
:10190000F5D12068143050E8001F21F0010140E8B3
:101910000012002AF5D1202084F83D0084F83E0012
:10192000002084F83C000320BDE8F08120680068B6
:1019300036EA000004D00020B842CFD00020F3E700
:101940000120F9E7FEE700000FB4054B10B503A92D
:10195000044A029800F03CF810BC5DF814FB00004B
:10196000C51E0008AC0000200FB4084B10B504A938
:1019700002AA039800F02CF8044602A9002000F007
:1019800087F9204610BC5DF814FB0000911C00088C
:101990000907090E002804DB00F1E02080F800149C
:1019A000704700F00F0000F1E02080F8141D704730
:1019B00002E008C8121F08C1002AFAD17047704718
:1019C000002001E001C1121F002AFBD17047000076
:1019D0002DE9FF4F8DB09B460F460446002606E0DA
:1019E00025280BD05A460F999047641C761C207806
:1019F0000028F5D111B03046BDE8F08F0025A8468B
:101A00000122984900E0054314F8013F203B02FA07
:101A100003F00842F7D120782E2817D114F8010FCF
:101A200045F004052A280ED06FF02F022078A0F18F
:101A3000300109290AD808EB880102EB410100EBCB
:101A40000108641CF2E757F8048B641C20786C28AA
:101A50000DD004DC4C2812D06A2811D104E074287F
:101A60000DD07A280CD10AE045F4001507E0617822
:101A700045F48015814202D1641C05F58015641C73
:101A80002078692844D008DC0028B3D0582867D0D3
:101A900063280FD0642808D13AE0702865D07328F5
:101AA00012D075285AD078285AD05A460F999047A4
:101AB000761CD5E017F8040B8DF8000000208DF897
:101AC0000100E946012003E057F8049B4FF0FF3086
:101AD00069074FF0000501D40AE06D1C45450DDA99
:101AE0008542FADB19F805100029F6D106E06D1CD5
:101AF0008542FCDB19F805100029F8D12E4404E0DA
:101B000019F8010B5A460F9990476D1EF8D2A7E0BD
:101B10000A200021CDE90801C5F3025002280CD0AB
:101B200001CFC117021E71F100020CDA0023D0EBC5
:101B3000030063EB01012D2208E0FF1D27F00707DA
:101B4000F7E80201EEE72A0504D52B228DF82820BC
:101B500001223CE0EA073AD02022F7E70A2000E021
:101B600010200021CDE9080107E01020002145F0F8
:101B70000405CDE908014FF00808C5F3025002281A
:101B800010D001CF00214FF0000A2A0720D522787B
:101B9000702A0DD0DDE908C38CF0100C5CEA030C50
:101BA0000CD015E0FF1D27F00707F7E80201EAE770
:101BB00040228DF828204FF0010A0CE050EA010382
:101BC00006D030238DF828308DF829200222924645
:101BD0002278582A04D024A20DF120090B9209E0A2
:101BE00026A2F9E7DDE90823FEF74CFB0B9B9B5C83
:101BF00009F8013D50EA0102F4D1ADEB09002030B3
:101C00000890680701D44FF001080899884503DD62
:101C10000898A8EB000000E000208046002506E0C0
:101C20000AA85A46405D0F9990476D1C761C554591
:101C3000F6DB04E030205A460F999047761CB8F145
:101C40000001A8F10108F5DC05E019F8010B5A467E
:101C50000F999047761C0899481E08900029F4DCDB
:101C6000641CC4E60928010030313233343536377C
:101C700038396162636465660000000030313233D8
:101C80003435363738394142434445460000000078
:101C90000A68531C0B6010707047000070B5064650
:101CA000284800EB061420688047052100250028FD
:101CB000207906EB460331D0052801D2217170BD91
:101CC0000A2802D2401C207170BDA07A06EB46069D
:101CD000761C20B90120A072F0B200F0A5F821898D
:101CE0000029F1D0E088884208D2401C80B2E08010
:101CF00021898842E8D1DB1CD8B20BE0E07A0028C9
:101D0000E2D0207B401CC0B22073E17A8842DBD352
:101D10002573F0B2BDE8704000F086B8052801D9FF
:101D200021710BE010B1401E207107E0A07A01285C
:101D300004D19B1CA572D8B200F076F8E58025731B
:101D400070BD0000604A002007498A7AC87A824242
:101D500001D100207047885C521CD2B28A720A2AD4
:101D6000F8D300228A727047004B002030B51E481D
:101D7000002164238172C1720173A0380A460225D2
:101D800000EB0214521C23812571A172E172D2B2C0
:101D900021730A2AF4D30387052180F83B10A0F8A9
:101DA000483080F84B10A0F8583080F85B10A0F84D
:101DB000683080F86B100D4940F82C1B0C4940F836
:101DC0001C1C0C4940F80C1C0B4941600B4941613B
:101DD0000B4941620B4941630B4941640B49416521
:101DE0000B49416630BD0000004B002091110008F6
:101DF000BD110008D1110008E5110008F911000813
:101E00000D120008211200083512000849120008BE
:101E1000A511000810B500242046FFF73FFF641C01
:101E2000E4B20A2CF8D310BD0549CA7A8854C87A9E
:101E3000401CC0B2C8720A2801D30020C872704783
:101E4000004B00200149002008607047000000207E
:101E50002DE9F041040006D0184E306884420AD1C2
:101E60000020BDE8F081502080F31188BFF34F8F30
:101E7000BFF36F8FFEE700F04FFE6569F76B366CBE
:101E800000F06AFEBD4201D0B54201D10220E8E770
:101E90000B48854208D1A06A0028F7D194F85C006D
:101EA0000128F3D00320DCE705481438854202D02E
:101EB0000DB10120D5E70420D3E700002400002065
:101EC0007406002013B50023012269460548FFF778
:101ED00005F9044800680168C9434906FBD4009825
:101EE0001CBD0000F8000020014800687047000099
:101EF00000000020FEF774FBFFF7A0FBFFF7DAF904
:101F0000FFF75CFAFFF738FA0548FEF771FFFFF7B5
:101F10002DFF00F015F8FFF7A3F900F023F8FEE716
:101F2000B000002010B5EFF3058111B16FF005048A
:101F300003E0002408B100F0C7FE204610BD0000F9
:101F4000EFF3058010B16FF0050070470448016899
:101F500011B14FF0FF307047012101600020704740
:101F60007C00002010B5EFF3058010B16FF0050084
:101F700010BD08480168012902D04FF0FF3010BDA4
:101F8000054A002182F8141D0221016001F06EF85B
:101F9000002010BD7C0000200BE000E02DE9FF4197
:101FA0004FEA01034FF00005EFF30581039549BBAC
:101FB00040B38027182100244AB3166806B134467E
:101FC00096691EB13146761E382E02D21679F60772
:101FD00003D0002004B0BDE8F081566906B1B7080F
:101FE000D2F808C0BCF1000F0DD0D568602D18D311
:101FF00012693AB136B18DE806103A46214601F031
:1020000034FC03900DE0D6685EB912694AB903AAA0
:10201000CDE90012BAB2214601F0FAFB012800D046
:1020200003950398D6E700002DE9F041134C0F46C5
:102030000546E6682068001D00F0A6FC681C07D174
:1020400037B12168BDE8F0410D48091D00F058BDC9
:1020500020683544B5424560216805D2206CBDE852
:10206000F041091D00F034BDE06B091D00F030FDAA
:10207000A06A854200D2A562BDE8F081240000205C
:10208000740600202DE9F041054600F045FD2D4C79
:10209000A068401CA06020682B4F10B1606930B36D
:1020A0002BE02560A068012827D1002606EB8600DA
:1020B00007EB800000F0FEFC761C382EF6D3234898
:1020C00000F0F8FC2148143000F0F4FC1F482830E0
:1020D00000F0F0FC1D483C3000F0ECFC1B48503098
:1020E00000F0E8FC1948E0631430206405E0206843
:1020F000E96AC06A884200D82560606A401C606254
:102100006864E86A2169884200D9206100EB800098
:1021100007EB8000291D00F0F3FC00F01DFD606955
:1021200000280CD02068E96AC06A884207D20849B2
:102130004FF080500860BFF34F8FBFF36F8FBDE843
:10214000F081000024000020C401002024060020AB
:1021500004ED00E038B500F0DFFC104C2068C8B991
:102160000F4800F0A7FC0E48143000F0A3FC0C4808
:10217000E060143020610A4B0020F03B009003F136
:10218000500210210A2001F0E5F8206010B105A1ED
:1021900000F064FDBDE8384000F0DEBC68000020BF
:1021A00078070020546D72510000000030B4026CBA
:1021B0000B46002A0BD0C1681144C1608468A1425B
:1021C00001D30168C16030BC1846FEF78CB830BC42
:1021D00070472DE9F041856B174604460026026CD6
:1021E00082B1C7B1E068FEF77EF8E168206C091A99
:1021F000E1602268914202D2A168081AE060022FD1
:1022000016D017E02068A8B9A06801F0D1FB0646F7
:102210000020A0600EE06068FEF765F8216C606841
:1022200008446060A168884204D32068606001E0CF
:1022300005B16D1E6D1CA5633046BDE8F08110B57B
:10224000044690F85D0058B101280CD002280FD048
:10225000502080F31188BFF34F8FBFF36F8FFEE7DD
:10226000206B00F08DFC2046BDE8104000F088BCDB
:1022700010BD000010484FF47051420706D0C01D39
:102280000D4920F00700411AC1F570510B4A002397
:102290000144C2E900030839183A21F0070111602E
:1022A0004B600B600B1AC0E9001393604FF00040C5
:1022B0005360506170470000600E002098000020BD
:1022C000144E154CA6F29C474FF08058DFF84C9006
:1022D00012E000BF00F020FCF068C568281D00F087
:1022E00053FBA068401EA0606068401E606000F064
:1022F00033FC2846FFF7A3FF60680028EAD138685E
:102300000128F9D9C9F80080BFF34F8FBFF36F8F51
:10231000F2E70000600600202400002004ED00E049
:1023200070B51D46049C51B1C4F80020C4E90F01EA
:102330000121204601F042F884F84C5070BD246021
:10234000F4E700002DE9F05F8846DDE90B941546BF
:10235000834691009A460A9EA522206BFDF7D5FF81
:102360006FF00301206B01EB8501084420F00707A3
:10237000780707D0502080F31188BFF34F8FBFF349
:102380006F8FFEE70025B8F1000F0FD05FF000005F
:10239000221818F8001082F8341018F8001011B143
:1023A000401C1028F4D384F8435001E084F83450E2
:1023B000382E00D33726E662C4E91365201D00F0ED
:1023C00084FB04F1180000F080FB2461C6F13800A2
:1023D0006462A0616565A56584F85C505246594603
:1023E000384600F0BBFA2060B9F1000F01D0C9F8FF
:1023F0000040BDE8F09F000030B5114900E01146F3
:102400000A688242FBD34B685C18844203D140685F
:1024100018444860084643681C18944209D1084C87
:10242000183C2468A24209D052681A4442600A68E3
:1024300012680260814200D0086030BD0460F9E794
:102440009800002070B5002441600B4D006191425E
:1024500006D8D11A8269914206D2011D286907E087
:102460009A4203D2994201D3012403E0011DE86896
:1024700000F02EFB204670BD6800002010B5044619
:1024800000F04AFBA06B28B15FF0000400F064FB91
:10249000204610BD0124F9E72DE9F0478146086880
:1024A00092460C46002600B3606804F108054068B7
:1024B0006060A84201D1416861606068D0F80C801A
:1024C000606840686060A84201D1416861606068EE
:1024D00006EBC60109EB8101C76853460122384665
:1024E00000F060FC761C4745EAD13046BDE8F08735
:1024F00030B589B03C4D6EE00498002806DADDE97D
:102500000601059A90470498002864DB069C6069E0
:1025100010B1201D00F038FA03A800F0D7F80246E9
:1025200004980A2857D2DFE800F00505052D334A44
:1025300005052D3394F8280040F0010084F82800A8
:102540000599A069059B01442046FFF77BFF68B30E
:10255000216A2046884794F8280040073BD5002090
:1025600000900598A169002342181946204601F001
:1025700029FBD8B9502080F31188BFF34F8FBFF3E8
:102580006F8FFEE714F8280F20F00100207022E082
:1025900094F8280040F0010084F828000598A06114
:1025A00028B1811813462046FFF74CFF13E0502056
:1025B00080F31188BFF34F8FBFF36F8FFEE794F85E
:1025C0002800810703D4204600F0DAFA03E020F067
:1025D000010084F82800002204A9286801F042F8CC
:1025E000002889D109B030BD680000202DE9FC41E8
:1025F0000F46054600F0CEFD01A800F067F804463E
:10260000019818B101F04CFABDE8FC81254EAFB13C
:1026100030690068D0B30027291B3A46306800F0C3
:1026200031FB01F03DFA0028EED11F494FF08050F8
:102630000860BFF34F8FBFF36F8FE5E7A542EBD87C
:1026400001F02EFAF0682746C068C468201D00F02B
:102650009BF994F82800410719D5A0692B46411928
:102660003A462046FFF7EEFEA8B100200346014699
:1026700000902A46204601F0A5FA60B9502080F368
:102680001188BFF34F8FBFF36F8FFEE707E020F095
:10269000010084F82800216A20468847B4E7012712
:1026A000BAE700006800002004ED00E00648C16BB6
:1026B000096829B1C16BC968C968496881627047F6
:1026C0004FF0FF31FAE700002400002070B5054606
:1026D00001F004F9064E0446B068844203D200F0CB
:1026E00009F8012000E0002028602046B46070BD99
:1026F00068000020F8B5194D20E0C068C46806687D
:10270000201D00F041F9216A2046884794F82800EE
:10271000400713D5A0693044B04206D924616060F7
:10272000211DE86800F0D4F908E0002003460146C6
:1027300000903246204601F045FA38B1E868016859
:102740000029DAD12969C5E90310F8BD502080F3CA
:102750001188BFF34F8FBFF36F8FFEE76800002033
:10276000002101E0401C491C0278A52AFAD0C1F3DF
:102770008F00704708484068401C4FF0500080F3BD
:10278000118804D0BFF34F8FBFF36F8FFEE7BFF305
:102790004F8FBFF36F8FFEE7A0000020002150B1E4
:1027A0000A4B42699A420FD1806AA3F128029042F3
:1027B0000AD040B108E0502080F31188BFF34F8F5A
:1027C000BFF36F8FFEE701210846704774060020B3
:1027D000074CE068016841B1C0680021D0F80000F2
:1027E000FFF704FFFFF784FEF3E701210020F7E77E
:1027F000680000202DE9F041044600F08DF994F9BD
:10280000455004F1240609E0606A48B1304601F001
:102810000FF908B100F0B2FB6D1E6DB2002DF3DCB4
:102820004FF0FF3684F8456000F096F900F074F937
:1028300094F9445004F1100709E0206948B1384682
:1028400001F0F6F808B100F099FB6D1E6DB2002D95
:10285000F3DC84F84460BDE8F04100F07DB910B5C8
:102860000446FDF76BFD2046FDF761FD202101E0E8
:102870002154401C0F28FBD300212154204410BDBB
:102880002DE9F0410546002700F084FC324E306807
:1028900008B9FFF7EFFC706905424ED1C5B30835A2
:1028A00068070ED005F00700C0F10800054468076E
:1028B00007D0502080F31188BFF34F8FBFF36F8F85
:1028C000FEE72DB37068854237D82348183001469B
:1028D0000C6801E020460C466168A94202D22168DA
:1028E0000029F7D131688C4227D007682168016040
:1028F00060680837411B10290FD96019420708D0BA
:10290000502080F31188BFF34F8FBFF36F8FFEE726
:1029100013E041606560FFF76FFD61687068401A01
:102920007060B268904200D2B060706901430020CC
:10293000C4E90001F068401CF06001F0B1F87807CC
:1029400007D0502080F31188BFF34F8FBFF36F8FF4
:10295000FEE73846BDE8F0818000002010B5031F77
:102960004FF080741C601B1F21F001011960191FBA
:10297000044B0B6014390A60091F6FF002024438DF
:102980000A6010BD75270008D0E9013201699A601C
:10299000D0E901235A604A68824201D182684A60C4
:1029A000002202610868401E086008687047000045
:1029B0002DE9F04717460A4605460024382600F060
:1029C000E9FBDFF88C80D8F8080082423BD3DFF8BF
:1029D0008490761E06EB860104EBC40009EB8101AE
:1029E00005EB80000122FFF757FD0444002EF0D1D3
:1029F00004EBC40005EB800002224646D8F83C10E8
:102A0000FFF74AFD044404EBC40005EB80000222FA
:102A1000316CFFF741FD044404EBC40005EB80007A
:102A200004220D49FFF738FD04440B4904EBC400B0
:102A300005EB800003221431FFF72EFD044417B18B
:102A4000FFF752FA386001F02BF82046BDE8F08716
:102A500024000020C401002060060020034B036016
:102A600003F160000860802010607047A00700201C
:102A7000044B036003F1600008604FF48070106045
:102A800070470000000A002001A0FEF75DBF0000B3
:102A90000AE4BBBBE58AA1EFBC9A20EFBC9A257380
:102AA00020E58F91E78EB0E6A088E6BAA2E587BA66
:102AB0000A00000000F108014FF0FF32C0E90112E6
:102AC000C160016100210160704700210161704710
:102AD00030B50B685A1C02D000F1080202E002690E
:102AE00004E02246546825689D42FAD953684B6039
:102AF00099608A60516008610168491C016030BDBD
:102B000042684A6093688B6093685960916008617D
:102B10000168491C01607047502080F31188BFF3A1
:102B20004F8FBFF36F8F0A494868401C48600128E7
:102B30000CD10848006810F0FF0F07D0502080F338
:102B40001188BFF34F8FBFF36F8FFEE77047000010
:102B5000A000002004ED00E00849486828B1401EAC
:102B6000486001D180F311887047502080F31188AC
:102B7000BFF34F8FBFF36F8FFEE70000A000002070
:102B800070B500282AD0164DA0F108046068696964
:102B9000084207D1502080F31188BFF34F8FBFF355
:102BA0006F8FFEE722683AB1502080F31188BFF39F
:102BB0004F8FBFF36F8FFEE78843606000F0EAFA43
:102BC00060686968084468602046FFF715FC28695A
:102BD000401C2861BDE8704000F062BF70BD00007D
:102BE000800000204FF0E020002101618161054953
:102BF0004FF47A720968B1FBF2F1491E4161072175
:102C0000016170472000002010B5FDF725FB114938
:102C100010280ED300F1E02090F8F0030A789042DB
:102C200007D2502080F31188BFF34F8FBFF36F8F0F
:102C3000FEE709480068896800F4E060884207D927
:102C4000502080F31188BFF34F8FBFF36F8FFEE7E3
:102C500010BD0000A00000200CED00E010B5084BF6
:102C6000002200BF53F832401CB1521C082AF9D38D
:102C700010BD43F8321003EBC201486010BD0000E4
:102C80008401002070B515460E460446FFF744FF48
:102C900094F944100020491C01D184F8440094F9AF
:102CA0004510491C01D184F84500FFF755FFA06B82
:102CB00028B92A46314604F1240000F07DF9204667
:102CC000BDE87040FFF796BD10B5020014D00F4864
:102CD000006B38B1502080F31188BFF34F8FBFF3E2
:102CE0006F8FFEE700F056FA00211046FFF79CF9BF
:102CF00000F0D6FE002807D105494FF0805008604B
:102D0000BFF34F8FBFF36F8F10BD00002400002072
:102D100004ED00E070B50546FFF7FEFE1E4C05B958
:102D20002568281DFFF730FEA86A18B105F11800C4
:102D3000FFF72AFE606A401C60622068854207D166
:102D4000291D1648FFF7DCFE6068401C606007E044
:102D5000A068401EA0602846FFF771FAFFF7A6FCA6
:102D6000FFF7FAFE6069002814D02068854211D16F
:102D7000206B38B1502080F31188BFF34F8FBFF321
:102D80006F8FFEE706494FF080500860BFF34F8F0A
:102D9000BFF36F8F70BD000024000020600600208C
:102DA00004ED00E02DE9F0410C461B491646B8B190
:102DB0004FEA000505F13400C4E90050E86A2061DB
:102DC000286BE061686CA060E86C6061686D00274A
:102DD000A061052B12D00868854203D1277311E04A
:102DE0000D68E7E72373032B0CD100F0D3F9A86A31
:102DF00008B10220207300F053FE03E02846FFF7DD
:102E000027F820732EB1286BFFF7AAFC2084BDE8B9
:102E1000F0812784FBE70000240000202DE9F8431F
:102E20000021804601701F488468806800EBC00064
:102E30008000FFF725FD060031D06A462146FFF7E6
:102E4000B7FD074600986421B0FBF1F0009018B37D
:102E500000241FE004EBC40006EB80050099A8697C
:102E6000B0FBF1F940466968FFF7F9FC8046AA69B2
:102E7000B9F1000005D003460BA14046FEF774FDF2
:102E800003E00CA14046FEF76FFD4046FDF74FFA08
:102E90008044641CBC42DDD33046FFF771FEBDE8C0
:102EA000F8830000240000200925750909257525EF
:102EB000250D0A0009257509093C3125250D0A0053
:102EC00002490A6A0260C968416070472400002014
:102ED0002DE9FC4700218146017023488468806801
:102EE00000EBC0008000FFF7CBFC060039D00022C9
:102EF0002146FFF75DFD0746002423E004EBC400F4
:102F000006EB8005287B052829D2DFE800F00305C1
:102F100022242600582000E0522080464846696856
:102F2000FFF79DFC8146A968288CCDE90001424647
:102F30000EA148462B69FEF717FD4846FDF7F7F945
:102F40008144641CBC42D9D33046BDE8FC47FFF73E
:102F500017BE4220E1E75320DFE74420DDE70020F1
:102F6000DBE7BDE8FC870000240000200925630999
:102F700025750925750925750D0A000001490120EF
:102F8000C86170472400002010B50C4650B10949B3
:102F900009681831FFF79CFD2046BDE8104001216B
:102FA000FFF742B8502080F31188BFF34F8FBFF373
:102FB0006F8FFEE72400002070B514460D4668B1FF
:102FC0000A4909681831FFF79BFD0CB14FF0FF3536
:102FD00021462846BDE87040FFF726B8502080F310
:102FE0001188BFF34F8FBFF36F8FFEE724000020DF
:102FF00070B504002AD01A4D286884422ED0FFF7FD
:103000008BFD2046FFF7CAFBE0B1201DFFF7BCFC9B
:10301000E06A2969884200D92861124900EB8000E2
:1030200001EB8000211DFFF76BFDE06A2968C96A8A
:10303000884207D30C494FF080500860BFF34F8F90
:10304000BFF36F8FBDE87040FFF786BD502080F35F
:103050001188BFF34F8FBFF36F8FFEE770BD000085
:1030600024000020C401002004ED00E030B587B04A
:103070000024039405AA04A903A80494FFF7EEFC16
:10308000DDE903010094CDE90110002316A11848E1
:10309000059A00F0EAFB174D0028E86221D000F005
:1030A00061FD012809D0401C1BD1502080F31188FC
:1030B000BFF34F8FBFF36F8FFEE7502080F311886F
:1030C000BFF34F8FBFF36F8F4FF0FF30A862012027
:1030D0006861EC60FEF7B6FE07B0BDE8304000F076
:1030E000A9B807B030BD000049444C4500000000BD
:1030F000C12200082400002070B50446FFF70CFD33
:10310000214D04B92C68201DFFF73EFCA06A18B1C0
:1031100004F11800FFF738FC211D1C48FFF7F0FCF4
:1031200094F85C000026012801D184F85C60FFF768
:1031300013FD686928B1FFF7EFFCFFF7B7FAFFF757
:103140000BFD2868844213D1686990B1286B38B1AF
:10315000502080F31188BFF34F8FBFF36F8FFEE7CE
:103160000B494FF080500860BFF34F8FBFF36F8F54
:1031700070BD06480068A968884201D12E6070BD04
:10318000BDE8704000F00EB8240000207406002056
:1031900004ED00E00248016B491C01637047000028
:1031A0002400002010B5214C206B10B10120E061FB
:1031B00010BD0020E061FEF797FEA063626B9042B5
:1031C00004D92168821A4B6D1A444A6560632068ED
:1031D00021680068096B884204D82168206834316E
:1031E000FFF752FC2069124901E0B8B1401E00EB24
:1031F000800251F82220002AF7D000EB800201EB78
:10320000820101F108034A6852684A609A4201D17A
:1032100052684A60D1682160206110BD502080F35F
:103220001188BFF34F8FBFF36F8FFEE7240000209C
:10323000C40100201CB537480168374A914207D1C4
:10324000502080F31188BFF34F8FBFF36F8FFEE7DD
:1032500000683149491E884207D1502080F3118807
:10326000BFF34F8FBFF36F8FFEE72C4908780190B3
:10327000FF20087008788DF800009DF800009DF888
:10328000002000F0F000904207D0502080F3118819
:10329000BFF34F8FBFF36F8FFEE79DF80000204C08
:1032A00000F0500020700720A06005E09DF800208D
:1032B00052008DF80020401E9DF800201206F5D423
:1032C000A060032807D0502080F31188BFF34F8FF0
:1032D000BFF36F8FFEE74FF44070A0600198087055
:1032E0000C482030016841F470010160016841F030
:1032F00070410160FFF776FC00206060FCF774FF0E
:103300000848016841F040410160FCF759FF002086
:103310001CBD000000ED00E071C20F4100E400E0C0
:10332000A000002034EF00E010B5502080F3118899
:10333000BFF34F8FBFF36F8F00F0D6FA18B1044977
:103340004FF080500860002080F3118810BD00000D
:1033500004ED00E038B5049D18B153B1CAB181B194
:1033600020E0502080F31188BFF34F8FBFF36F8FA1
:10337000FEE7502080F31188BFF34F8FBFF36F8FAC
:10338000FEE7502080F31188BFF34F8FBFF36F8F9C
:10339000FEE739B1502080F31188BFF34F8FBFF3A0
:1033A0006F8FFEE750241C46012384F846302B46DD
:1033B0000094FEF7B5FF204638BD000070B50D46FD
:1033C000040025D0FFF7A8FBD4E90F20216802FBF9
:1033D0000011A1600021A163216861600A46D4E95F
:1033E0000F01401E00FB0121E16021464FF0FF303C
:1033F00001F8440F487004F110008DB1FFF75AFB3B
:1034000004F12400FFF756FBFFF7A6FB012070BD77
:10341000502080F31188BFF34F8FBFF36F8FFEE70B
:1034200021690029F0D000F003FB0028ECD004490A
:103430004FF080500860BFF34F8FBFF36F8FE3E70B
:1034400004ED00E02DE9FF4782B01D468A464FF0AB
:103450000008040003D0BAF1000F08D011E050209A
:1034600080F31188BFF34F8FBFF36F8FFEE7206C9F
:1034700038B1502080F31188BFF34F8FBFF36F8FA7
:10348000FEE7022D0AD1E06B012807D0502080F31F
:103490001188BFF34F8FBFF36F8FFEE700F010FA74
:1034A0003F4F4FF000094FF0805648B9049838B1AB
:1034B000502080F31188BFF34F8FBFF36F8FFEE76B
:1034C000FFF72AFBA06BE16B884207D3022D05D0E2
:1034D0000498D0B1B8F1000F1AD01EE02A46514628
:1034E0002046FEF776FE616A19B104F1240000F06F
:1034F0009FFA20B13E60BFF34F8FBFF36F8FFFF78E
:103500002BFB012006B0BDE8F087FFF725FB22E08A
:103510006846FFF7D5FC4FF00108FFF71DFBFFF7EA
:1035200039FEFFF7F9FA94F94400401C01D184F800
:10353000449094F94500401C01D184F84590FFF770
:103540000BFB04A9684600F029F930B12046FFF7CB
:1035500051F900F0A5FA0020D4E7FFF7DDFAA06BDF
:10356000E16B884213D1FFF7F7FA04F110000499D8
:10357000FFF70AFD2046FFF73DF900F091FA002819
:103580009ED13E60BFF34F8FBFF36F8F98E7FFF779
:10359000E3FA2046FFF72EF900F082FA90E70000E8
:1035A00004ED00E02DE9F0471F46904689460400EF
:1035B00003D0B9F1000F08D011E0502080F311883A
:1035C000BFF34F8FBFF36F8FFEE7206C38B15020F1
:1035D00080F31188BFF34F8FBFF36F8FFEE7022F89
:1035E0000AD1E06B012807D0502080F31188BFF387
:1035F0004F8FBFF36F8FFEE7FFF706FB5020EFF30F
:10360000118680F31188BFF34F8FBFF36F8FA06BCC
:10361000E16B884206D3022F04D0002086F3118884
:10362000BDE8F08794F94550A06B3A4649462046DC
:10363000FEF7CFFD681C04D06D1C84F845500120B6
:10364000ECE7606A0028FAD004F1240000F0F0F9F9
:103650000028F4D0B8F1000FF1D00121C8F8001013
:10366000EDE700002DE9F747002683B08A46040005
:1036700003D0BAF1000F08D011E0502080F3118878
:10368000BFF34F8FBFF36F8FFEE7206C38B1502030
:1036900080F31188BFF34F8FBFF36F8FFEE700F009
:1036A0000FF9DFF8F4804FF000094FF0805748B968
:1036B000059838B1502080F31188BFF34F8FBFF3C6
:1036C0006F8FFEE7FFF728FAA56BC5B1514620467C
:1036D000FEF76CFD6D1EA563206950B104F110006A
:1036E00000F0A6F928B1C8F80070BFF34F8FBFF300
:1036F0006F8FFFF731FA012006B0BDE8F08705981B
:1037000008B11EB106E0FFF727FA27E06846FFF789
:10371000D7FB0126FFF720FAFFF73CFDFFF7FCF986
:1037200094F94400401C01D184F8449094F9450078
:10373000401C01D184F84590FFF70EFA05A96846B0
:1037400000F02CF8002820460AD0FFF753F800F0CC
:10375000A7F92046FEF792FE0028B3D00020CBE761
:10376000FEF78CFE90B104F124000599FFF70CFCE4
:103770002046FFF73FF800F093F90028A2D1C8F8DF
:103780000070BFF34F8FBFF36F8F9BE72046FFF7AB
:1037900031F800F085F995E704ED00E02DE9F041FE
:1037A0000C46050011D0C4B1FFF7B6F9174BDA6823
:1037B0006E682068911B471C17D02F681B6A9F42B8
:1037C00019D0964217D8012410E0502080F31188B8
:1037D000BFF34F8FBFF36F8FFEE7502080F3118848
:1037E000BFF34F8FBFF36F8FFEE70024FFF7B4F9ED
:1037F0002046BDE8F081884205D9401A206028465D
:10380000FFF75EFBF1E700202060DCE724000020EA
:103810002DE9FF5F8346DDE90E87994616468A4605
:103820009000FFF72DF805001CD06020FFF728F866
:10383000040014D00020256384F85D00CDE9024027
:10384000CDE900874B46324651465846FEF77AFD91
:103850002046FEF717FC012004B0BDE8F09F284683
:10386000FFF78EF94FF0FF30F6E7F0B585B0DDE9F0
:103870000B640A9DA6B1DCB160270097266302267F
:1038800084F85D60002604AFCDE90246CDE900571B
:10389000FEF758FD2046FEF7F5FB049805B0F0BD95
:1038A000502080F31188BFF34F8FBFF36F8FFEE777
:1038B000502080F31188BFF34F8FBFF36F8FFEE767
:1038C0000548416919B1006B18B10020704701200B
:1038D0007047022070470000240000200148C068A3
:1038E00070470000240000202DE9F0412E4C0027F5
:1038F000206B28B1A069401CA0613846BDE8F0816A
:10390000E668761CE66013D1E06B006838B15020A1
:1039100080F31188BFF34F8FBFF36F8FFEE7E06B2B
:10392000216CE1632064206A401C2062FEF7BEFE29
:10393000A06ADFF87880864209D3E06B0068A0B106
:10394000E06BC068C5686868864211D2A0622068D2
:10395000C06A00EB800158F82100012800D9012736
:10396000E0690028C9D00127C7E74FF0FF30EDE735
:10397000281DFFF709F8A86A18B105F11800FFF72C
:1039800003F8E86A2169884200D9206100EB8001D0
:1039900008EB8100291DFFF7B3F8E86A2168C96ABE
:1039A0008842CAD30127C8E724000020C4010020B0
:1039B00070B504004FF0000133D01B4D28688442DD
:1039C00007D0502080F31188BFF34F8FBFF36F8F64
:1039D000FEE7206D38B1401E2065E36CE26A9A4232
:1039E0001FD040B11DE0502080F31188BFF34F8FEE
:1039F000BFF36F8FFEE7201DFEF7C6FFE06CE062AD
:103A0000C0F13800A061E06A2969884200D92861C4
:103A1000064900EB800001EB8000211DFFF770F8E4
:103A20000121084670BD000024000020C4010020D0
:103A300070B5C068C46854B104F118000646FEF7BA
:103A4000A3FF144D286B50B13146134815E05020A8
:103A500080F31188BFF34F8FBFF36F8FFEE7201DF8
:103A6000FEF792FFE06A2969884200D928610B4974
:103A700000EB800001EB8000211DFFF741F8E06AB8
:103A80002968C96A884202D90120E86170BD002016
:103A900070BD0000240000204C060020C40100205E
:103AA0002DE9F0472C4D00242746286B38B1FFF74D
:103AB00033F8286B401E2863286B40B146E0502045
:103AC00080F31188BFF34F8FBFF36F8FFEE7A968B4
:103AD000224E0120D1B3A6F5916980463068E0B14D
:103AE000F068C46804F11800FEF74EFF201DFEF7D1
:103AF0004BFFE06A2969884200D9286100EB800108
:103B000009EB8100211DFEF7FBFFE06A2968C96A05
:103B10008842E3D3C5F81C80E0E70CB1FEF7C6FD90
:103B2000AC694CB14FEA0806FFF7DEFE00B1EE616A
:103B3000641EF9D10020A861E86938B1084901275D
:103B400038070860BFF34F8FBFF36F8FFFF704F89C
:103B50003846BDE8F0870000240000204C06002015
:103B600004ED00E010B586B0FEF7F4FA114C2068C1
:103B7000B8B100200390049005AA04A903A8FEF799
:103B800077FFDDE9032102208DE8070000230AA169
:103B90000B48059AFFF769FE606010B106B001207E
:103BA00010BD502080F31188BFF34F8FBFF36F8F8C
:103BB000FEE7000068000020546D72205376630019
:103BC000D12700082DE9FF411E46134602000A9D39
:103BD0004FF0000016D0144C2768002F0FD0CDE90D
:103BE00000130292062917DAFFF76AFE02284FF047
:103BF00000030FD0002269462068FFF723FC04B0C1
:103C0000BDE8F081502080F31188BFF34F8FBFF3E0
:103C10006F8FFEE72A46EEE70023324669463846B4
:103C2000FFF7C0FCEBE7000068000020203D000823
:103C30000000000000000000000000000000000084
:103C4000000200000A000000000000000000000068
:103C50002C3D0008000000000000000000000000F3
:103C600000000000000200000D0000000000000045
:103C700000000000243D00080000000000000000DB
:103C80000000000000000000000200000B00000027
:103C90000000000000000000343D000800000000AB
:103CA0000000000000000000000000000002000012
:103CB00018000000000000000000000000000000EC
:103CC00000000000010203040607080900000000CC
:103CD00001020304E4BBBBE58AA1E5908D2020200E
:103CE00020202020202020202020E4BBBBE58AA12A
:103CF000E78AB6E680812020E4BC98E58588E7BAAB
:103D0000A720202020E589A9E4BD99E6A0882020ED
:103D10002020E4BBBBE58AA1E5BA8FE58FB70A0096
:103D20004C45440055736572494600004D73675019
:103D3000726F000053746172740000005C3D0008F3
:103D400000000020B0000000B01900080C3E000880
:103D5000B0000020604E0000C01900080000000004
:103D60000000000000000000000000000000000053
:103D70000100000010000000000000000024F4001A
:103D80000000000000000000000000000000000033
:103D90000000000000000000000000000000000023
:103DA0000000000000000000000000000000000013
:103DB0000000000000000000000000000000000003
:103DC00000000000000000000000000000000000F3
:103DD00000000000000000000000000000000000E3
:103DE00000000000000000000000000000000000D3
:103DF00000000000000000000000000000000000C3
:0C3E0000AAAAAAAA00000000000000000E
:040000050800018965
:00000001FF
