:020000040800F2
:10000000304C0020610200086B240008B120000879
:100010006924000883050008952E000800000000F0
:10002000000000000000000000000000A101000826
:10003000D906000800000000FD010008652800083E
:100040007B0200087B0200087B0200087B0200089C
:100050007B0200087B0200087B0200087B0200088C
:100060007B0200087B0200087B0200087B0200087C
:100070007B0200087B0200087B0200087B0200086C
:100080007B0200087B0200087B0200087B0200085C
:100090007B0200087B0200087B0200087B0200084C
:1000A0007B020008392900087B0200087B02000857
:1000B0007B0200087B0200087B0200087B0200082C
:1000C0007B0200087B0200087B0200087B0200081C
:1000D0007B0200084D2E00087B0200087B0200080E
:1000E0007B0200087B0200087B0200087B020008FC
:1000F0007B0200087B0200087B0200087B020008EC
:100100007B0200087B0200087B0200087B020008DB
:100110007B0200087B020008452900087B020008DA
:100120007B0200087B020008850500087B020008AE
:100130007B0200087B0200087B0200087B020008AB
:100140007B0200087B0200087B0200087B0200089B
:100150007B0200087B020008910500087B02000872
:100160007B0200087B0200087B0200087B0200087B
:100170007B0200087B0200087B02000800000000F0
:100180007B0200087B020008DFF810D000F086F93F
:100190000048004741340008AFF30080304C002095
:1001A0002C4B19680868B0E8F04F80F30988BFF35A
:1001B0006F8F4FF0000080F311887047000000003F
:1001C00008480068006880F308884FF0000080F35A
:1001D000148862B661B6BFF34F8FBFF36F8F00DF35
:1001E00000BF00BF08ED00E0DFF80C00016841F43B
:1001F00070010160704700BF88ED00E0EFF30980F7
:10020000BFF36F8F134B1A681EF0100F08BF20ED5D
:10021000108A20E9F04F106009B44FF0500080F3CD
:100220001188BFF34F8FBFF36F8F04F075FA4FF053
:10023000000080F3118809BC19680868B0E8F04F25
:100240001EF0100F08BFB0EC108A80F30988BFF3CE
:100250006F8F704734000020EFF305807047000077
:100260000648804706480047FEE7FEE7FEE7FEE750
:10027000FEE7FEE7FEE7FEE7FEE7FEE729290008C6
:10028000890100082DE9F05F0546002092469B4653
:1002900088460646814640241BE02846414647469C
:1002A000224600F0B3F853465A46C01A914110D383
:1002B00011461846224600F09AF82D1A67EB0108FD
:1002C0004F4622460120002100F091F817EB00096B
:1002D0004E41201EA4F10104DFDC484631462A4687
:1002E0004346BDE8F09F40EA01039B0703D009E0C5
:1002F00008C9121F08C0042AFAD203E011F8013B12
:1003000000F8013B521EF9D27047D2B201E000F86A
:10031000012B491EFBD270470022F6E710B51346A9
:100320000A4604461946FFF7F0FF204610BD30B5D7
:1003300005462A460B4612F8010B13F8014B08B18B
:10034000A042F8D01CB1002802D06D1CF1E728466D
:1003500030BD421C10F8011B0029FBD1801A7047E8
:10036000034611F8012B00F8012B002AF9D1184699
:10037000704730B505460020034600E05B1C934201
:1003800005D2EC5CC85C201A01D1002CF6D130BD3E
:1003900070B50F4D00B92868002412E00A4602E04B
:1003A0009E4203D0521C1378002BF9D1DAB22243BB
:1003B00005D02BB124B1002100F8011B04E0044654
:1003C000401C0678002EE9D12860204670BD000050
:1003D000B800002070B5064602F092FD046805469C
:1003E0000A220021304600F021F82C6070BD202A3E
:1003F00004DB203A00FA02F1002070479140C2F17C
:10040000200320FA03F3194390407047202A04DBAD
:10041000203A21FA02F00021704721FA02F3D0407D
:10042000C2F1200291400843194670472DE9F04778
:1004300091460F4680460446002614F8015B2DB114
:1004400000F03EF80068405DC007F6D12B2D02D0C9
:100450002D2D18D0641E4A463946204600F034F847
:1004600027B13968A14201D1C7F8008071054FF06A
:1004700002040BD54042002803DD02F041FD046078
:10048000A007BDE8F08746F48066E4E70028F8DAC4
:1004900002F036FD04606FF00040F2E7064C074DB5
:1004A00006E0E06840F0010394E807009847103444
:1004B000AC42F6D3FFF76CFE08540008285400083D
:1004C00000487047E85300082DE9F05F8246007845
:1004D000002715468B460AF10104B946302801D0A1
:1004E0009DB113E014F8010B0127782803D0582898
:1004F00001D045B10AE00DB1102D07D1002710251C
:1005000014F8010B02E0082500E00A250026B04699
:100510000EE005FB080005FB06F1012701EB104684
:100520001FFA80F8B6F5803F00D3B94614F8010BE6
:10053000294600F018F80028EBDABBF1000F05D0CF
:100540000FB1641E00E05446CBF80040B9F1000F33
:1005500006D002F0D5FC02210160C81EBDE8F09F64
:1005600048EA0640FAE73A2800D2303820F0200264
:10057000412A01D3A2F13700884201D34FF0FF3066
:100580007047FEE7014800F023B90000580800203A
:10059000F0B42449202081F83D00234A012082F84C
:1005A0003500224D2249214B4C3DDFF884C01068B4
:1005B0001F4E2F1FB8394FF00064ACF1600C984209
:1005C00001D92C6008E0B04201D93C6004E06045EC
:1005D00001D9CC6000E08C604FF08064984201D972
:1005E0002C6008E0B04201D93C6004E0604501D9CC
:1005F000CC6000E08C604FF48004984201D92C60FC
:1006000008E0B04201D93C6004E0604501D9CC600B
:1006100000E08C60002082F83400F0BC024800F05A
:10062000D7B8000014080020B80800205864024021
:10063000B860024001681823CAB2103AB2FBF3F264
:10064000054B6FF30901032A9B5CC36500D9091DA3
:1006500081650846704700004453000810B5014604
:1006600000208B698A6A4FF0C07453B1B3F5005F04
:1006700015D072B1012A0CD0022A0AD0032A09D15E
:1006800004E01AB1012A06D0022A03D1C96AC901BD
:1006900000D5012010BDC96AA142FAD010BD002AC0
:1006A000F7D0012AF2D0022AF3D0032AF3D010BDEA
:1006B00030B50468256825F48025256004686360EA
:1006C0008368402B036803D099600068C26030BD26
:1006D0009A600068C16030BD704772B6FEE70000E6
:1006E00010B586B00446002269460A4800F020FF93
:1006F00008B1FFF7F2FF0022064805A900F0F6FE58
:1007000008B1FFF7EAFF182269462046FFF7EBFD24
:1007100006B010BD840700202DE9F0410446876D26
:1007200000F0C6FA064694F835000025022806D0E7
:100730008020606584F834500120BDE8F081206895
:10074000016821F0160101602068416921F08001F3
:100750004161206C08B9A06C20B12068016821F0CB
:10076000080101602068016821F0010101600CE0CE
:1007700000F09EFA801B052807D920206065032021
:1007800084F8350084F83450D7E720680068C00743
:10079000EED194F85C103F208840B860012084F8C6
:1007A000350084F834500020C7E790F8351002294E
:1007B00003D08021416501207047052180F8351064
:1007C0000068016821F0010101600020704700000D
:1007D0002DE9F84304464FF00009CDF80090634836
:1007E0004FF41651A56D0068B0FBF1F72E6894F830
:1007F0005C10082000FA01F131420FD021680A682C
:1008000052070BD50A6822F004020A6094F85C10C3
:100810008840A860606D40F00100606594F85C104D
:100820004FF0010808FA01F0304208D02168496908
:10083000090604D5A860606D40F00200606594F878
:100840005C1004208840304208D02168096889077C
:1008500004D5A860606D40F00400606594F85C10F9
:1008600010208840304218D021680968090714D543
:10087000A86020680168490304D50068000308D512
:10088000A16C07E00168C90503D4016821F00801E3
:100890000160216C09B12046884794F85C10202043
:1008A0008840304231D021680968C9062DD5A8603A
:1008B00094F8350005282068016806D0490347D51B
:1008C000006800031DD4616C1CE021F0160101607A
:1008D0002068416921F080014161206C08B9A06C59
:1008E00020B12068016821F00801016094F85C10D3
:1008F0003F208840A86084F8358084F83490216DCA
:100900001FE0E16B09B120468847606D00282BD0BD
:10091000606DC00714D0052084F835002068016898
:1009200021F0010101600098401C0090B84203D8FA
:1009300020680068C007F6D184F8358084F83490C8
:10094000E16C002910D001B02046BDE8F043084713
:100950000168C905D5D4016821F01001016084F84F
:10096000358084F83490CCE7BDE8F883300000206F
:100970002DE9F041044600F09BF906465CB10220E7
:1009800084F83500002584F834502068016821F08F
:10099000010101600DE00120BDE8F08100F088F95F
:1009A000801B052805D920206065032084F83500C8
:1009B000F2E720680068C007F0D12268116820487B
:1009C0000140D4E901031843D4E903363343184303
:1009D00063691843A3691843E3691843236A1843FA
:1009E0000843616A042903D1D4E90B13194308436E
:1009F000106020684069666A20F0070130460E43A7
:100A0000012704280CD1A06A0643E06A40B12046C1
:100A1000FFF724FE20B14020606584F83570BAE706
:100A2000206846612046FFF705FE94F85C203F21D0
:100A300091408160656584F835700020ACE7000066
:100A40003F8010F02DE9F0410446866D90F83400A7
:100A5000002501280DD0012084F8340094F8357069
:100A60000020012F07D084F8340002252846BDE875
:100A7000F0810220FBE7022784F83570606520468C
:100A8000FFF716FE94F85C103F208840B0602068A5
:100A9000016841F016010160206C20B120680168F6
:100AA00041F0080101602068016841F00101016026
:100AB000DCE700002DE9F84FDFF8BCA1002201259A
:100AC0000AF1040B03264FF00F090BF1040E00BFCF
:100AD0000B6805FA02F42340A34270D10F7907F0A6
:100AE0000307012F01D0022F16D187684FEA420871
:100AF00006FA08FC27EA0C07D1F80CC00CFA08FC2F
:100B00004CEA070CC0F808C04768A7430C79C4F347
:100B1000001494403C4344600C79E443A4070AD099
:100B2000C4684FEA420C06FA0CF7BC438F6807FA18
:100B30000CF72743C7600C7904F00304022C12D190
:100B4000D40800EB840CDCF820405707FF0E09FAAC
:100B500007F824EA0804D1F8108008FA07F848EAF0
:100B60000408CCF8208004684FEA420C06FA0CF71F
:100B7000BC430F7907F0030707FA0CF72743076018
:100B80004C6814F4403F70D03C4C276847F48047D1
:100B90002760246822F0030704F480440094384C52
:100BA00007EB040CDCF8084897074FEA177809FAB6
:100BB00008F7BC43334FB84202D1002724E054E089
:100BC000314FB84201D101271EE0304FB84201D168
:100BD000022719E02E4FB84201D1032714E02D4F10
:100BE000B84201D104270FE02B4FB84201D10527AD
:100BF0000AE02A4FB84201D1062705E0284FB84243
:100C000001D1072700E0082707FA08F72743CCF8A7
:100C10000878DAF800405746D1F804C09C435FEAF0
:100C2000CC3C00D51C433C60DBF800405F46D1F86B
:100C300004C09C435FEA8C3C00D51C433C60DEF85A
:100C400000407746D1F804C09C435FEACC2C00D525
:100C50001C433C60084F0C373C68D1F804C09C43EF
:100C60005FEA8C2C00D51C433C60521C102AFFF418
:100C70002FAFBDE8F88F0000003C0140443802402F
:100C80000030014000000240000402400008024021
:100C9000000C024000100240001402400018024004
:100CA000001C02400AB1816170470904FBE70000A3
:100CB00001488068704700002400002002488168D5
:100CC0000278114481607047240000200B4810B561
:100CD000016841F400710160016841F480610160C4
:100CE000016841F480710160032000F08DF800205C
:100CF00000F006F800F03EF8002010BD003C024075
:100D000010B5014688B00022192000F05DF81920C6
:100D100000F04CF813480024016841F00101016023
:100D2000006805A900F001000690684600F0B6F9D9
:100D300000F0E4F90C494000B0FBF1F10C480B4A1B
:100D4000491E026040F2E732C0E90324C0E9011401
:100D500000F0CCFD10B1012008B010BD044800F037
:100D600011FEF9E74438024040420F000000014004
:100D7000180900200C4882B0016841F480410160EC
:100D8000006800F4804000900748001F016841F0AF
:100D9000805101600068002200F0805000900F2117
:100DA000901E02B000F010B844380240002809DB61
:100DB00000F01F02012191404009800000F1E02075
:100DC000C0F8001170470000F0B40E4B1B680C46D1
:100DD000C3F30223C3F10705042D00D90425191D0F
:100DE000072901D2002300E0DB1E012606FA05F1E7
:100DF000491E214099409E40761E16403143F0BC6A
:100E000002F06EB80CED00E0064900F00702086839
:100E10004FF6FF03184040EA0220034A10430860DF
:100E2000704700000CED00E00000FA052DE9F843E2
:100E3000054600684FF00109C1074FF0000601D1D7
:100E4000400727D5DFF80C81C8F86860FFF730FF4E
:100E50000746414C05E000BFFFF72AFFC01B0228F0
:100E600057D820680001F7D468688101287A41EAE0
:100E70000070394984310860C8F86890FFF718FF9E
:100E8000074604E0FFF714FFC01B022841D8206882
:100E90000001F7D52878800752D52F4840300168E7
:100EA00041F08051016000682C4C00F080500090AF
:100EB000206840F480702060FFF7FAFE074604E0E7
:100EC000FFF7F6FEC01B022823D82068C005F7D51F
:100ED000214C7034206810F4407020D0A98901F4AE
:100EE000407181421BD020681D4920F44070C1F838
:100EF00000900E6020602068C00710D0FFF7D8FE79
:100F0000064641F2883707E0FFF7D2FE801BB84261
:100F100002D90320BDE8F88320688007F4D5E9688A
:100F20000D48C1F301220830032A0BD0016821F4D7
:100F3000F81101602068A989C1F30B010843206002
:100F40000020E7E70268074B22F4F81219400A4331
:100F50000260EFE7000047420038024000700040A6
:100F6000400E4742FFFCFF0F2DE9F0470E460500FB
:100F700065D0DFF81481D8F80000F7B200F0070060
:100F8000B04207D288F80070D8F8000000F00700DF
:100F9000B04254D128683D4C810712D5400703D593
:100FA000206840F4E05020602878000703D52068CE
:100FB00040F4604020602068A96820F0F0000843F9
:100FC00020602878C0072DD030496868083901288A
:100FD00012D0022813D0032811D0096889070029EC
:100FE0002DDA216821F0030101432160FFF760FE43
:100FF000814641F2883A0EE009688903EFE7096803
:101000008901ECE7FFF754FEA0EB0901514502D935
:101010000320BDE8F0872068696800F00C00B0EBA1
:10102000810FEFD1D8F80010404601F00701B1421E
:1010300007D90770006800F00700B04201D0012016
:10104000E7E72878400705D52068E96820F4E050F4
:10105000084320602878000706D52068296920F415
:10106000604040EAC100206000F058F82168084A5A
:10107000C1F30311515CC840064908600648006886
:10108000FFF73EFE0020C4E7003C02400838024063
:101090004C53000830000020280000200F2202607E
:1010A0000C4A136803F003034360136803F0F00372
:1010B0008360136803F4E053C36012684FF4E05395
:1010C00003EAD20202610448006800F007000860E9
:1010D0007047000008380240003C024004480549BF
:1010E00000680968044AC1F38221515CC840704716
:1010F00030000020083802405C53000804480549CD
:1011000000680968044AC1F34231515CC840704725
:1011100030000020083802405C530008154810B524
:10112000006810F00C02144813D01449042A0FD0A0
:10113000082A0ED10F4C241F2268236802F03F02B8
:101140005B0207D52068C0F38810A0FB010106E010
:10115000084610BD2168C1F38811A1FB00010023DE
:10116000FFF790F82168C1F30141491C4900B0FB29
:10117000F1F010BD083802400024F40040787D01F1
:101180002DE9F84F04006ED02078DFF84C93C007AB
:10119000A9F104054AD009F104000168C1F38101F5
:1011A000012908D00068C0F3810002280AD1D9F8CB
:1011B0000000400206D52868800337D56068002803
:1011C000E1D033E06068B0F5803F10D0B0F5A02FDB
:1011D000286810D020F480302860286820F480200F
:1011E00028606068A8B1FFF763FD06460DE0286837
:1011F00040F48030F4E740F480202860F7E700BF37
:10120000FFF756FD801B642873D828688003F7D544
:101210000CE0FFF74DFD064605E000BFFFF748FD77
:10122000801B6428F0D828688003F7D42078DFF882
:10123000AC8280074FF0000A3ED5A748001D016828
:1012400011F00C0F08D00068C0F3810002280BD108
:10125000D9F80000400207D42868800716D5E06856
:10126000012800D112E033E1E068B8B10120C8F8EC
:101270000000FFF71DFD064605E000BFFFF718FD63
:10128000801B0228C0D828688007F7D52868216904
:1012900020F0F80040EAC10028600DE0C8F800A086
:1012A000FFF706FD064604E0FFF702FD801B02285B
:1012B0001FD828688007F7D42078000722D5864FEA
:1012C00087486169703771B101210160FFF7F0FC57
:1012D000064604E0FFF7ECFC801B022809D83868BA
:1012E0008007F7D50EE0C0F800A0FFF7E1FC064646
:1012F00005E082E0FFF7DCFC801B02287DD838681F
:101300008007F7D42078400768D5DFF8CCB10027F4
:101310000BF13C0BDBF80000C0000BD4DBF8001035
:1013200041F08051CBF80010DBF80000012700F0FD
:10133000805000906B4E3068C00510D4306840F487
:1013400080703060FFF7B4FC009005E0FFF7B0FC60
:101350000099401A022850D83068C005F6D55E4E74
:10136000A0686C3601280FD00528306810D020F016
:1013700001003060306820F004003060A068B8B12F
:10138000FFF796FC00900FE0306840F00100F4E7B2
:1013900040F004003060F7E7FFF78AFC0099411A3B
:1013A00041F28830814266D830688007F4D50EE07B
:1013B000FFF77EFC009007E0FFF77AFC0099411AE6
:1013C00041F28830814256D830688007F4D42FB17A
:1013D000DBF8001021F08051CBF80010A069C8B3F1
:1013E0003D49091D0968C1F3810102294AD002283B
:1013F000504607D0C8F8600000E03CE0FFF758FC1A
:1014000004463BE04746C8F86000FFF751FC06463B
:1014100005E000BFFFF74CFC801B02282BD8286892
:101420008001F7D4D4E907010843A16A2E4A49088C
:1014300002EB0141626A41EA8211084394F82C10E0
:1014400040EA0161C9F8001001203866FFF730FC5E
:10145000044606E03EE000BFFFF72AFC001B02281E
:1014600009D828688001F7D534E000BFFFF720FCD9
:10147000001B022802D90320BDE8F88F28688001EC
:10148000F4D427E00128F7D0D9F80000E26900F48D
:10149000800191421CD1226A00F03F01914217D194
:1014A00047F6C071626A0140B1EB821F10D1A26A97
:1014B0004FF0FF3300F4403103EB5202B1EB024F27
:1014C00006D194F82C1000F07060B0EB016F01D0E1
:1014D0000120D1E70020CFE7043802400000474256
:1014E000800E4742007000400000FFFF10B500680A
:1014F0000B4641680D480140080CD870C1F3042424
:101500005C7001F03F049C70C1F34231197052B914
:1015100001F01FF8D870587801F01BF858709878CF
:1015200001F017F89870002010BD00003FFFFF0089
:1015300010B50B460168896A596001680969C1F3F1
:101540000E019960006801680E480140C1F3054032
:101550001870C1F306245C7001F07F049C70402475
:1015600004EA1141D97052B900F0F3FF18705878AD
:1015700000F0EFFF5870987800F0EBFF98700020B3
:1015800010BD00007F7F7F0070B5040002D0607F37
:1015900010B106E0012070BD00202077204600F049
:1015A00049F8022060772168CA20486221685320E8
:1015B0004862204600F0E2FFFF25042618BB2068A1
:1015C00081681B4A11408160216888686268104305
:1015D000D4E904231A43104388602168E068086155
:1015E00020680169228941EA024101612068C168DD
:1015F00021F08001C16020688068800607D4204601
:1016000000F00EF918B1206845626677C2E72068DD
:10161000016C21F4802101642068016CA2691143EE
:1016200001642068456201206077002070BD0000E1
:10163000BFFF8FFF1FB5002100910191029103911F
:101640000068084988420CD102200090C001039034
:101650006846FFF7EBFB08B1FFF73FF802490120AE
:1016600008601FBD002800403C0E47422DE9F047AE
:101670000446007F0B4601281FD04FF0010984F873
:101680001C9002206077DAB19878D97840EA014559
:1016900058781978000240EA413005432168CA2091
:1016A0004862216853204862204600F067FF002608
:1016B000FF274FF0040860BB1AE00220BDE8F08766
:1016C0005878C10603D500F0EF000A305870D8787A
:1016D00000F048FF0204587800F044FF42EA00227C
:1016E000987800F03FFF0243187842EA4035D5E78A
:1016F0000F480540206845602068C16821F08001DE
:10170000C1602068806880060AD4204600F088F80E
:1017100030B12068476284F81D8026770120CDE72C
:101720002068476284F81D9026770020C6E70000F5
:101730003FFFFF002DE9F0470446007F0D460128DA
:1017400027D04FF0010A84F81CA00220607720689F
:10175000002680684FEA4060F2B1002800DBEE709E
:10176000A878297840EA01476878E978000240EAD9
:10177000014007432168CA2048622168532048621B
:10178000204600F0FBFE4FF0FF084FF00409A0BB1D
:1017900016E00220BDE8F087002800DBEE70287814
:1017A00000F0E0FE0204687800F0DCFE42EA00226D
:1017B000A87800F0D7FE0243E87842EA0047D9E76C
:1017C00016480740206807602068816821F480215E
:1017D0008160D5E90301084321688A681043886065
:1017E0002068C16821F08001C1602068806880069F
:1017F0000BD4204600F014F838B12168C1F82480D9
:1018000084F81D9026770120C4E72168C1F8248060
:1018100084F81DA026770020BCE700007F7F7F00B2
:1018200070B504460068C16821F0A001C160FFF7EF
:101830003FFA05464FF47A7607E000BFFFF738FA23
:10184000401BB04201D9032070BD2068C0688006EB
:10185000F4D5002070BD70477047000070B590F857
:101860003C20012A32D0012480F83C40022280F83A
:101870003D2003685A689D6822F070060A6832436A
:101880005A60134B02689A4214D0B2F1804F11D0C3
:10189000104B9A420ED0104B9A420BD00F4B9A42EB
:1018A00008D00F4B9A4205D00E4B9A4202D00E4BF5
:1018B0009A4204D1496825F080031943916080F869
:1018C0003D40002180F83C10084670BD022070BDEC
:1018D000000001400004004000080040000C0040EF
:1018E00000040140004001400018004010B5040011
:1018F00003D094F83D0010B107E0012010BD002096
:1019000084F83C00204600F01FF8022084F83D00D7
:10191000211D206801F01CF8012084F8460084F89D
:101920003E0084F83F0084F8400084F8410084F8C9
:10193000420084F8430084F8440084F8450084F8A9
:101940003D00002010BD000008B500680B4988422A
:1019500012D10B48016841F01001016000680022BB
:1019600000F01000009005213620FFF72DFABDE8A9
:1019700008403620FFF71ABA08BD000000100040EA
:101980004038024090F83D10012901D001207047F5
:10199000022180F83D100168CA6842F00102CA6065
:1019A00000681149884214D0B0F1804F11D00F491E
:1019B00088420ED00E4988420BD00E49884208D08A
:1019C0000D49884205D00D49884202D00C49884211
:1019D00004D1816801F00701062903D0016841F0B4
:1019E0000101016000207047000001400004004038
:1019F00000080040000C004000040140004001408D
:101A000000180040704770B50446006801694FF047
:101A10000005C943890715D4C168C943890711D492
:101A2000E91E016101202077206880698007204637
:101A300002D0FFF7E7FF04E000F098F8204600F03E
:101A400096F8257720680169C943490717D4C1680A
:101A5000C943490713D46FF00401016102202077C4
:101A60002068806910F4407F204602D0FFF7CAFF4B
:101A700004E000F07BF8204600F079F82577206834
:101A80000169C943090716D4C168C943090712D4BB
:101A90006FF008010161042020772068C069800789
:101AA000204602D0FFF7AEFF04E000F05FF82046CA
:101AB00000F05DF8257720680169C943C90617D48D
:101AC000C168C943C90613D46FF010010161082031
:101AD00020772068C06910F4407F204602D0FFF7CD
:101AE00091FF04E000F042F8204600F040F825772E
:101AF00020680169C943C90708D1C168C943C9073A
:101B000004D1891E0161204600F032F82068016985
:101B1000C943090609D4C168C943090605D46FF051
:101B2000800101612046FFF796FE20680169C943E4
:101B3000490609D4C168C943490605D46FF040017C
:101B40000161204600F02CF820680169C94389062C
:101B50000BD4C168C943890607D46FF02001016125
:101B60002046BDE87040FFF777BE70BD70477047F4
:101B700010B5044600680749884201D1FFF79EF876
:101B800005492068884203D104480168491C016066
:101B900010BD0000000001400010004000000020C7
:101BA0007047704710B504460068406994F83D10CE
:101BB000C0F3C010212911D180B12068143050E841
:101BC000001F21F0800140E80012002AF5D1606B6F
:101BD00008B1FEF7A1FD204600F0C0FF2068406973
:101BE00094F83E10C0F38010222911D180B12068F2
:101BF000143050E8001F21F0400140E80012002A94
:101C0000F5D1A06B08B1FEF787FD204600F07FFFFD
:101C1000002010BD70470000F8B501680446086850
:101C2000CA684B6910F00F0F4FF0000559D003F050
:101C3000010602F49077374365D0C10705D0D1057E
:101C400003D5216C41F001012164410705D5D90775
:101C500003D0216C41F002012164810705D5D90729
:101C600003D0216C41F004012164010707D502F083
:101C70002001314303D0216C41F008012164216C23
:101C800000293AD0800604D5900602D5204600F0FF
:101C900073FF20684069216CC0F38010090700D4ED
:101CA00060B3204600F033FF20684069400621D52C
:101CB0002068143050E8001F21F0400140E8001275
:101CC000002AF5D1A06BA8B16C490165A06BFEF7A5
:101CD0006CFD002811D0A06B016D01B0BDE8F04093
:101CE000084783060FD593060DD52046BDE8F8407A
:101CF00000F042BF2046FFF78DFFF8BD2046FFF7FA
:101D000089FF2564F8BD266B2023012E79D1C606F4
:101D100077D5D60675D508684868009048694006AA
:101D200040D5A16B086840680004000CEAD0A28D81
:101D30008242E7D9E085C869B0F5807F2DD0206860
:101D40000C3050E8001F21F4807140E80012002A96
:101D5000F5D12068143050E8001F21F0010140E85F
:101D60000012002AF5D12068143050E8001F21F03D
:101D7000400140E80012002AF5D184F83E30256386
:101D800020680C3050E8001F21F0100140E80012DC
:101D9000002AF5D1A06BFEF7BFFCA08DE18D401AA3
:101DA00081B229E0A08DE18D401A81B2E08D00283A
:101DB000A8D00029A6D020680C3050E8002F22F4CB
:101DC000907240E80026002EF5D12068143050E8CB
:101DD000002F22F0010240E80026002EF5D184F801
:101DE0003E30256320680C3050E8002F22F01002AE
:101DF00040E80023002BF5D12046FFF7D2FEF8BDC6
:101E0000FFE705062BD5150629D594F83D002128B6
:101E1000F5D1A068B0F5805F01D12069B0B1206A2A
:101E2000411C2162216800784860E08C401E00045B
:101E3000000CE084E3D12068C16821F08001C1601A
:101E40002068C16841F04001C160D8E7206A00887D
:101E5000C0F308004860206A801C2062E5E7400665
:101E6000CDD55006CBD5CA68204622F04002CA60C4
:101E700084F83D3000F01BF9C1E70000192A000882
:101E800070B5040004D094F83D00002510B106E0C0
:101E9000012070BD84F83C50204600F023F8242037
:101EA00084F83D002068C16821F40051C1602046DB
:101EB00000F0C2FE2068016921F4904101612068B0
:101EC000416921F02A0141612068C16841F4005153
:101ED000C1602564202084F83D0084F83E00002085
:101EE00070BD00002DE9F04186B006461421684619
:101EF000FEF712FA30493068884259D12F48002441
:101F0000016841F010010160006800F010000590C8
:101F10002A481438016841F00101016000686946EF
:101F200000F0010005904FF4C06000900220CDE960
:101F3000010403200390072004902148FEF7BAFD16
:101F4000214D20484FF000672860C5E901744FF427
:101F50008068C5E903486C61AC61EC612C6228467D
:101F60006C62FEF705FD08B1FEF7B7FBB563AE6323
:101F7000154D144860357830E5E802074020A5E8A3
:101F80001101114845F814496030AC61EC612C62D4
:101F90006C62FEF7EDFC08B1FEF79FFB7563002253
:101FA00006212520AE63FEF70FFF2520FEF7FEFE7B
:101FB00006B0BDE8F0810000001001404438024046
:101FC00000000240406402405808002090F83E3073
:101FD000202B0ED159B152B190F83C30012B08D0D2
:101FE000012380F83C300023036300F0ABBE0120E6
:101FF0007047022070477047704700002DE9F84392
:10200000044690F83D001F4616460D4620284CD148
:10201000C5B1BEB194F83C00012846D0012084F837
:102020003C004FF00008C4F84080212084F83D00B7
:10203000FEF73EFEA6848146E684A068B0F5805F88
:1020400003D004E00120BDE8F883206928B12E46C2
:102050005FF0000584F83C800EE00026FAE780215E
:10206000204600F0B7FEA0B9AEB116F8010B21680A
:102070004860E08C401EE084E08C4B464FF000024C
:1020800000970028EBD14FF04001204600F0A2FE5F
:1020900030B10320D7E735F8020BC0F30800E6E7BC
:1020A000202084F83D000020CDE70220CBE77047D8
:1020B000FEE7000003480069C00501D40120704715
:1020C000002070470020024010B5FFF7F3FF20B159
:1020D00000F006F808B1012010BD002010BD00007E
:1020E00003480068800401D4012070470020704735
:1020F0001008024003480069000501D40120704720
:10210000002070470020024003480068400701D4C7
:102110000120704700207047101C024003480068EF
:10212000000701D40120704700207047101C0240B6
:1021300003480068000501D4012070470020704763
:102140001014024003480068000601D401207047C3
:10215000002070471018024003480068000401D4B2
:102160000120704700207047101C024010B5FFF797
:10217000A1FF20B1FFF7B4FF08B1012010BD00207E
:1021800010BD00000D4808B5016841F480010160F0
:102190000068002200F48000009001213A20FEF740
:1021A00013FE3A20FEF702FE002202214620FEF72F
:1021B0000BFEBDE808404620FEF7F8BD303802406F
:1021C00030B5A3B002F0E2FA264C0028206047D0D8
:1021D00025A000BF00F060FE284D0022D5E90001D7
:1021E000CDE92001012120A801F094F90835A06172
:1021F00095E80F001CAD85E80F0000211CA801F038
:102200004BF91E4960611C2218316846FEF76BF8D5
:102210000021684601F053F9184960601C223431EE
:1022200007A8FEF760F8002107A801F048F9134954
:10223000A0601C2250310EA8FEF755F800210EA810
:1022400001F03DF90D49E0601C226C3115A8FEF744
:102250004AF8002115A801F032F9206123B030BD01
:1022600007A0B7E704000020CAC2BCFEB1EAD6BE90
:10227000D7E9B4B4BDA8B3C9B9A60A00BC520008D6
:10228000CAC2BCFEB1EAD6BED7E9B4B4BDA8CAA7DB
:10229000B0DC0A0070B586B014216846FEF73CF841
:1022A00028480024016841F480710160016801F44C
:1022B00080710591016841F004010160016801F03D
:1022C00004010591016841F020010160016801F0FD
:1022D00020010591016841F080010160016801F071
:1022E00080010591016841F0010101600068164E0E
:1022F00000F001000590012280213046FEF7D2FC5B
:102300004FF4106001258DE8310069460F48FEF753
:10231000D1FB68038DE8310069460D48FEF7CAFB22
:1023200080200090CDE90154694630460394FEF7C1
:10233000C1FB0C208DE8310069460648FEF7BAFB68
:1023400006B070BD30380240001402400020024048
:1023500000080240001C024010B586B014216846F7
:10236000FDF7DAFF1B48002419490594C0E9001461
:102370007F218160FF21C0E9031444618461FFF77C
:1023800003F908B1FEF7A9F98DF800408DF8014076
:102390008DF802400394012269460E480494FFF729
:1023A000C9F908B1FEF799F901208DF814008DF8EC
:1023B00015008DF8160002468DF8174005A905484E
:1023C000FFF754F9002801D0FEF787F906B010BDD9
:1023D00000280040840700201CB500240E4800940B
:1023E0000C49019401604721C0E901146321846113
:1023F000C160FFF77BFA08B1FEF76FF900946946F8
:1024000005480194FFF72AFA002801D0FEF765F984
:102410001CBD000000100040A407002010B5114CA6
:102420000F480C2120604FF4E13060600020A06074
:10243000E060C4E90401A061E0612046FFF720FDEF
:1024400008B1FEF74AF92068C16841F01001C16087
:1024500004492822BDE8104028390248FFF7B6BDDC
:102460000010014014080020FEE7FEE730B589B0F7
:1024700004462CA1FDF75BFF05462BA12046FDF786
:1024800056FF0446E5B1681C27A1FDF781FF27A18F
:10249000FDF77EFFFDF79EFFA0F5FA608DF82300A3
:1024A00022A10020FDF774FFFDF794FF8DF82100B5
:1024B0001EA10020FDF76CFFFDF78CFF8DF82200B8
:1024C000BCB1601C17A1FDF763FFFDF783FF8DF81A
:1024D0000C0014A10020FDF75BFFFDF77BFF8DF8DA
:1024E0000D0010A10020FDF753FFFDF773FF8DF8DD
:1024F0000E009DF80C009DF80E209DF80D108DE843
:1025000007009DF823109DF822309DF8212008A097
:1025100001F5FA6100F0C0FC03A800F04DF809B025
:1025200030BD00003A0000002C0000002D0000002B
:102530007365742054696D653A2025642D25642DDA
:1025400025642C25643A25643A25640A00000000BD
:102550007047010901EB810100F00F0000EB410021
:10256000C0B27047002102E00A38C0B2491C0A28F4
:10257000FAD2090740EA11607047000070B50446BE
:102580000068C168490614D44FF0FF31C160FEF7FE
:102590008FFB05464FF47A7607E000BFFEF788FB15
:1025A000401BB04201D9032070BD2068C0684006BE
:1025B000F4D5002070BD000010B50446014600228D
:1025C0000948FFF7B7F808B1FEF787F8002204F1D1
:1025D00014010548FFF74AF8002803D0BDE8104071
:1025E000FEF77BB810BD0000840700200F4E104C92
:1025F000104F00253078012813D100230A220C49FE
:10260000786902F029FA0C4801F0FEFD21780A48A9
:10261000FDF782FE25703570282207490748FFF72D
:10262000D5FC142000F02CFFE4E70000210000207E
:102630002000002004000020EC07002014080020E7
:1026400090B04FF47A7409A8FEF74AF8182209A945
:1026500003A8FDF748FE9DF80C009DF80E209DF89C
:102660000D108DE807009DF823109DF822309DF88D
:10267000212004A001F5FA6100F00EFC204600F0D4
:10268000FFFEE0E763757272656E742054696D65D4
:102690003A2025642D25642D25642C25643A256473
:1026A0003A25640000F062FE0A2000F0E9FEF9E736
:1026B000A6B0294C00F0F4FD002848D0072827D008
:1026C00004DC012807D0042841D11AE00A2828D0C8
:1026D0000D283CD132E021A000F0DEFB2CA000F060
:1026E000DBFB684601F066FE694635A000F0D4FBCE
:1026F00035A000F0D1FB684601F002FE694630A02B
:102700000CE00121206802F04FF8014638A005E0F6
:102710000221206802F048F8014639A000F0BCFB15
:1027200015E0606830B13AA000F0B6FB606801F0D7
:102730008DFF0CE03EA000F0AFFB08E060680028D1
:10274000F8D040A000F0A8FB606801F0FBFE142068
:1027500000F096FEAEE70000040000203D3D3D3D48
:102760003D3D3D3D3D3D3D3D3D3D3D3D3D3D3D3D99
:102770003D3D3D3D3D3D3D3D3D3D3D3D3D3D3D3D89
:102780003D3D3D3D3D3D3D3D3D3D3D3D3D0D0A0019
:10279000C8CECEF1C3FB20202020202020C8CECEE2
:1027A000F1D7B4CCAC20D3C5CFC8BCB62020CAA3C7
:1027B000D3E0D5BB20C8CECEF1D0F2BAC50D0A0009
:1027C00025730D0A00000000C8CECEF1C3FB202007
:1027D0002020202020D4CBD0D0BCC6CAFD20202071
:1027E000202020202020CAB9D3C3C2CA0D0A00006D
:1027F0004B32BCFCB0B4CFC225640D0A000000000F
:102800004B33BCFCB0B4CFC225640D0A00000000FD
:10281000555020B0B4CFC2A3ACB9D2C6F0C8CECE0A
:10282000F120765461736B4C45440D0A00000000A2
:10283000CEDEC8CECEF120765461736B4C45440D8C
:102840000A000000444F574E20B0B4CFC2A3ACBB27
:10285000D6B8B4C8CECEF120765461736B4C4544E3
:102860000D0A000010B5502080F31188BFF34F8F80
:10287000BFF36F8F02F042FB18B104494FF0805054
:102880000860002080F3118810BD000004ED00E016
:1028900030B593B030216846FDF73EFD14210CA8F9
:1028A000FDF73AFD1E480024016841F080510160A7
:1028B000006800F0805011901A48016841F480418E
:1028C00001600068022500F480401190062000900D
:1028D0000120029003901020049006950820CDE975
:1028E0000740A820CDE9090504200B906846FEF7B3
:1028F00047FC08B172B6FEE70F20CDE90C054FF496
:10290000A050CDE90E404FF48050109005210CA846
:10291000FEF72AFB002801D072B6FEE713B030BDE7
:1029200040380240007000400248016841F47001E4
:102930000160704788ED00E00148FFF764B80000CF
:10294000180900200148FFF75EB80000A407002026
:10295000F0B50268254C264D264E274F274B4FF0E9
:10296000804CA04209D0604507D0A84205D0B042B3
:1029700003D0B84201D0984204D122F0700E4A68C8
:1029800042EA0E02A0421BD0604519D0A84217D0DF
:10299000B04215D0B84213D0984211D0184DA84279
:1029A0000ED0184DA8420BD0174DA84208D0174D95
:1029B000A84205D0164DA84202D0164DA84203D118
:1029C00022F44075CA682A434D6922F080022A43E6
:1029D00002608A68C2620A688262A04201D098429C
:1029E00001D10969016301214161F0BD000001408D
:1029F0000004004000080040000C004000040140BA
:102A000000400140004401400048014000180040DF
:102A1000001C00400020004010B5806B0021C185E3
:102A2000C184FFF7F7F810BD70B5846B206840696A
:102A300094F83D10C0F3C0100025212904D118B12D
:102A4000E584204600F08AF82068406994F83E103A
:102A5000C0F38010222904D118B1E585204600F08A
:102A600056F8206C40F0100020642046FFF7D2F8A2
:102A700070BD10B50146806B09680968C9052FD47F
:102A80000021C18501680C3151E8002F22F48072C9
:102A900041E80023002BF5D10168143151E8002FE3
:102AA00022F0010241E80023002BF5D10168143126
:102AB00051E8002F22F0400241E80023002BF5D11D
:102AC000202180F83E10016B012909D101680C31E9
:102AD00051E8002F22F0100241E80023002BF5D12D
:102AE000016B012902D0FFF786FA10BD818DFFF737
:102AF00058F810BD10B5806B016B012902D0FFF7AB
:102B00007BFA10BD818D4908FFF74BF810BD0168B5
:102B10000C3151E8002F22F4907241E80023002B81
:102B2000F5D10168143151E8002F22F0010241E88B
:102B30000023002BF5D1016B012909D101680C316B
:102B400051E8002F22F0100241E80023002BF5D1BC
:102B5000202180F83E1000210163704701680C318C
:102B600051E8002F22F0C00241E80023002BF5D1EC
:102B7000202180F83D10704708B590F83E102229BA
:102B800001D0022008BD82684FF480539A4201D1DF
:102B9000016921B1816A9A421BD04AB10AE00268F8
:102BA000816A5268C2F308020A80816A891C08E0BF
:102BB000026972B10268526802F07F020A70816A8B
:102BC000491C8162C18D491E0904090CC18503D0CD
:102BD00019E002685268F1E70168CA6822F0200231
:102BE000CA600168CA6822F48072CA6001684A69D2
:102BF00022F001024A61202180F83E10016B012978
:102C000003D0FFF7F8F9002008BD00210163016837
:102C10000C3151E8002F22F0100241E80023002B74
:102C2000F5D101680A68D20602D50A6849680091A0
:102C3000818DFEF7B6FFE6E770B5044600680169CE
:102C4000E26821F44051114301612169A068E26901
:102C500008436169114308432168CA6849F20C635B
:102C60009A430243CA6020684169A26921F4407115
:102C70001143416131492068884202D0304988427D
:102C800002D1FEF73BFA01E0FEF728FAE2690023E1
:102C9000192164253226B2F5004F626828D0A0FBC6
:102CA0000101930F9200FDF7EDFA0146B0FBF5F03C
:102CB0006FF01802504301EB800006EB0010B0FBF0
:102CC000F5F000F0F002B1FBF5F002EB0012B1FB01
:102CD000F5F06FF01803584301EB800006EB00108D
:102CE000B0FBF5F000F00F0021681044886070BD63
:102CF000A0FB010192185B41FDF7C4FA0146B0FB4D
:102D0000F5F00201B1FBF5F06FF01803584301EB49
:102D1000800006EBC000B0FBF5F000F0F80002EB1D
:102D20004002B1FBF5F0584301EB800006EBC00018
:102D3000B0FBF5F000F00700D6E7000000100140FE
:102D40000014014038B5816282850025134604468F
:102D50000564222084F83E00A26B1B48D063A26B5E
:102D60001A481064A26B1A48D064A06B0A46056525
:102D70002168A06B091DFDF765FE206801684068A9
:102D8000009084F83C5020680C3050E8001F41F45B
:102D9000807140E80012002AF5D12068143050E814
:102DA000001F41F0010140E80012002AF5D120681F
:102DB000143050E8001F41F0400140E80012002AA2
:102DC000F5D1002038BD0000732A0008F52A00085C
:102DD000292A00082DE9F041984617460E46044678
:102DE000069D27E0681C25D02DB1FDF761FFA0EB03
:102DF0000800A8421ED920680C3050E8001F21F4BA
:102E0000D07140E80012002AF5D12068143050E853
:102E1000001F21F0010140E80012002AF5D1202016
:102E200084F83D0084F83E00002084F83C00032034
:102E3000BDE8F0812068006836EA000004D0002078
:102E4000B842CFD00020F3E70120F9E70D4808B5DC
:102E500000680168C943C9060FD401684068009042
:102E60000848FEF79FFE0848006840680749C0F11F
:102E700028000870064901200870BDE80840014894
:102E8000FEF7CABE140800205808002020000020C9
:102E900021000020FEE700000FB4054B10B503A988
:102EA000044A029800F040F810BC5DF814FB0000E2
:102EB0001D340008BC0000200FB4084B10B504A955
:102EC00002AA039800F030F8044602A9002000F09E
:102ED0008BF9204610BC5DF814FB0000E9310008B6
:102EE0000907090E002804DB00F1E02080F8001437
:102EF000704700F00F0000F1E02080F8141D7047CB
:102F000000487047C000002002E008C8121F08C136
:102F1000002AFAD170477047002001E001C1121F5A
:102F2000002AFBD1704700002DE9FF4F8DB09B4672
:102F30000F460446002606E025280BD05A460F9976
:102F40009047641C761C20780028F5D111B03046DB
:102F5000BDE8F08F0025A8460122984900E005430E
:102F600014F8013F203B02FA03F00842F7D1207821
:102F70002E2817D114F8010F45F004052A280ED089
:102F80006FF02F022078A0F1300109290AD808EB50
:102F9000880102EB410100EB0108641CF2E757F8DD
:102FA000048B641C20786C280DD004DC4C2812D0D3
:102FB0006A2811D104E074280DD07A280CD10AE0D7
:102FC00045F4001507E0617845F48015814202D18F
:102FD000641C05F58015641C2078692844D008DC41
:102FE0000028B3D0582867D063280FD0642808D1B0
:102FF0003AE0702865D0732812D075285AD0782806
:103000005AD05A460F999047761CD5E017F8040B12
:103010008DF8000000208DF80100E946012003E052
:1030200057F8049B4FF0FF3069074FF0000501D4BB
:103030000AE06D1C45450DDA8542FADB19F80510EA
:103040000029F6D106E06D1C8542FCDB19F805105D
:103050000029F8D12E4404E019F8010B5A460F99C3
:1030600090476D1EF8D2A7E00A200021CDE90801A3
:10307000C5F3025002280CD001CFC117021E71F116
:1030800000020CDA0023D0EB030063EB01012D22D8
:1030900008E0FF1D27F00707F7E80201EEE72A0521
:1030A00004D52B228DF8282001223CE0EA073AD0F3
:1030B0002022F7E70A2000E010200021CDE90801D6
:1030C00007E01020002145F00405CDE908014FF08C
:1030D0000808C5F30250022810D001CF00214FF09C
:1030E000000A2A0720D52278702A0DD0DDE908C30E
:1030F0008CF0100C5CEA030C0CD015E0FF1D27F0DF
:103100000707F7E80201EAE740228DF828204FF090
:10311000010A0CE050EA010306D030238DF8283074
:103120008DF82920022292462278582A04D024A21F
:103130000DF120090B9209E026A2F9E7DDE9082349
:10314000FDF7A0F80B9B9B5C09F8013D50EA0102DA
:10315000F4D1ADEB090020300890680701D44FF09E
:1031600001080899884503DD0898A8EB000000E0F5
:1031700000208046002506E00AA85A46405D0F99C7
:1031800090476D1C761C5545F6DB04E030205A460E
:103190000F999047761CB8F10001A8F10108F5DC01
:1031A00005E019F8010B5A460F999047761C0899CB
:1031B000481E08900029F4DC641CC4E609280100BC
:1031C000303132333435363738396162636465669D
:1031D000000000003031323334353637383941425F
:1031E00043444546000000000A68531C0B60107001
:1031F0007047000070B50646284800EB06142068AA
:103200008047052100250028207906EB460331D0B0
:10321000052801D2217170BD0A2802D2401C2071FC
:1032200070BDA07A06EB4606761C20B90120A0727C
:10323000F0B200F0A5F821890029F1D0E088884299
:1032400008D2401C80B2E08021898842E8D1DB1C92
:10325000D8B20BE0E07A0028E2D0207B401CC0B25C
:103260002073E17A8842DBD32573F0B2BDE8704069
:1032700000F086B8052801D921710BE010B1401E7D
:10328000207107E0A07A012804D19B1CA572D8B256
:1032900000F076F8E580257370BD000080470020BF
:1032A00007498A7AC87A824201D100207047885C37
:1032B000521CD2B28A720A2AF8D300228A7270474C
:1032C0002048002030B51E48002164238172C1725D
:1032D0000173A0380A46022500EB0214521C238118
:1032E0002571A172E172D2B221730A2AF4D3038745
:1032F000052180F83B10A0F8483080F84B10A0F86A
:10330000583080F85B10A0F8683080F86B100D49D9
:1033100040F82C1B0C4940F81C1C0C4940F80C1CB4
:103320000B4941600B4941610B4941620B494163C3
:103330000B4941640B4941650B49416630BD0000B2
:1033400020480020B5200008E1200008F5200008F2
:10335000092100081D21000831210008452100082D
:10336000592100086D210008C920000810B500246B
:103370002046FFF73FFF641CE4B20A2CF8D310BDCF
:103380000549CA7A8854C87A401CC0B2C8720A2853
:1033900001D30020C8727047204800200149002056
:1033A00008607047000000202DE9F041040006D0BD
:1033B000184E306884420AD10020BDE8F0815020C8
:1033C00080F31188BFF34F8FBFF36F8FFEE700F0DC
:1033D00043FE6569F76B366C00F05EFEBD4201D0BE
:1033E000B54201D10220E8E70B48854208D1A06A26
:1033F0000028F7D194F85C000128F3D00320DCE723
:1034000005481438854202D00DB10120D5E70420CB
:10341000D3E70000340000207C0A002013B5052308
:10342000012269460248FEF7E9FD00981CBD000034
:1034300014080020014800687047000000000020C8
:10344000FDF744FCFFF724FAFEF724FFFEF79AFE8F
:10345000FEF7E4FFFEF7C0FFFEF77EFF0448FEF72D
:1034600091FAFFF72FFFFEF7ABFE00F010F8FEE732
:10347000A407002001460020842900D0C81C704702
:1034800010B500B9012000F0D3FE002010BD10B52A
:1034900001F096F8002010BD38B5D0E9011204689B
:1034A0003AB1C3682BB100200090204601F05DFACC
:1034B00038BD2046BDE83840002201F035BA7FB55E
:1034C0000D4604464169B0F9080081B1A16971B1A6
:1034D000FFF7D0FFD4E905128DE80700D4E900100A
:1034E0002B46226901F0CBFC039004B070BDFFF7BE
:1034F000C1FF03A9CDE90001208A2B4682B2D4E99D
:10350000001001F08FFC012801D00020EDE70398A6
:10351000EBE700001CB511C86CB1CDE9000401292E
:1035200007D0002013460246012109A001F04EFEFB
:103530001CBD0120F6E70090012907D000201346AA
:103540000246012102A001F027FE1CBD0120F6E782
:10355000000000002DE9F041184C0F460546E668D2
:103560002068001D00F0C6FC38B9206890F82C10C7
:1035700001208840216981432161681C07D137B14E
:103580002168BDE8F0410E48091D00F059BD2068D2
:103590003544B5424560216805D2206CBDE8F04154
:1035A000091D00F035BDE06B091D00F031FDA06A7A
:1035B000854200D2A562BDE8F08100003400002001
:1035C0007C0A00202DE9F041054600F045FD2E4C17
:1035D000A068401CA06020682C4F10B1606940B307
:1035E0002DE02560A068012829D1002606EB860081
:1035F00007EB800000F0FEFC761C072EF6D3234874
:103600008C3000F0F7FC2148A03000F0F3FC1F489C
:10361000B43000F0EFFC1D48C83000F0EBFC1B4854
:10362000DC3000F0E7FC19488C30E0631430206493
:1036300005E02068E96AC06A884200D82560606AAF
:10364000401C60626864E96A012022698840104376
:10365000206101EB810007EB8000291D00F0F0FCE8
:1036600000F01AFD606900280CD02068E96AC06A81
:10367000884207D206494FF080500860BFF34F8F51
:10368000BFF36F8FBDE8F08134000020A009002057
:1036900004ED00E038B500F0DFFC104C2068C8B93C
:1036A0000F4800F0A7FC0E48143000F0A3FC0C48B3
:1036B000E060143020610A4B0020C83B009003F109
:1036C00050020C210A2001F050F9206010B105A130
:1036D00000F064FDBDE8384000F0DEBC780000205A
:1036E000580B0020546D72510000000030B4026C81
:1036F0000B46002A0BD0C1681144C1608468A14206
:1037000001D30168C16030BC1846FCF7ECBD30BC89
:1037100070472DE9F041856B174604460026026C80
:1037200082B1C7B1E068FCF7DEFDE168206C091AE0
:10373000E1602268914202D2A168081AE060022F7B
:1037400016D017E02068A8B9A06801F03DFC064635
:103750000020A0600EE06068FCF7C5FD216C606889
:1037600008446060A168884204D32068606001E07A
:1037700005B16D1E6D1CA5633046BDE8F08110B526
:10378000044690F85D0058B101280CD002280FD0F3
:10379000502080F31188BFF34F8FBFF36F8FFEE788
:1037A000206B00F08DFC2046BDE8104000F088BC86
:1037B00010BD000010484FF47051420706D0C01DE4
:1037C0000D4920F00700411AC1F570510B4A002342
:1037D0000144C2E900030839183A21F007011160D9
:1037E0004B600B600B1AC0E9001393604FF0004070
:1037F0005360506170470000800B0020A40000203F
:10380000144E154CA6F1C8074FF08058DFF84C90C5
:1038100012E000BF00F020FCF068C568281D00F031
:1038200069FBA068401EA0606068401E606000F0F8
:1038300033FC2846FFF7A3FF60680028EAD1386808
:103840000128F9D9C9F80080BFF34F8FBFF36F8FFC
:10385000F2E70000680A00203400002004ED00E0D8
:1038600070B51D46049C51B1C4F80020C4E90F0195
:103870000121204601F0ACF884F84C5070BD246062
:10388000F4E700002DE9F05F8846DDE90B9415466A
:10389000834691009A460A9EA522206BFCF735FDCF
:1038A0006FF00301206B01EB8501084420F007074E
:1038B000780707D0502080F31188BFF34F8FBFF3F4
:1038C0006F8FFEE70025B8F1000F0FD05FF000000A
:1038D000221818F8001082F8341018F8001011B1EE
:1038E000401C1028F4D384F8435001E084F834508D
:1038F000072E00D30626E662C4E91365201D00F0FA
:1039000084FB04F1180000F080FB2461C6F107007D
:103910006462A0616565A56584F85C5052465946AD
:10392000384600F0D1FA2060B9F1000F01D0C9F893
:103930000040BDE8F09F2DE9F0471E46DDE9089400
:1039400017460D00804615D0002C11D0FFF7A2FEBF
:1039500004F11801C4F8008081E86002201D00F025
:1039600054FB002F04D014F8280F40F004002070FE
:10397000BDE8F087502080F31188BFF34F8FBFF36D
:103980006F8FFEE730B5114900E011460A688242A8
:10399000FBD34B685C18844203D1406818444860EC
:1039A000084643681C18944209D1084C183C246806
:1039B000A24209D052681A4442600A681268026042
:1039C000814200D0086030BD0460F9E7A400002007
:1039D00070B5002441600B4D0061914206D8D11AA8
:1039E0008269914206D2011D286907E09A4203D2FA
:1039F000994201D3012403E0011DE86800F008FBAF
:103A0000204670BD7800002010B5044600F024FB6D
:103A1000A06B28B15FF0000400F03EFB204610BD13
:103A20000124F9E72DE9F0478146086892460C46E3
:103A3000002600B3606804F1080540686060A84291
:103A400001D1416861606068D0F80C8060684068AE
:103A50006060A84201D141686160606806EBC60100
:103A600009EB8101C76853460122384600F006FC85
:103A7000761C4745EAD13046BDE8F08730B587B0BF
:103A8000394D67E00498002864DB069C606910B13A
:103A9000201D00F02FFA03A800F0D8F80246049881
:103AA0000A2857D2DFE800F00505052D334A050541
:103AB0002D3394F8280040F0010084F8280005997F
:103AC000A069059B01442046FFF782FF68B3216A85
:103AD0002046884794F8280040073BD500200090F6
:103AE0000598A169002342181946204601F0B6FB4B
:103AF000D8B9502080F31188BFF34F8FBFF36F8F79
:103B0000FEE714F8280F20F00100207022E094F85E
:103B1000280040F0010084F828000598A06128B131
:103B2000811813462046FFF753FF13E0502080F31F
:103B30001188BFF34F8FBFF36F8FFEE794F8280013
:103B4000810703D4204600F0BBFA03E020F0010017
:103B500084F82800002204A9286801F08DF80028C4
:103B600090D107B030BD0000780000202DE9FC4165
:103B70000F46054600F0C8FD01A800F067F80446AE
:103B8000019818B101F0A6FABDE8FC81254EAFB14D
:103B900030690068D0B30027291B3A46306800F02E
:103BA00011FB01F097FA0028EED11F494FF0805029
:103BB0000860BFF34F8FBFF36F8FE5E7A542EBD8E7
:103BC00001F088FAF0682746C068C468201D00F03C
:103BD00091F994F82800410719D5A0692B4641199D
:103BE0003A462046FFF7F4FEA8B1002003460146FE
:103BF00000902A46204601F031FB60B9502080F346
:103C00001188BFF34F8FBFF36F8FFEE707E020F0FF
:103C1000010084F82800216A20468847B4E701277C
:103C2000BAE700007800002004ED00E00648C16B10
:103C3000096829B1C16BC968C96849688162704760
:103C40004FF0FF31FAE700003400002070B5054660
:103C500001F04EF9064E0446B068844203D200F0EB
:103C600009F8012000E0002028602046B46070BD03
:103C700078000020F8B5194D20E0C068C4680668D7
:103C8000201D00F037F9216A2046884794F8280063
:103C9000400713D5A0693044B04206D92461606062
:103CA000211DE86800F0B4F908E000200346014651
:103CB00000903246204601F0D1FA38B1E868016838
:103CC0000029DAD12969C5E90310F8BD502080F335
:103CD0001188BFF34F8FBFF36F8FFEE7780000208E
:103CE00008484068401C4FF0500080F3118804D011
:103CF000BFF34F8FBFF36F8FFEE7BFF34F8FBFF35D
:103D00006F8FFEE7AC000020002150B10A4B4269E2
:103D10009A420FD1806AA3F1280290420AD040B1A2
:103D200008E0502080F31188BFF34F8FBFF36F8FEF
:103D3000FEE70121084670477C0A0020074CE06836
:103D4000016841B1C0680021D0F80000FFF70EFF04
:103D5000FFF794FEF3E701210020F7E77800002049
:103D60002DE9F041044600F077F994F9455004F14B
:103D7000240609E0606A48B1304601F071F908B1E3
:103D800000F06EFB6D1E6DB2002DF3DC4FF0FF36C0
:103D900084F8456000F080F900F05EF994F9445031
:103DA00004F1100709E0206948B1384601F058F9DC
:103DB00008B100F055FB6D1E6DB2002DF3DC84F8E8
:103DC0004460BDE8F04100F067B910B50446FCF767
:103DD000C7FA2046FCF7BDFA202101E02154401C1F
:103DE0000F28FBD300212154204410BD2DE9F041C0
:103DF0000546002700F088FC324E306808B9FFF70E
:103E0000D9FC706905424ED1C5B3083568070ED09C
:103E100005F00700C0F108000544680707D05020EE
:103E200080F31188BFF34F8FBFF36F8FFEE72DB381
:103E30007068854237D82348183001460C6801E085
:103E400020460C466168A94202D221680029F7D1B8
:103E500031688C4227D007682168016060680837A4
:103E6000411B10290FD96019420708D0502080F358
:103E70001188BFF34F8FBFF36F8FFEE713E04160F0
:103E80006560FFF77FFD61687068401A7060B26816
:103E9000904200D2B060706901430020C4E9000183
:103EA000F068401CF06001F015F9780707D0502049
:103EB00080F31188BFF34F8FBFF36F8FFEE7384653
:103EC000BDE8F0818C00002010B5031F4FF0807416
:103ED0001C601B1F21F001011960191F044B0B60AE
:103EE00014390A60091F6FF0020244380A6010BDDD
:103EF000E13C0008D0E9013201699A60D0E9012370
:103F00005A604A68824201D182684A600022026196
:103F10000868401E08600868704700002DE9F047F7
:103F200017460A4605460024072600F0EDFBDFF899
:103F30009080D8F8080082423CD3DFF88890761E43
:103F400006EB860104EBC40009EB810105EB800060
:103F50000122FFF767FD0444002EF0D104EBC400FA
:103F600005EB800002224646D8F83C10FFF75AFDC8
:103F7000044404EBC40005EB80000222316CFFF71F
:103F800051FD04440F4904EBC40005EB80000422FA
:103F9000C831FFF747FD04440A4904EBC40005EBB0
:103FA00080000322DC31FFF73DFD044417B1FFF729
:103FB00041FA386001F08EF82046BDE8F087000035
:103FC00034000020A0090020034B036003F16000CF
:103FD0000860802010607047C4000020044B03601C
:103FE00003F1600008604FF48070106070470000BB
:103FF0002403002000F108014FF0FF32C0E9011254
:10400000C1600161002101607047002101617047BA
:1040100030B50B685A1C02D000F1080202E00269B8
:1040200004E02246546825689D42FAD953684B60E3
:1040300099608A60516008610168491C016030BD67
:1040400042684A6093688B60936859609160086128
:104050000168491C01607047502080F31188BFF34C
:104060004F8FBFF36F8F0A494868401C4860012892
:104070000CD10848006810F0FF0F07D0502080F3E3
:104080001188BFF34F8FBFF36F8FFEE770470000BB
:10409000AC00002004ED00E00849486828B1401E4B
:1040A000486001D180F311887047502080F3118857
:1040B000BFF34F8FBFF36F8FFEE70000AC0000200F
:1040C00070B500282AD0164DA0F10804606869690F
:1040D000084207D1502080F31188BFF34F8FBFF300
:1040E0006F8FFEE722683AB1502080F31188BFF34A
:1040F0004F8FBFF36F8FFEE78843606000F004FBD3
:1041000060686968084468602046FFF73BFC2869DE
:10411000401C2861BDE8704000F0DCBF70BD0000AD
:104120008C0000204FF0E0200021016181610549F1
:104130004FF47A720968B1FBF2F1491E416107211F
:10414000016170473000002010B5FCF785F8114977
:1041500010280ED300F1E02090F8F0030A78904286
:1041600007D2502080F31188BFF34F8FBFF36F8FBA
:10417000FEE709480068896800F4E060884207D9D2
:10418000502080F31188BFF34F8FBFF36F8FFEE78E
:1041900010BD0000AC0000200CED00E010B5084B95
:1041A000002200BF53F832401CB1521C082AF9D338
:1041B00010BD43F8321003EBC201486010BD00008F
:1041C0006009002070B515460E460446FFF744FF0F
:1041D00094F944100020491C01D184F8440094F95A
:1041E0004510491C01D184F84500FFF755FFA06B2D
:1041F00028B92A46314604F1240000F04FF9204640
:10420000BDE87040FFF7ACBD10B50446082205A11B
:10421000FCF7AFF8002804D12046BDE81040FEF7B7
:1042200025B910BD7265616C74696D650000000090
:1042300010B5020014D00F48006B38B1502080F345
:104240001188BFF34F8FBFF36F8FFEE700F05CFA6A
:1042500000211046FFF77EF900F03CFF002807D14F
:1042600005494FF080500860BFF34F8FBFF36F8F49
:1042700010BD00003400002004ED00E02DE9F04105
:104280000C461E491646B8B14FEA000505F1340048
:10429000C4E90050E86A2061286BE061686CA060A6
:1042A000E86C6061686D0027A061052B12D008687A
:1042B000854203D1277311E00D68E7E72373032BD1
:1042C0000CD100F021FAA86A08B10220207300F096
:1042D00001FF03E02846FFF767F820735EB1002175
:1042E000286B01E0401C491C0278A52AFAD08808F6
:1042F0002084BDE8F0812784FBE700003400002023
:104300002DE9F8430021804601701F4884688068C9
:1043100000EBC0008000FFF769FD060031D06A465F
:104320002146FFF7FBFD074600986421B0FBF1F042
:10433000009018B300241FE004EBC40006EB8005D6
:104340000099A869B0FBF1F940466968FFF73DFDA7
:104350008046AA69B9F1000005D003460BA140468A
:10436000FEF7AAFD03E00CA14046FEF7A5FD40467E
:10437000FBF7EFFF8044641CBC42DDD33046FFF7FF
:104380009FFEBDE8F8830000340000200925750970
:1043900009257525250D0A0009257509093C3125D2
:1043A000250D0A0002490A6A0260C9684160704727
:1043B000340000202DE9FC4700218146017023488C
:1043C0008468806800EBC0008000FFF70FFD0600E6
:1043D00039D000222146FFF7A1FD0746002423E043
:1043E00004EBC40006EB8005287B052829D2DFE812
:1043F00000F0030522242600582000E052208046C9
:1044000048466968FFF7E1FC8146A968288CCDE938
:10441000000142460EA148462B69FEF74DFD484675
:10442000FBF797FF8144641CBC42D9D33046BDE8FA
:10443000FC47FFF745BE4220E1E75320DFE7442079
:10444000DDE70020DBE7BDE8FC870000340000204A
:104450000925630925750925750925750D0A0000CB
:1044600001490120C86170473400002010B50C4696
:1044700050B1094909681831FFF7CAFD2046BDE867
:1044800010400121FFF766B8502080F31188BFF378
:104490004F8FBFF36F8FFEE73400002070B51446D6
:1044A0000D4668B10A4909681831FFF7C9FD0CB11A
:1044B0004FF0FF3521462846BDE87040FFF74AB867
:1044C000502080F31188BFF34F8FBFF36F8FFEE74B
:1044D0003400002070B5194E326BFAB141F0004142
:1044E0000160C46814B3FFF705FD201DFFF702FD4E
:1044F000E16A0125326905FA01F01043306101EBF0
:1045000081000F4901EB8000211DFFF799FDE06A52
:104510003168C96A884200D9F56170BD502080F3C6
:104520001188BFF34F8FBFF36F8FFEE7502080F3EA
:104530001188BFF34F8FBFF36F8FFEE73400002069
:10454000A009002070B504002BD01A4D28688442C1
:104550002FD0FFF781FD2046FFF7D6FBE8B1201DE5
:10456000FFF7C8FCE06A01212A69814011432961F3
:10457000114900EB800001EB8000211DFFF760FD79
:10458000E06A2968C96A884207D30C494FF0805015
:104590000860BFF34F8FBFF36F8FBDE87040FFF728
:1045A0007BBD502080F31188BFF34F8FBFF36F8F17
:1045B000FEE770BD34000020A009002004ED00E0FB
:1045C00030B587B00024039405AA04A903A8049475
:1045D000FFF7FAFCDDE903010094CDE901100023A7
:1045E00016A11848059A00F04AFC174D0028E86209
:1045F00021D000F003FE012809D0401C1BD150201F
:1046000080F31188BFF34F8FBFF36F8FFEE7502009
:1046100080F31188BFF34F8FBFF36F8F4FF0FF30E0
:10462000A86201206861EC60FEF7B8FE07B0BDE843
:10463000304000F0FFB807B030BD000049444C45A1
:1046400000000000013800083400002070B5044666
:10465000FFF702FD294D04B92C68201DFFF74AFC25
:1046600058B9E06A264A00EB800152F8211021B9BE
:1046700001218140286988432861A06A18B104F1AA
:104680001800FFF737FC1E48211DDC30FFF7D8FC6F
:1046900094F85C000026012801D184F85C60FFF7E3
:1046A000FBFC686928B1FFF7D7FCFFF7BFFAFFF7FB
:1046B000F3FC2868844213D1686990B1286B38B143
:1046C000502080F31188BFF34F8FBFF36F8FFEE749
:1046D0000C494FF080500860BFF34F8FBFF36F8FCE
:1046E00070BD0748DC300068A968884201D12E609F
:1046F00070BDBDE8704000F00FB80000340000202D
:10470000A009002004ED00E00248016B491C016390
:10471000704700003400002010B51A4C206B10B117
:104720000120E06110BD0020E061FEF783FEA06380
:10473000626B904204D92168821A4B6D1A444A6513
:10474000606320691049B0FA80F0C0F11F0000EBEF
:10475000800051F820206AB101EB800000F10802CE
:10476000416849684160914201D149684160C86827
:10477000206010BD502080F31188BFF34F8FBFF32E
:104780006F8FFEE734000020A009002070B52020C4
:10479000FFF72CFB040005D00025201D2560FFF746
:1047A00029FC2577204670BD2DE9F0410027884679
:1047B00004000AD05FEA18600FD0502080F31188FF
:1047C000BFF34F8FBFF36F8FFEE7502080F3118848
:1047D000BFF34F8FBFF36F8FFEE7261D04F10C056B
:1047E000FFF792FF2168F06841EA0801216017E0B5
:1047F000D0E9001601F07F425301236821F07F4188
:1048000002D40B4203D10AE031EA030307D1D201FB
:1048100000D50F43216841F00071FFF75BFE304681
:10482000A842E5D12068B843206000F053FC20681E
:10483000BDE8F0811CB537480168374A914207D17D
:10484000502080F31188BFF34F8FBFF36F8FFEE7C7
:1048500000683149491E884207D1502080F31188F1
:10486000BFF34F8FBFF36F8FFEE72C49087801909D
:10487000FF20087008788DF800009DF800009DF872
:10488000002000F0F000904207D0502080F3118803
:10489000BFF34F8FBFF36F8FFEE79DF80000204CF2
:1048A00000F0500020700720A06005E09DF8002077
:1048B00052008DF80020401E9DF800201206F5D40D
:1048C000A060032807D0502080F31188BFF34F8FDA
:1048D000BFF36F8FFEE74FF44070A060019808703F
:1048E0000C482030016841F470010160016841F01A
:1048F00070410160FFF716FC00206060FBF774FC5C
:104900000848016841F040410160FBF759FC002074
:104910001CBD000000ED00E071C20F4100E400E0AA
:10492000AC00002034EF00E0F8B517460E46050055
:1049300013D005FB06F05030FFF758FA04000AD0F8
:10494000002084F8460004F150023B4631462846D8
:104950000094FEF785FF2046F8BD502080F31188B3
:10496000BFF34F8FBFF36F8FFEE738B5049D18B1CB
:1049700053B1CAB181B120E0502080F31188BFF358
:104980004F8FBFF36F8FFEE7502080F31188BFF386
:104990004F8FBFF36F8FFEE7502080F31188BFF376
:1049A0004F8FBFF36F8FFEE739B1502080F311882E
:1049B000BFF34F8FBFF36F8FFEE750241C460123D8
:1049C00084F846302B460094FEF74AFF204638BD57
:1049D00070B50D46040025D0FFF73EFBD4E90F204B
:1049E000216802FB0011A1600021A16321686160C0
:1049F0000A46D4E90F01401E00FB0121E160214677
:104A00004FF0FF3001F8440F487004F110008DB1F1
:104A1000FFF7F0FA04F12400FFF7ECFAFFF73CFB94
:104A2000012070BD502080F31188BFF34F8FBFF37A
:104A30006F8FFEE721690029F0D000F011FB0028FC
:104A4000ECD004494FF080500860BFF34F8FBFF3A4
:104A50006F8FE3E704ED00E02DE9FF4782B01D46CC
:104A60008A464FF00008040003D0BAF1000F08D0C6
:104A700011E0502080F31188BFF34F8FBFF36F8F89
:104A8000FEE7206C38B1502080F31188BFF34F8FC0
:104A9000BFF36F8FFEE7022D0AD1E06B012807D02C
:104AA000502080F31188BFF34F8FBFF36F8FFEE765
:104AB00000F010FA3F4F4FF000094FF0805648B910
:104AC000049838B1502080F31188BFF34F8FBFF3A3
:104AD0006F8FFEE7FFF7C0FAA06BE16B884207D348
:104AE000022D05D00498D0B1B8F1000F1AD01EE005
:104AF0002A4651462046FEF70CFE616A19B104F1C0
:104B0000240000F0ADFA20B13E60BFF34F8FBFF339
:104B10006F8FFFF7C1FA012006B0BDE8F087FFF7FD
:104B2000BBFA22E06846FFF73DFC4FF00108FFF7B3
:104B3000B3FAFFF7E9FDFFF78FFA94F94400401C40
:104B400001D184F8449094F94500401C01D184F8C7
:104B50004590FFF7A1FA04A9684600F029F930B1A1
:104B60002046FFF7FDF800F0B5FA0020D4E7FFF784
:104B700073FAA06BE16B884213D1FFF78DFA04F151
:104B800010000499FFF772FC2046FFF7E9F800F0E7
:104B9000A1FA00289ED13E60BFF34F8FBFF36F8F05
:104BA00098E7FFF779FA2046FFF7DAF800F092FA73
:104BB00090E7000004ED00E02DE9F0471F46904625
:104BC0008946040003D0B9F1000F08D011E050204D
:104BD00080F31188BFF34F8FBFF36F8FFEE7206C18
:104BE00038B1502080F31188BFF34F8FBFF36F8F20
:104BF000FEE7022F0AD1E06B012807D0502080F396
:104C00001188BFF34F8FBFF36F8FFEE7FFF79CFA5A
:104C10005020EFF3118680F31188BFF34F8FBFF35D
:104C20006F8FA06BE16B884206D3022F04D0002067
:104C300086F31188BDE8F08794F94550A06B3A4699
:104C400049462046FEF765FD681C04D06D1C84F8BB
:104C500045500120ECE7606A0028FAD004F12400F6
:104C600000F0FEF90028F4D0B8F1000FF1D00121D6
:104C7000C8F80010EDE700002DE9F747002683B0E3
:104C80008A46040003D0BAF1000F08D011E050208A
:104C900080F31188BFF34F8FBFF36F8FFEE7206C57
:104CA00038B1502080F31188BFF34F8FBFF36F8F5F
:104CB000FEE700F00FF9DFF8F4804FF000094FF045
:104CC000805748B9059838B1502080F31188BFF358
:104CD0004F8FBFF36F8FFEE7FFF7BEF9A56BC5B12E
:104CE00051462046FEF702FD6D1EA563206950B1B6
:104CF00004F1100000F0B4F928B1C8F80070BFF357
:104D00004F8FBFF36F8FFFF7C7F9012006B0BDE8E3
:104D1000F087059808B11EB106E0FFF7BDF927E05E
:104D20006846FFF73FFB0126FFF7B6F9FFF7ECFCFB
:104D3000FFF792F994F94400401C01D184F84490A3
:104D400094F94500401C01D184F84590FFF7A4F97F
:104D500005A9684600F02CF8002820460AD0FEF786
:104D6000FFFF00F0B7F92046FEF74EFE0028B3D053
:104D70000020CBE7FEF748FE90B104F1240005992E
:104D8000FFF774FB2046FEF7EBFF00F0A3F90028C5
:104D9000A2D1C8F80070BFF34F8FBFF36F8F9BE7AE
:104DA0002046FEF7DDFF00F095F995E704ED00E001
:104DB0002DE9F0410C46050011D0C4B1FFF74CF9C4
:104DC000174BDA686E682068911B471C17D02F6854
:104DD0001B6A9F4219D0964217D8012410E0502038
:104DE00080F31188BFF34F8FBFF36F8FFEE7502022
:104DF00080F31188BFF34F8FBFF36F8FFEE700245E
:104E0000FFF74AF92046BDE8F081884205D9401AEB
:104E100020602846FFF7C6FAF1E700202060DCE7B3
:104E2000340000202DE9FF5F8346DDE90E879946B7
:104E300016468A469000FEF7D9FF05001CD0602078
:104E4000FEF7D4FF040014D00020256384F85D0031
:104E5000CDE90240CDE900874B46324651465846DF
:104E6000FEF710FD2046FEF7ADFB012004B0BDE8C3
:104E7000F09F2846FFF724F94FF0FF30F6E7F0B532
:104E800085B0DDE90B640A9DA6B1DCB1602700970F
:104E90002663022684F85D60002604AFCDE9024651
:104EA000CDE90057FEF7EEFC2046FEF78BFB049899
:104EB00005B0F0BD502080F31188BFF34F8FBFF3D2
:104EC0006F8FFEE7502080F31188BFF34F8FBFF341
:104ED0006F8FFEE70548416919B1006B18B10020DA
:104EE0007047012070470220704700003400002006
:104EF0000148C06870470000340000202DE9F041EF
:104F00002F4C0026206B28B1A069401CA0613046C0
:104F1000BDE8F081E5686D1CE56013D1E06B0068C9
:104F200038B1502080F31188BFF34F8FBFF36F8FDC
:104F3000FEE7E06B216CE1632064206A401C206284
:104F4000FEF774FEA06ADFF87C80854209D3E06B2F
:104F50000068A0B1E06BC068C7687868854211D26C
:104F6000A0622068C06A00EB800158F82100012887
:104F700000D90126E0690028C9D00126C7E74FF013
:104F8000FF30EDE7381DFEF7B5FFB86A18B107F13D
:104F90001800FEF7AFFFF96A01202269884010432C
:104FA000206101EB810108EB8100391DFFF748F812
:104FB000F86A2168C96A8842C9D30126C7E7000098
:104FC00034000020A009002070B504004FF000015B
:104FD00040D0214D2868844207D0502080F31188AA
:104FE000BFF34F8FBFF36F8FFEE7206D38B1401EC8
:104FF0002065E36CE26A9A422CD040B12AE050204E
:1050000080F31188BFF34F8FBFF36F8FFEE7201D32
:10501000FEF770FF114A012150B9E06A00EB8003EE
:1050200052F8233023B92B6901FA00F083432B6136
:10503000E06CE062C0F10700A061E06A2B6981408A
:105040001943296100EB800002EB8000211DFEF76F
:10505000F7FF0121084670BD34000020A0090020A0
:105060002DE9F041C068C468ACB104F118000746EE
:10507000FEF740FF154D286B0126A0B139461448B4
:10508000FEF7DEFFE06A2968C96A88421CD9012060
:10509000EE61BDE8F081502080F31188BFF34F8F9F
:1050A000BFF36F8FFEE7201DFEF724FFE16A2A6938
:1050B00006FA01F01043286101EB81000449B4397C
:1050C00001EB8000211DDBE70020E2E73400002037
:1050D000540A00202DE9F0472C4D00242746286B68
:1050E00038B1FEF7B9FF286B401E2863286B40B12A
:1050F00046E0502080F31188BFF34F8FBFF36F8FCE
:10510000FEE7A968224E0120D1B3A6F1B40980467A
:105110003068E8B1F068C46804F11800FEF7EAFEF0
:10512000201DFEF7E7FEE06A2A6908FA00F1114344
:10513000296100EB800109EB8100211DFEF780FF52
:10514000E06A2968C96A8842E2D3C5F81C80DFE7B3
:105150000CB1FEF76BFDAC6944B14646FFF7CEFEDD
:1051600000B1EE61641EF9D10020A861E86938B190
:105170000849012738070860BFF34F8FBFF36F8FCF
:10518000FEF78AFF3846BDE8F087000034000020B3
:10519000540A002004ED00E02DE9FC4781461E463C
:1051A000174688462C200A9DFEF720FE04000AD0F0
:1051B000002084F82800CDE9005433463A464146A1
:1051C0004846FEF7B8FB2046BDE8FC877CB52C2698
:1051D000DDE90654009644B1022684F82860CDE942
:1051E0000054FEF7A8FB20467CBD502080F31188B8
:1051F000BFF34F8FBFF36F8FFEE7000010B586B08F
:10520000FEF748FA114C2068B8B1002003900490D2
:1052100005AA04A903A8FEF7E1FEDDE903210220A7
:105220008DE8070000230AA10B48059AFFF727FE27
:10523000606010B106B0012010BD502080F31188CD
:10524000BFF34F8FBFF36F8FFEE7000078000020A1
:10525000546D7220537663003D3D0008FEB51E4636
:1052600013460200089D4FF0000014D0124C27682E
:10527000002F0FD0CDE900130292062915DAFFF7AF
:1052800029FE02284FF000030DD000226946206855
:10529000FFF7E2FBFEBD502080F31188BFF34F8F74
:1052A000BFF36F8FFEE72A46F0E7002332466946D8
:1052B0003846FFF781FCFEBD78000020512500082C
:1052C00000000000140000000100000000000000C9
:1052D00000000000EC53000841260008FFFF00001A
:1052E000000000008000000000000000000000003E
:1052F000F8530008ED250008FEFF00000000000044
:10530000800000000000000000000000F0530008D2
:10531000B12600080000000000000000800000002E
:10532000000000000000000000540008A52600084E
:1053300001000000000000008000000000000000EC
:105340000000000000061016000610160000000005
:105350000000000001020304060708090000000025
:105360000102030400404040404040404040414171
:10537000414141404040404040404040404040402A
:1053800040404040400502020202020202020202C4
:1053900002020202022020202020202020202002C1
:1053A0000202020202029090909090901010101051
:1053B00010101010101010101010101010101010ED
:1053C0000202020202028888888888880808080881
:1053D000080808080808080808080808080808084D
:1053E0000202020240000000655300084C454400E0
:1053F00055736572494600004D736750726F000027
:1054000053746172740000002854000800000020EA
:10541000C4000000082F0008EC540008C40000205D
:105420006C4B0000182F0008000000000000000076
:10543000000000000000000000000000000000006C
:10544000000000000000000000000000010000005B
:1054500010000000000000000024F4000000000024
:10546000000000000000000000000000000000003C
:10547000000000000000000000000000000000002C
:10548000000000000000000000000000000000001C
:10549000000000000000000000000000000000000C
:1054A00000000000000000000000000000000000FC
:1054B00000000000000000000000000000000000EC
:1054C00000000000000000000000000000000000DC
:1054D0000000000000000000AAAAAAAA0000000024
:0C54E000000000000000000000000000C0
:040000050800018965
:00000001FF
