:020000040800F2
:100000003046002061020008371B00084118000834
:10001000351B0008B1030008AD21000800000000F6
:10002000000000000000000000000000A101000826
:100030004904000800000000FD0100084D1D0008F3
:100040007B0200087B0200087B0200087B0200089C
:100050007B0200087B0200087B0200087B0200088C
:100060007B0200087B0200087B0200087B0200087C
:100070007B0200087B0200087B0200087B0200086C
:100080007B0200087B0200087B0200087B0200085C
:100090007B0200087B0200087B0200087B0200084C
:1000A0007B0200081D1E00087B0200087B0200087E
:1000B0007B0200087B0200087B0200087B0200082C
:1000C0007B0200087B0200087B0200087B0200081C
:1000D0007B020008A12100087B0200087B020008C7
:1000E0007B0200087B0200087B0200087B020008FC
:1000F0007B0200087B0200087B0200087B020008EC
:100100007B0200087B0200087B0200087B020008DB
:100110007B0200087B020008291E00087B02000801
:100120007B0200087B020008B50300087B02000880
:100130007B0200087B0200087B0200087B020008AB
:100140007B0200087B0200087B0200087B0200089B
:100150007B0200087B020008C10300087B02000844
:100160007B0200087B0200087B0200087B0200087B
:100170007B0200087B0200087B02000800000000F0
:100180007B0200087B020008DFF810D000F0FEF8C8
:10019000004800475D270008AFF30080304600208C
:1001A0002C4B19680868B0E8F04F80F30988BFF35A
:1001B0006F8F4FF0000080F311887047000000003F
:1001C00008480068006880F308884FF0000080F35A
:1001D000148862B661B6BFF34F8FBFF36F8F00DF35
:1001E00000BF00BF08ED00E0DFF80C00016841F43B
:1001F00070010160704700BF88ED00E0EFF30980F7
:10020000BFF36F8F134B1A681EF0100F08BF20ED5D
:10021000108A20E9F04F106009B44FF0500080F3CD
:100220001188BFF34F8FBFF36F8F03F0FBF84FF0D0
:10023000000080F3118809BC19680868B0E8F04F25
:100240001EF0100F08BFB0EC108A80F30988BFF3CE
:100250006F8F704728000020EFF305807047000083
:100260000648804706480047FEE7FEE7FEE7FEE750
:10027000FEE7FEE7FEE7FEE7FEE7FEE70D1E0008ED
:10028000890100082DE9F05F0546002092469B4653
:1002900088460646814640241BE02846414647469C
:1002A000224600F063F853465A46C01A914110D3D3
:1002B00011461846224600F04AF82D1A67EB01084D
:1002C0004F4622460120002100F041F817EB0009BB
:1002D0004E41201EA4F10104DFDC484631462A4687
:1002E0004346BDE8F09F40EA01039B0703D009E0C5
:1002F00008C9121F08C0042AFAD203E011F8013B12
:1003000000F8013B521EF9D27047D2B201E000F86A
:10031000012B491EFBD270470022F6E710B51346A9
:100320000A4604461946FFF7F0FF204610BD421C5E
:1003300010F8011B0029FBD1801A7047034611F801
:10034000012B00F8012B002AF9D118467047202A0A
:1003500004DB203A00FA02F1002070479140C2F11C
:10036000200320FA03F3194390407047202A04DB4E
:10037000203A21FA02F00021704721FA02F3D0401E
:10038000C2F120029140084319467047064C074DC0
:1003900006E0E06840F0010394E807009847103455
:1003A000AC42F6D3FFF7F4FE443A0008643A000882
:1003B000FEE70000014800F0A5B800008803002017
:1003C000014800F09FB80000E803002001681823EE
:1003D000CAB2103AB2FBF3F2054B6FF30901032ADC
:1003E0009B5CC36500D9091D816508467047000004
:1003F000083A000810B5014600208B698A6A4FF060
:10040000C07453B1B3F5005F15D072B1012A0CD09E
:10041000022A0AD0032A09D104E01AB1012A06D01F
:10042000022A03D1C96AC90100D5012010BDC96AD9
:10043000A142FAD010BD002AF7D0012AF2D0022A38
:10044000F3D0032AF3D010BD704772B6FEE72DE952
:10045000F0410446876D00F095FA064694F83500A1
:100460000025022806D08020606584F834500120E1
:10047000BDE8F0812068016821F016010160206864
:10048000416921F080014161206C08B9A06C20B164
:100490002068016821F0080101602068016821F0EE
:1004A000010101600CE000F06DFA801B052807D9FE
:1004B00020206065032084F8350084F83450D7E7A5
:1004C00020680068C007EED194F85C103F20884097
:1004D000B860012084F8350084F834500020C7E764
:1004E00090F83510022903D0802141650120704722
:1004F000052180F835100068016821F001010160D4
:10050000002070472DE9F84304464FF00009CDF86C
:10051000009063484FF41651A56D0068B0FBF1F7E9
:100520002E6894F85C10082000FA01F131420FD0D7
:1005300021680A6852070BD50A6822F004020A6093
:1005400094F85C108840A860606D40F00100606520
:1005500094F85C104FF0010808FA01F0304208D01E
:1005600021684969090604D5A860606D40F0020061
:10057000606594F85C1004208840304208D02168FF
:100580000968890704D5A860606D40F004006065C3
:1005900094F85C1010208840304218D02168096817
:1005A000090714D5A86020680168490304D50068CC
:1005B000000308D5A16C07E00168C90503D40168F0
:1005C00021F008010160216C09B12046884794F8A8
:1005D0005C1020208840304231D021680968C9066B
:1005E0002DD5A86094F8350005282068016806D04C
:1005F000490347D5006800031DD4616C1CE021F05D
:10060000160101602068416921F080014161206C80
:1006100008B9A06C20B12068016821F008010160D0
:1006200094F85C103F208840A86084F8358084F8F6
:100630003490216D1FE0E16B09B120468847606D61
:1006400000282BD0606DC00714D0052084F8350039
:100650002068016821F0010101600098401C0090B1
:10066000B84203D820680068C007F6D184F8358006
:1006700084F83490E16C002910D001B02046BDE828
:10068000F04308470168C905D5D4016821F010017D
:10069000016084F8358084F83490CCE7BDE8F883B5
:1006A000240000202DE9F041044600F06BF90646D5
:1006B0005CB1022084F83500002584F834502068AD
:1006C000016821F0010101600DE00120BDE8F08129
:1006D00000F058F9801B052805D92020606503200B
:1006E00084F83500F2E720680068C007F0D122687E
:1006F000116820480140D4E901031843D4E90336C6
:100700003343184363691843A3691843E3691843E3
:10071000236A18430843616A042903D1D4E90B13FF
:1007200019430843106020684069666A20F0070199
:1007300030460E43012704280CD1A06A0643E06A24
:1007400040B12046FFF756FE20B14020606584F896
:100750003570BAE7206846612046FFF737FE94F807
:100760005C203F2191408160656584F835700020F0
:10077000ACE700003F8010F02DE9F84FDFF8BCA196
:10078000002201250AF1040B03264FF00F090BF19B
:10079000040E00BF0B6805FA02F42340A34270D197
:1007A0000F7907F00307012F01D0022F16D18768B8
:1007B0004FEA420806FA08FC27EA0C07D1F80CC0F9
:1007C0000CFA08FC4CEA070CC0F808C04768A743BD
:1007D0000C79C4F3001494403C4344600C79E44326
:1007E000A4070AD0C4684FEA420C06FA0CF7BC43CF
:1007F0008F6807FA0CF72743C7600C7904F00304ED
:10080000022C12D1D40800EB840CDCF820405707EE
:10081000FF0E09FA07F824EA0804D1F8108008FA54
:1008200007F848EA0408CCF8208004684FEA420C34
:1008300006FA0CF7BC430F7907F0030707FA0CF729
:10084000274307604C6814F4403F70D03C4C276845
:1008500047F480472760246822F0030704F48044AB
:100860000094384C07EB040CDCF8084897074FEA73
:10087000177809FA08F7BC43334FB84202D1002772
:1008800024E054E0314FB84201D101271EE0304F3F
:10089000B84201D1022719E02E4FB84201D10327F7
:1008A00014E02D4FB84201D104270FE02B4FB8427E
:1008B00001D105270AE02A4FB84201D1062705E0F9
:1008C000284FB84201D1072700E0082707FA08F7A8
:1008D0002743CCF80878DAF800405746D1F804C02E
:1008E0009C435FEACC3C00D51C433C60DBF80040F5
:1008F0005F46D1F804C09C435FEA8C3C00D51C43A2
:100900003C60DEF800407746D1F804C09C435FEAC3
:10091000CC2C00D51C433C60084F0C373C68D1F808
:1009200004C09C435FEA8C2C00D51C433C60521CE5
:10093000102AFFF42FAFBDE8F88F0000003C014003
:1009400044380240003001400000024000040240F0
:1009500000080240000C0240001002400014024057
:1009600000180240001C0240426921EA02030A40CA
:1009700043EA0241816170470AB18161704709040D
:10098000FBE7000001488068704700001800002065
:100990000248816802781144816070471800002085
:1009A0000B4810B5016841F400710160016841F421
:1009B00080610160016841F480710160032000F0F2
:1009C0008DF8002000F006F800F03EF8002010BD81
:1009D000003C024010B5014688B00022192000F00A
:1009E0005DF8192000F04CF813480024016841F02C
:1009F00001010160006805A900F001000690684649
:100A000000F018F900F046F90C494000B0FBF1F194
:100A10000C480B4A491E026040F2E732C0E9032449
:100A2000C0E9011400F078FB10B1012008B010BD3E
:100A3000044800F0BDFBF9E74438024040420F0093
:100A400000000140480400200C4882B0016841F4D5
:100A500080410160006800F4804000900748001F5A
:100A6000016841F0805101600068002200F0805070
:100A700000900F21901E02B000F010B844380240E0
:100A8000002809DB00F01F0201219140400980008D
:100A900000F1E020C0F8001170470000F0B40E4BE8
:100AA0001B680C46C3F30223C3F10705042D00D9CC
:100AB0000425191D072901D2002300E0DB1E0126B1
:100AC00006FA05F1491E214099409E40761E1640C7
:100AD0003143F0BC01F090BB0CED00E0064900F0A2
:100AE000070208684FF6FF03184040EA0220034A55
:100AF00010430860704700000CED00E00000FA05AC
:100B00002DE9F0470E46050065D0DFF81481D8F8CE
:100B10000000F7B200F00700B04207D288F800707A
:100B2000D8F8000000F00700B04254D128683D4CCE
:100B3000810712D5400703D5206840F4E0502060BB
:100B40002878000703D5206840F4604020602068C2
:100B5000A96820F0F000084320602878C0072DD055
:100B6000304968680839012812D0022813D00328B8
:100B700011D00968890700292DDA216821F00301C5
:100B800001432160FFF7FEFE814641F2883A0EE004
:100B900009688903EFE709688901ECE7FFF7F2FECE
:100BA000A0EB0901514502D90320BDE8F087206878
:100BB000696800F00C00B0EB810FEFD1D8F800109D
:100BC000404601F00701B14207D90770006800F004
:100BD0000700B04201D00120E7E72878400705D59B
:100BE0002068E96820F4E050084320602878000776
:100BF00006D52068296920F4604040EAC1002060E1
:100C000000F058F82168084AC1F30311515CC8404C
:100C10000649086006480068FFF7DCFE0020C4E7CC
:100C2000003C024008380240103A0008240000202E
:100C30001C0000200F2202600C4A136803F003031B
:100C40004360136803F0F0038360136803F4E05318
:100C5000C36012684FF4E05303EAD2020261044811
:100C6000006800F007000860704700000838024084
:100C7000003C02400448054900680968044AC1F381
:100C80008221515CC840704724000020083802408F
:100C9000203A00080448054900680968044AC1F37D
:100CA0004231515CC840704724000020083802409F
:100CB000203A0008154810B5006810F00C021448DE
:100CC00013D01449042A0FD0082A0ED10F4C241F28
:100CD0002268236802F03F025B0207D52068C0F358
:100CE0008810A0FB010106E0084610BD2168C1F391
:100CF0008811A1FB00010023FFF7C4FA2168C1F3AA
:100D00000141491C4900B0FBF1F010BD0838024018
:100D10000024F40040787D012DE9F84F04006ED0E6
:100D20002078DFF84C93C007A9F104054AD009F1F7
:100D300004000168C1F38101012908D00068C0F3F3
:100D4000810002280AD1D9F80000400206D528689F
:100D5000800337D560680028E1D033E06068B0F5E3
:100D6000803F10D0B0F5A02F286810D020F480303C
:100D70002860286820F4802028606068A8B1FFF708
:100D800001FE06460DE0286840F48030F4E740F4A8
:100D900080202860F7E700BFFFF7F4FD801B642880
:100DA00073D828688003F7D50CE0FFF7EBFD064603
:100DB00005E000BFFFF7E6FD801B6428F0D8286837
:100DC0008003F7D42078DFF8AC8280074FF0000A68
:100DD0003ED5A748001D016811F00C0F08D000682F
:100DE000C0F3810002280BD1D9F80000400207D4DB
:100DF0002868800716D5E068012800D112E033E1A9
:100E0000E068B8B10120C8F80000FFF7BBFD064656
:100E100005E000BFFFF7B6FD801B0228C0D8286898
:100E20008007F7D52868216920F0F80040EAC10062
:100E300028600DE0C8F800A0FFF7A4FD064604E016
:100E4000FFF7A0FD801B02281FD828688007F7D471
:100E50002078000722D5864F87486169703771B1C5
:100E600001210160FFF78EFD064604E0FFF78AFDD1
:100E7000801B022809D838688007F7D50EE0C0F833
:100E800000A0FFF77FFD064605E082E0FFF77AFD50
:100E9000801B02287DD838688007F7D42078400767
:100EA00068D5DFF8CCB100270BF13C0BDBF8000074
:100EB000C0000BD4DBF8001041F08051CBF80010DB
:100EC000DBF80000012700F0805000906B4E306886
:100ED000C00510D4306840F480703060FFF752FDD8
:100EE000009005E0FFF74EFD0099401A022850D807
:100EF0003068C005F6D55E4EA0686C3601280FD06C
:100F00000528306810D020F001003060306820F0F3
:100F100004003060A068B8B1FFF734FD00900FE026
:100F2000306840F00100F4E740F004003060F7E77B
:100F3000FFF728FD0099411A41F28830814266D8B6
:100F400030688007F4D50EE0FFF71CFD009007E045
:100F5000FFF718FD0099411A41F28830814256D8B6
:100F600030688007F4D42FB1DBF8001021F08051F5
:100F7000CBF80010A069C8B33D49091D0968C1F349
:100F8000810102294AD00228504607D0C8F86000E3
:100F900000E03CE0FFF7F6FC04463BE04746C8F8BB
:100FA0006000FFF7EFFC064605E000BFFFF7EAFC34
:100FB000801B02282BD828688001F7D4D4E90701C8
:100FC0000843A16A2E4A490802EB0141626A41EADC
:100FD0008211084394F82C1040EA0161C9F800100E
:100FE00001203866FFF7CEFC044606E03EE000BF75
:100FF000FFF7C8FC001B022809D828688001F7D534
:1010000034E000BFFFF7BEFC001B022802D903201A
:10101000BDE8F88F28688001F4D427E00128F7D0D4
:10102000D9F80000E26900F4800191421CD1226AE3
:1010300000F03F01914217D147F6C071626A01404A
:10104000B1EB821F10D1A26A4FF0FF3300F44031A0
:1010500003EB5202B1EB024F06D194F82C1000F0D2
:101060007060B0EB016F01D00120D1E70020CFE725
:101070000438024000004742800E474200700040A2
:101080000000FFFF7047704770B590F83C20012AC0
:1010900032D0012480F83C40022280F83D200368D1
:1010A0005A689D6822F070060A6832435A60134BF2
:1010B00002689A4214D0B2F1804F11D0104B9A427C
:1010C0000ED0104B9A420BD00F4B9A4208D00F4BC8
:1010D0009A4205D00E4B9A4202D00E4B9A4204D14E
:1010E000496825F080031943916080F83D40002154
:1010F00080F83C10084670BD022070BD0000014021
:101100000004004000080040000C004000040140C2
:10111000004001400018004010B5040003D094F8CE
:101120003D0010B107E0012010BD002084F83C0014
:10113000204600F01FF8022084F83D00211D2068A1
:1011400000F078FE012084F8460084F83E0084F820
:101150003F0084F8400084F8410084F8420084F89D
:10116000430084F8440084F8450084F83D000020E2
:1011700010BD000008B500680B49884212D10B4829
:10118000016841F0100101600068002200F01000C9
:10119000009005213620FFF781FCBDE8084036208D
:1011A000FFF76EBC08BD0000001000404038024050
:1011B00090F83D10012901D001207047022180F8EC
:1011C0003D100168CA6842F00102CA600068114916
:1011D000884214D0B0F1804F11D00F4988420ED010
:1011E0000E4988420BD00E49884208D00D498842EA
:1011F00005D00D49884202D00C49884204D181684B
:1012000001F00701062903D0016841F001010160E6
:10121000002070470000014000040040000800402A
:10122000000C004000040140004001400018004054
:10123000704770B50446006801694FF00005C94366
:10124000890715D4C168C943890711D4E91E016112
:1012500001202077206880698007204602D0FFF7B0
:10126000E7FF04E000F098F8204600F096F82577B4
:1012700020680169C943490717D4C168C9434907B0
:1012800013D46FF004010161022020772068806987
:1012900010F4407F204602D0FFF7CAFF04E000F0C0
:1012A0007BF8204600F079F8257720680169C9436A
:1012B000090716D4C168C943090712D46FF00801A1
:1012C0000161042020772068C0698007204602D091
:1012D000FFF7AEFF04E000F05FF8204600F05DF895
:1012E000257720680169C943C90617D4C168C94375
:1012F000C90613D46FF0100101610820207720681F
:10130000C06910F4407F204602D0FFF791FF04E04F
:1013100000F042F8204600F040F825772068016987
:10132000C943C90708D1C168C943C90704D1891E87
:101330000161204600F032F820680169C9430906BE
:1013400009D4C168C943090605D46FF08001016161
:101350002046FFF797FE20680169C943490609D472
:10136000C168C943490605D46FF0400101612046B8
:1013700000F02CF820680169C94389060BD4C168C4
:10138000C943890607D46FF0200101612046BDE8FA
:101390007040FFF778BE70BD7047704710B50446C7
:1013A00000680749884201D1FFF7F2FA0549206831
:1013B000884203D104480168491C016010BD000047
:1013C00000000140001000400000002070477047FE
:1013D00070470000F8B5016804460868CA684B69A0
:1013E00010F00F0F4FF0000559D003F0010602F482
:1013F0009077374365D0C10705D0D10503D5216C5F
:1014000041F001012164410705D5D90703D0216CC2
:1014100041F002012164810705D5D90703D0216C71
:1014200041F004012164010707D502F02001314396
:1014300003D0216C41F008012164216C00293AD0CD
:10144000800604D5900602D5204600F086FD20686F
:101450004069216CC0F38010090700D460B32046B6
:1014600000F054FD20684069400621D52068143002
:1014700050E8001F21F0400140E80012002AF5D199
:10148000A06BA8B16C490165A06BFFF729F8002893
:1014900011D0A06B016D01B0BDE8F0400847830694
:1014A0000FD593060DD52046BDE8F84000F055BD98
:1014B0002046FFF78DFFF8BD2046FFF789FF256422
:1014C000F8BD266B2023012E79D1C60677D5D60626
:1014D00075D50868486800904869400640D5A16BFA
:1014E000086840680004000CEAD0A28D8242E7D967
:1014F000E085C869B0F5807F2DD020680C3050E8B9
:10150000001F21F4807140E80012002AF5D1206804
:10151000143050E8001F21F0010140E80012002AB9
:10152000F5D12068143050E8001F21F0400140E858
:101530000012002AF5D184F83E30256320680C3073
:1015400050E8001F21F0100140E80012002AF5D1F8
:10155000A06BFEF77CFFA08DE18D401A81B229E0DF
:10156000A08DE18D401A81B2E08D0028A8D000291D
:10157000A6D020680C3050E8002F22F4907240E88A
:101580000026002EF5D12068143050E8002F22F0FC
:10159000010240E80026002EF5D184F83E30256394
:1015A00020680C3050E8002F22F0100240E80023A1
:1015B000002BF5D12046FFF70AFFF8BDFFE705062F
:1015C0002BD5150629D594F83D002128F5D1A06822
:1015D000B0F5805F01D12069B0B1206A411C216261
:1015E000216800784860E08C401E0004000CE08414
:1015F000E3D12068C16821F08001C1602068C16822
:1016000041F04001C160D8E7206A0088C0F30800BB
:101610004860206A801C2062E5E74006CDD5500670
:10162000CBD5CA68204622F04002CA6084F83D301B
:1016300000F005F9C1E70000FD1E000870B50400C8
:1016400004D094F83D00002510B106E0012070BDE3
:1016500084F83C50204600F023F8242084F83D0014
:101660002068C16821F40051C160204600F0D6FC1A
:101670002068016921F4904101612068416921F0ED
:101680002A0141612068C16841F40051C1602564AC
:10169000202084F83D0084F83E00002070BD00004A
:1016A0002DE9F04186B0064614216846FEF734FE67
:1016B00030493068884259D12F480024016841F0F0
:1016C00010010160006800F0100005902A481438ED
:1016D000016841F0010101600068694600F0010005
:1016E00005904FF4C06000900220CDE90104032072
:1016F0000390072004902148FFF73EF8214D204831
:101700004FF000672860C5E901744FF48068C5E9AF
:1017100003486C61AC61EC612C6228466C62FEF798
:10172000C1FF08B1FEF791FEB563AE63154D1448D5
:1017300060357830E5E802074020A5E8110111483E
:1017400045F814496030AC61EC612C626C62FEF7C4
:10175000A9FF08B1FEF779FE756300220621252056
:10176000AE63FFF79BF92520FFF78AF906B0BDE8C5
:10177000F0810000001001404438024000000240A7
:101780004064024088030020704700002DE9F843C0
:10179000044690F83D001F4616460D4620284CD1C1
:1017A000C5B1BEB194F83C00012846D0012084F8B0
:1017B0003C004FF00008C4F84080212084F83D0030
:1017C000FFF7E0F8A6848146E684A068B0F5805F64
:1017D00003D004E00120BDE8F883206928B12E463B
:1017E0005FF0000584F83C800EE00026FAE78021D7
:1017F000204600F099FCA0B9AEB116F8010B2168A3
:101800004860E08C401EE084E08C4B464FF00002C4
:1018100000970028EBD14FF04001204600F084FCF7
:1018200030B10320D7E735F8020BC0F30800E6E734
:10183000202084F83D000020CDE70220CBE7704750
:10184000FEE7000003480069C00501D4012070478D
:10185000002070470020024010B5FFF7F3FF20B1D1
:1018600000F006F808B1012010BD002010BD0000F6
:1018700003480068800401D40120704700207047AD
:101880001008024003480069000501D40120704798
:10189000002070470020024003480068400701D440
:1018A0000120704700207047101C02400348006868
:1018B000000701D40120704700207047101C02402F
:1018C00003480068000501D40120704700207047DC
:1018D0001014024003480068000601D4012070473C
:1018E000002070471018024003480068000401D42B
:1018F0000120704700207047101C024010B5FFF710
:10190000A1FF20B1FFF7B4FF08B1012010BD0020F6
:1019100010BD00000D4808B5016841F48001016068
:101920000068002200F48000009001213A20FFF7B7
:10193000B5F83A20FFF7A4F8002202214620FFF76D
:10194000ADF8BDE808404620FFF79AB830380240AD
:1019500010B59CB001F0A0FD1A4C206078B31AA01D
:1019600000F026FC1C221D496846FEF7BCFC002145
:10197000684600F01DFF194960601C221C3107A851
:10198000FEF7B1FC002107A800F012FF1349A06088
:101990001C2238310EA8FEF7A6FC00210EA800F08C
:1019A00007FF0E49E0601C22543115A8FEF79BFC8E
:1019B000002115A800F0FCFE20611CB010BDFFE75F
:1019C00007A0CDE704000020CAC2BCFEB1EAD6BE23
:1019D000D7E9B4B4BDA8B3C9B9A60A0098390008BC
:1019E000CAC2BCFEB1EAD6BED7E9B4B4BDA8CAA784
:1019F000B0DC0A0070B586B014216846FEF78CFC96
:101A000028480024016841F480710160016801F4F4
:101A100080710591016841F004010160016801F0E5
:101A200004010591016841F020010160016801F0A5
:101A300020010591016841F080010160016801F019
:101A400080010591016841F0010101600068164EB6
:101A500000F001000590012280213046FEF78CFF46
:101A60004FF4106001258DE8310069460F48FEF7FC
:101A700083FE68038DE8310069460D48FEF77CFE61
:101A800080200090CDE90154694630460394FEF76A
:101A900073FE0C208DE8310069460648FEF76CFEA7
:101AA00006B070BD303802400014024000200240F1
:101AB00000080240001C02401CB500240E4800949F
:101AC0000C49019401604721C0E90114632184613C
:101AD000C160FFF721FB08B1FEF7B7FC009469462F
:101AE00005480194FFF7D0FA002801D0FEF7ADFCBD
:101AF0001CBD000000100040FC0200200C4810B586
:101B00000A4901604FF4E1314160002181600C22FB
:101B1000C160C0E904128161C161FFF78FFD002837
:101B200003D0BDE81040FEF790BC10BD001001408E
:101B300044030020FEE7FEE708B5084D64240123B6
:101B400000941A460321286801F0FAFCC04380077C
:101B5000F5D103A000F02CFBF1E700000400002009
:101B60004D736750726F5461736B2052756E0D0A1E
:101B700000000000044C80212046FEF7F5FEC8203E
:101B800000F00AFEF7E700000014024000F076FDC6
:101B90000A2000F001FEF9E7A6B0294C00F008FD8C
:101BA000002848D0072827D004DC012807D00428C3
:101BB00041D11AE00A2828D00D283CD132E021A0DA
:101BC00000F0F6FA2CA000F0F3FA684601F098FA5B
:101BD000694635A000F0ECFA35A000F0E9FA684655
:101BE00001F03CFA694630A00CE00121206801F0C8
:101BF00061FC014638A005E00221206801F05AFC92
:101C0000014639A000F0D4FA15E0606830B13AA07E
:101C100000F0CEFA606801F09FFB0CE03EA000F0FF
:101C2000C7FA08E060680028F8D040A000F0C0FAC9
:101C3000606801F01BFB142000F0AEFDAEE7000071
:101C4000040000203D3D3D3D3D3D3D3D3D3D3D3D94
:101C50003D3D3D3D3D3D3D3D3D3D3D3D3D3D3D3DB4
:101C60003D3D3D3D3D3D3D3D3D3D3D3D3D3D3D3DA4
:101C70003D3D3D3D3D0D0A00C8CECEF1C3FB2020C9
:101C80002020202020C8CECEF1D7B4CCAC20D3C5A4
:101C9000CFC8BCB62020CAA3D3E0D5BB20C8CECEC7
:101CA000F1D0F2BAC50D0A0025730D0A000000003C
:101CB000C8CECEF1C3FB20202020202020D4CBD0C2
:101CC000D0BCC6CAFD202020202020202020CAB958
:101CD000D3C3C2CA0D0A00004B32BCFCB0B4CFC2A1
:101CE00025640D0A000000004B33BCFCB0B4CFC229
:101CF00025640D0A00000000555020B0B4CFC2A3E7
:101D0000ACB9D2C6F0C8CECEF120765461736B4C1C
:101D100045440D0A00000000CEDEC8CECEF120768C
:101D20005461736B4C45440D0A000000444F574EFC
:101D300020B0B4CFC2A3ACBBD6B8B4C8CECEF120CD
:101D4000765461736B4C45440D0A000010B5502069
:101D500080F31188BFF34F8FBFF36F8F01F054FDF5
:101D600018B104494FF080500860002080F31188BA
:101D700010BD000004ED00E030B593B0302168469E
:101D8000FEF7CAFA14210CA8FEF7C6FA1D48002572
:101D9000016841F080510160006800F080501190AE
:101DA0001948016841F4804101600068022400F490
:101DB000804011900120039010200490009406941C
:101DC0000820CDE90750A820CDE9090404200B9094
:101DD0006846FEF7A1FF08B172B6FEE70CA90F2016
:101DE00081E831004FF4A0500F904FF480501090D4
:101DF00005210CA8FEF784FE002801D072B6FEE78C
:101E000013B030BD40380240007000400248016805
:101E100041F470010160704788ED00E00148FFF770
:101E200008BA0000480400200148FFF702BA000089
:101E3000FC020020F0B50268254C264D264E274FA7
:101E4000274B4FF0804CA04209D0604507D0A842F4
:101E500005D0B04203D0B84201D0984204D122F05C
:101E6000700E4A6842EA0E02A0421BD0604519D0AB
:101E7000A84217D0B04215D0B84213D0984211D022
:101E8000184DA8420ED0184DA8420BD0174DA842AD
:101E900008D0174DA84205D0164DA84202D0164DC5
:101EA000A84203D122F44075CA682A434D6922F042
:101EB00080022A4302608A68C2620A688262A04283
:101EC00001D0984201D10969016301214161F0BD4E
:101ED000000001400004004000080040000C0040E9
:101EE000000401400040014000440140004801401E
:101EF00000180040001C00400020004010B5806B1E
:101F00000021C185C184FFF763FA10BD01680C315F
:101F100051E8002F22F4907241E80023002BF5D104
:101F20000168143151E8002F22F0010241E800233A
:101F3000002BF5D1016B012909D101680C3151E861
:101F4000002F22F0100241E80023002BF5D12021C0
:101F500080F83E1000210163704708B590F83E10EC
:101F6000222901D0022008BD82684FF480539A4292
:101F700001D1016921B1816A9A421BD04AB10AE0BC
:101F80000268816A5268C2F308020A80816A891C69
:101F900008E0026972B10268526802F07F020A70BA
:101FA000816A491C8162C18D491E0904090CC185E1
:101FB00003D019E002685268F1E70168CA6822F0AC
:101FC0002002CA600168CA6822F48072CA6001688F
:101FD0004A6922F001024A61202180F83E10016B1B
:101FE000012903D0FFF7D0FB002008BD00210163C9
:101FF00001680C3151E8002F22F0100241E8002363
:10200000002BF5D101680A68D20602D50A68496832
:102010000091818DFFF7DBF9E6E7000070B504461B
:1020200000680169E26821F44051114301612169AE
:10203000A068E26908436169114308432168CA68DE
:1020400049F20C639A430243CA6020684169A2695D
:1020500021F440711143416131492068884202D026
:102060003049884202D1FEF715FE01E0FEF702FE7C
:10207000E2690023192164253226B2F5004F626817
:1020800028D0A0FB0101930F9200FEF7FBF8014658
:10209000B0FBF5F06FF01802504301EB800006EB47
:1020A0000010B0FBF5F000F0F002B1FBF5F002EB30
:1020B0000012B1FBF5F06FF01803584301EB8000FC
:1020C00006EB0010B0FBF5F000F00F0021681044A3
:1020D000886070BDA0FB010192185B41FEF7D2F849
:1020E0000146B0FBF5F00201B1FBF5F06FF018030B
:1020F000584301EB800006EBC000B0FBF5F000F0A8
:10210000F80002EB4002B1FBF5F0584301EB800010
:1021100006EBC000B0FBF5F000F00700D6E70000CA
:1021200000100140001401402DE9F0419846174687
:102130000E460446069D27E0681C25D02DB1FEF70B
:1021400021FCA0EB0800A8421ED920680C3050E802
:10215000001F21F4D07140E80012002AF5D1206858
:10216000143050E8001F21F0010140E80012002A5D
:10217000F5D1202084F83D0084F83E00002084F84A
:102180003C000320BDE8F0812068006836EA0000CA
:1021900004D00020B842CFD00020F3E70120F9E7B7
:1021A0000148FFF717B9000044030020FEE70000D4
:1021B0000FB4054B10B503A9044A029800F03CF88F
:1021C00010BC5DF814FB00002D27000898000020CB
:1021D0000FB4084B10B504A902AA039800F02CF81C
:1021E000044602A9002000F087F9204610BC5DF8E3
:1021F00014FB0000F92400080907090E002804DB7D
:1022000000F1E02080F80014704700F00F0000F1AA
:10221000E02080F8141D704702E008C8121F08C1B2
:10222000002AFAD170477047002001E001C1121F57
:10223000002AFBD1704700002DE9FF4F8DB09B466F
:102240000F460446002606E025280BD05A460F9973
:102250009047641C761C20780028F5D111B03046D8
:10226000BDE8F08F0025A8460122984900E005430B
:1022700014F8013F203B02FA03F00842F7D120781E
:102280002E2817D114F8010F45F004052A280ED086
:102290006FF02F022078A0F1300109290AD808EB4D
:1022A000880102EB410100EB0108641CF2E757F8DA
:1022B000048B641C20786C280DD004DC4C2812D0D0
:1022C0006A2811D104E074280DD07A280CD10AE0D4
:1022D00045F4001507E0617845F48015814202D18C
:1022E000641C05F58015641C2078692844D008DC3E
:1022F0000028B3D0582867D063280FD0642808D1AD
:102300003AE0702865D0732812D075285AD0782802
:102310005AD05A460F999047761CD5E017F8040B0F
:102320008DF8000000208DF80100E946012003E04F
:1023300057F8049B4FF0FF3069074FF0000501D4B8
:102340000AE06D1C45450DDA8542FADB19F80510E7
:102350000029F6D106E06D1C8542FCDB19F805105A
:102360000029F8D12E4404E019F8010B5A460F99C0
:1023700090476D1EF8D2A7E00A200021CDE90801A0
:10238000C5F3025002280CD001CFC117021E71F113
:1023900000020CDA0023D0EB030063EB01012D22D5
:1023A00008E0FF1D27F00707F7E80201EEE72A051E
:1023B00004D52B228DF8282001223CE0EA073AD0F0
:1023C0002022F7E70A2000E010200021CDE90801D3
:1023D00007E01020002145F00405CDE908014FF089
:1023E0000808C5F30250022810D001CF00214FF099
:1023F000000A2A0720D52278702A0DD0DDE908C30B
:102400008CF0100C5CEA030C0CD015E0FF1D27F0DB
:102410000707F7E80201EAE740228DF828204FF08D
:10242000010A0CE050EA010306D030238DF8283071
:102430008DF82920022292462278582A04D024A21C
:102440000DF120090B9209E026A2F9E7DDE9082346
:10245000FDF718FF0B9B9B5C09F8013D50EA010258
:10246000F4D1ADEB090020300890680701D44FF09B
:1024700001080899884503DD0898A8EB000000E0F2
:1024800000208046002506E00AA85A46405D0F99C4
:1024900090476D1C761C5545F6DB04E030205A460B
:1024A0000F999047761CB8F10001A8F10108F5DCFE
:1024B00005E019F8010B5A460F999047761C0899C8
:1024C000481E08900029F4DC641CC4E609280100B9
:1024D000303132333435363738396162636465669A
:1024E000000000003031323334353637383941425C
:1024F00043444546000000000A68531C0B601070FE
:102500007047000070B50646284800EB06142068A6
:102510008047052100250028207906EB460331D0AD
:10252000052801D2217170BD0A2802D2401C2071F9
:1025300070BDA07A06EB4606761C20B90120A07279
:10254000F0B200F0A5F821890029F1D0E088884296
:1025500008D2401C80B2E08021898842E8D1DB1C8F
:10256000D8B20BE0E07A0028E2D0207B401CC0B259
:102570002073E17A8842DBD32573F0B2BDE8704066
:1025800000F086B8052801D921710BE010B1401E7A
:10259000207107E0A07A012804D19B1CA572D8B253
:1025A00000F076F8E580257370BD000080410020C2
:1025B00007498A7AC87A824201D100207047885C34
:1025C000521CD2B28A720A2AF8D300228A72704749
:1025D0002042002030B51E48002164238172C17260
:1025E0000173A0380A46022500EB0214521C238115
:1025F0002571A172E172D2B221730A2AF4D3038742
:10260000052180F83B10A0F8483080F84B10A0F866
:10261000583080F85B10A0F8683080F86B100D49D6
:1026200040F82C1B0C4940F81C1C0C4940F80C1CB1
:102630000B4941600B4941610B4941620B494163C0
:102640000B4941640B4941650B49416630BD0000AF
:10265000204200204518000871180008851800085D
:1026600099180008AD180008C1180008D51800080E
:10267000E9180008FD1800085918000810B50024D2
:102680002046FFF73FFF641CE4B20A2CF8D310BDCC
:102690000549CA7A8854C87A401CC0B2C8720A2850
:1026A00001D30020C8727047204200200149002059
:1026B00008607047000000202DE9F041040006D0BA
:1026C000184E306884420AD10020BDE8F0815020C5
:1026D00080F31188BFF34F8FBFF36F8FFEE700F0D9
:1026E000DDFB6569F76B366C00F0F8FBBD4201D08D
:1026F000B54201D10220E8E70B48854208D1A06A23
:102700000028F7D194F85C000128F3D00320DCE71F
:1027100005481438854202D00DB10120D5E70420C8
:10272000D3E70000280000206C05002013B500232B
:10273000012269460548FFF729F804480068016846
:10274000C9434906FBD400981CBD00004403002087
:10275000014800687047000000000020FEF720F9E3
:10276000FFF70AFBFFF746F9FFF7C8F9FFF7D2F8C2
:10277000FFF7A2F90448FEF71BFDFFF72BFFFFF759
:10278000E7F800F010F8FEE7FC0200200146002008
:10279000842900D0C81C704710B500B9012000F092
:1027A000F5FB002010BD10B500F09EFD002010BD0F
:1027B0007FB50D4604464169B0F9080081B1A169B1
:1027C00071B1FFF7E3FFD4E905128DE80700D4E902
:1027D00000102B46226900F0DEFF039004B070BDAC
:1027E000FFF7D4FF03A9CDE90001208A2B4682B26E
:1027F000D4E9001000F0A2FF012801D00020EDE78D
:102800000398EBE72DE9F041184C0F460546E668C2
:102810002068001D00F090FA38B9206890F82C105C
:1028200001208840216981432161681C07D137B1AB
:102830002168BDE8F0410E48091D00F023BB206867
:102840003544B5424560216805D2206CBDE8F041B1
:10285000091D00F0FFBAE06B091D00F0FBFAA06A49
:10286000854200D2A562BDE8F0810000280000206A
:102870006C0500202DE9F041054600F00FFB2E4CC1
:10288000A068401CA06020682C4F10B1606940B364
:102890002DE02560A068012829D1002606EB8600DE
:1028A00007EB800000F0C8FA761C072EF6D3234809
:1028B0008C3000F0C1FA2148A03000F0BDFA1F486A
:1028C000B43000F0B9FA1D48C83000F0B5FA1B4822
:1028D000DC3000F0B1FA19488C30E0631430206429
:1028E00005E02068E96AC06A884200D82560606A0D
:1028F000401C60626864E96A0120226988401043D4
:10290000206101EB810007EB8000291D00F0BAFA7D
:1029100000F0E4FA606900280CD02068E96AC06A17
:10292000884207D206494FF080500860BFF34F8FAE
:10293000BFF36F8FBDE8F0812800002090040020D5
:1029400004ED00E010B5044690F85D0058B1012890
:102950000CD002280FD0502080F31188BFF34F8F86
:10296000BFF36F8FFEE7206B00F0CCFA2046BDE886
:10297000104000F0C7BA10BD10484FF47051420724
:1029800006D0C01D0D4920F00700411AC1F5705155
:102990000B4A00230144C2E900030839183A21F028
:1029A000070111604B600B600B1AC0E900139360C4
:1029B0004FF00040536050617047000080050020D8
:1029C00084000020144E154CA6F1C8074FF0805823
:1029D000DFF84C9012E000BF00F060FAF068C568C4
:1029E000281D00F0A9F9A068401EA0606068401E84
:1029F000606000F073FA2846FFF7A4FF60680028C3
:102A0000EAD138680128F9D9C9F80080BFF34F8F9F
:102A1000BFF36F8FF2E70000580500202800002068
:102A200004ED00E02DE9F05F8846DDE90B941546E2
:102A3000834691009A460A9EA522206BFDF765FC0D
:102A40006FF00301206B01EB8501084420F00707BC
:102A5000780707D0502080F31188BFF34F8FBFF362
:102A60006F8FFEE70025B8F1000F0FD05FF0000078
:102A7000221818F8001082F8341018F8001011B15C
:102A8000401C1028F4D384F8435001E084F83450FB
:102A9000072E00D30626E662C4E91365201D00F068
:102AA000D6F904F1180000F0D2F92461C6F107004C
:102AB0006462A0616565A56584F85C50524659461C
:102AC000384600F023F92060B9F1000F01D0C9F8B1
:102AD0000040BDE8F09F000030B5114900E011460C
:102AE0000A688242FBD34B685C18844203D1406879
:102AF00018444860084643681C18944209D1084CA1
:102B0000183C2468A24209D052681A4442600A68FC
:102B100012680260814200D0086030BD0460F9E7AD
:102B2000840000202DE9F0478146086892460C4653
:102B3000002600B3606804F1080540686060A842A0
:102B400001D1416861606068D0F80C8060684068BD
:102B50006060A84201D141686160606806EBC6010F
:102B600009EB8101C76853460122384600F034FA68
:102B7000761C4745EAD13046BDE8F0870648C16B70
:102B8000096829B1C16BC968C96849688162704721
:102B90004FF0FF31FAE700002800002008484068A5
:102BA000401C4FF0500080F3118804D0BFF34F8FCA
:102BB000BFF36F8FFEE7BFF34F8FBFF36F8FFEE75B
:102BC0008C000020002150B10A4B42699A420FD17B
:102BD000806AA3F1280290420AD040B108E0502058
:102BE00080F31188BFF34F8FBFF36F8FFEE7012192
:102BF000084670476C0500200346002012B1994337
:102C000002D070470B42FCD00120704710B504463B
:102C1000FDF794FB2046FDF78AFB202101E02154BB
:102C2000401C0F28FBD300212154204410BD00007C
:102C30002DE9F0410546002700F0ECFB324E3068EC
:102C400008B9FFF799FE706905424ED1C5B3083542
:102C500068070ED005F00700C0F1080005446807BA
:102C600007D0502080F31188BFF34F8FBFF36F8FD1
:102C7000FEE72DB37068854237D8234818300146E7
:102C80000C6801E020460C466168A94202D2216826
:102C90000029F7D131688C4227D00768216801608C
:102CA00060680837411B10290FD96019420708D006
:102CB000502080F31188BFF34F8FBFF36F8FFEE773
:102CC00013E041606560FFF707FF61687068401AB4
:102CD0007060B268904200D2B06070690143002019
:102CE000C4E90001F068401CF06000F0F3FD7807D3
:102CF00007D0502080F31188BFF34F8FBFF36F8F41
:102D0000FEE73846BDE8F0816C00002010B5031FD7
:102D10004FF080741C601B1F21F001011960191F06
:102D2000044B0B6014390A60091F6FF0020244382B
:102D30000A6010BD9D2B0008D0E9013201699A603C
:102D4000D0E901235A604A68824201D182684A6010
:102D5000002202610868401E086008687047000091
:102D60002DE9F04717460A4605460024072600F0DD
:102D700051FBDFF89080D8F8080082423CD3DFF89E
:102D80008890761E06EB860104EBC40009EB8101F6
:102D900005EB80000122FFF7C5FE0444002EF0D1B0
:102DA00004EBC40005EB800002224646D8F83C1034
:102DB000FFF7B8FE044404EBC40005EB80000222D8
:102DC000316CFFF7AFFE04440F4904EBC40005EB80
:102DD00080000422C831FFF7A5FE04440A4904EB31
:102DE000C40005EB80000322DC31FFF79BFE0444A6
:102DF00017B1FFF7ADFC386000F06CFD2046BDE870
:102E0000F087000028000020900400200449086892
:102E10000A688069D26A0968C2F107028A6170474C
:102E200028000020034B036003F16000086080204D
:102E3000106070479C00002000F108014FF0FF3245
:102E4000C0E90112C16001610021016070470021E9
:102E50000161704730B50B685A1C02D000F10802BE
:102E600002E0026904E02246546825689D42FAD9CE
:102E700053684B6099608A60516008610168491C21
:102E8000016030BD42684A6093688B609368596006
:102E9000916008610168491C01607047502080F30F
:102EA0001188BFF34F8FBFF36F8F0A494868401CEA
:102EB000486001280CD10848006810F0FF0F07D0C7
:102EC000502080F31188BFF34F8FBFF36F8FFEE761
:102ED000704700008C00002004ED00E008494868BD
:102EE00028B1401E486001D180F3118870475020FE
:102EF00080F31188BFF34F8FBFF36F8FFEE70000A1
:102F00008C00002070B500282AD0164DA0F10804CE
:102F100060686969084207D1502080F31188BFF3C7
:102F20004F8FBFF36F8FFEE722683AB1502080F3D6
:102F30001188BFF34F8FBFF36F8FFEE78843606048
:102F400000F068FA60686968084468602046FFF726
:102F5000C3FD2869401C2861BDE8704000F0BABC80
:102F600070BD00006C0000204FF0E02000210161E6
:102F7000816105494FF47A720968B1FBF2F1491E8B
:102F800041610721016170472400002010B5020053
:102F900014D00F48006B38B1502080F31188BFF374
:102FA0004F8FBFF36F8FFEE700F034FA0021104619
:102FB000FFF728FC00F08EFC002807D105494FF0F0
:102FC00080500860BFF34F8FBFF36F8F10BD0000BC
:102FD0002800002004ED00E02DE9F0410C461E49D8
:102FE0001646B8B14FEA000505F13400C4E90050B7
:102FF000E86A2061286BE061686CA060E86C606141
:10300000686D0027A061052B12D00868854203D1A6
:10301000277311E00D68E7E72373032B0CD100F051
:10302000F9F9A86A08B10220207300F053FC03E00C
:103030002846FFF741FB20735EB10021286B01E0B9
:10304000401C491C0278A52AFAD088082084BDE8D3
:10305000F0812784FBE70000280000202DE9F843D9
:103060000021804601701F488468806800EBC00022
:103070008000FFF7DDFD060031D06A462146FFF7EC
:103080006FFE074600986421B0FBF1F0009018B382
:1030900000241FE004EBC40006EB80050099A8693A
:1030A000B0FBF1F940466968FFF7B0FD8046AA69B8
:1030B000B9F1000005D003460BA14046FFF788F8A0
:1030C00003E00CA14046FFF783F84046FDF72FF9D7
:1030D0008044641CBC42DDD33046FFF713FFBDE8DB
:1030E000F8830000280000200925750909257525A9
:1030F000250D0A0009257509093C3125250D0A0011
:103100002DE9FC47002181460170234884688068CE
:1031100000EBC0008000FFF78BFD060039D00022D5
:103120002146FFF71DFE0746002423E004EBC40000
:1031300006EB8005287B052829D2DFE800F003058F
:1031400022242600582000E0522080464846696824
:10315000FFF75CFD8146A968288CCDE90001424655
:103160000EA148462B69FFF733F84846FDF7DFF814
:103170008144641CBC42D9D33046BDE8FC47FFF70C
:10318000C1BE4220E1E75320DFE74420DDE7002015
:10319000DBE7BDE8FC870000280000200925630963
:1031A00025750925750925750D0A000010B5144609
:1031B000030011D01048026BB2B1026841F0004127
:1031C0009161016818461831FFF75CFE2046BDE8A2
:1031D00010400121FFF716BB502080F31188BFF388
:1031E0004F8FBFF36F8FFEE7502080F31188BFF33E
:1031F0004F8FBFF36F8FFEE72800002070B5194E88
:10320000326BFAB141F000410160C46814B3FFF7BA
:1032100093FD201DFFF790FDE16A0125326905FA53
:1032200001F01043306101EB81000F4901EB800098
:10323000211DFFF727FEE06A3168C96A884200D97C
:10324000F56170BD502080F31188BFF34F8FBFF33D
:103250006F8FFEE7502080F31188BFF34F8FBFF3CD
:103260006F8FFEE7280000209004002070B5040056
:103270002BD01A4D286884422FD0FFF70FFE20462E
:10328000FFF7A0FCE8B1201DFFF756FDE06A012121
:103290002A69814011432961114900EB800001EB4B
:1032A0008000211DFFF7EEFDE06A2968C96A8842A7
:1032B00007D30C494FF080500860BFF34F8FBFF326
:1032C0006F8FBDE87040FFF709BE502080F3118872
:1032D000BFF34F8FBFF36F8FFEE770BD2800002054
:1032E0009004002004ED00E010B586B000240394A3
:1032F00005AA04A903A80494FFF794FDDDE90301DE
:103300000094CDE9011000230FA11148059A00F0A7
:1033100042FA10490028C86213D0502080F3118867
:10332000BFF34F8FBFF36F8F4FF0FF3088620120E4
:103330004861CC60FFF7BAF906B0BDE8104000F074
:1033400083B906B010BD000049444C4500000000A0
:10335000C52900082800002070B50446FFF79EFD2F
:10336000294D04B92C68201DFFF7E6FC58B9E06A26
:10337000264A00EB800152F8211021B90121814039
:10338000286988432861A06A18B104F11800FFF782
:10339000D3FC1E48211DDC30FFF774FD94F85C005F
:1033A0000026012801D184F85C60FFF797FD686969
:1033B00028B1FFF773FDFFF7E1FBFFF78FFD2868EA
:1033C000844213D1686990B1286B38B1502080F3E2
:1033D0001188BFF34F8FBFF36F8FFEE70C494FF09B
:1033E00080500860BFF34F8FBFF36F8F70BD0748E9
:1033F000DC300068A968884201D12E6070BDBDE84C
:10340000704000F00FB80000280000209004002059
:1034100004ED00E00248016B491C016370470000A5
:103420002800002010B51A4C206B10B10120E0617B
:1034300010BD0020E061FFF78BF9A063626B904242
:1034400004D92168821A4B6D1A444A656063206969
:103450001049B0FA80F0C0F11F0000EB800051F875
:1034600020206AB101EB800000F108024168496840
:103470004160914201D149684160C868206010BD37
:10348000502080F31188BFF34F8FBFF36F8FFEE79B
:10349000280000209004002070B52020FFF7C8FB12
:1034A000040005D00025201D2560FFF7C5FC257709
:1034B000204670BD2DE9F0410027884604000AD05F
:1034C0005FEA18600FD0502080F31188BFF34F8F50
:1034D000BFF36F8FFEE7502080F31188BFF34F8F4B
:1034E000BFF36F8FFEE7261D04F10C05FFF792FF77
:1034F0002168F06841EA0801216017E0D0E9001670
:1035000001F07F425301236821F07F4102D40B4236
:1035100003D10AE031EA030307D1D20100D50F43FA
:10352000216841F00071FFF769FE3046A842E5D1FD
:103530002068B843206000F0CDF92068BDE8F08134
:103540002DE9F0479A46DDF8209090460D4604009C
:103550004FF0000709D0280E0FD0502080F31188BB
:10356000BFF34F8FBFF36F8FFEE7502080F31188BA
:10357000BFF34F8FBFF36F8FFEE71DB100F036F939
:1035800040B112E0502080F31188BFF34F8FBFF39A
:103590006F8FFEE7B9F1000F07D0502080F311883C
:1035A000BFF34F8FBFF36F8FFEE7FFF733FF266840
:1035B000524629463046FFF71FFB30B1B8F1000FE5
:1035C0001AD02068A843206016E0B9F1000F13D08C
:1035D000B8F1000F01D04FF08077BAF1000F01D0A1
:1035E00047F0806745EA07014A46201DFFF7DEFDE8
:1035F00000F070F918B10AE000F06CF91FE0114911
:103600004FF080500860BFF34F8FBFF36F8FFFF70D
:10361000FDFB0646800110D4FFF740FC26685246A9
:1036200029463046FFF7E8FA28B1B8F1000F02D07A
:103630002068A8432060FFF751FC26F07F46304603
:10364000BDE8F08704ED00E01CB537480168374A53
:10365000914207D1502080F31188BFF34F8FBFF301
:103660006F8FFEE700683149491E884207D150201C
:1036700080F31188BFF34F8FBFF36F8FFEE72C49A4
:1036800008780190FF20087008788DF800009DF8F8
:1036900000009DF8002000F0F000904207D050207C
:1036A00080F31188BFF34F8FBFF36F8FFEE79DF854
:1036B0000000204C00F0500020700720A06005E0C2
:1036C0009DF8002052008DF80020401E9DF800203B
:1036D0001206F5D4A060032807D0502080F311888B
:1036E000BFF34F8FBFF36F8FFEE74FF44070A060C2
:1036F000019808700C482030016841F470010160A5
:10370000016841F070410160FFF72EFC002060600D
:10371000FCF76AFD0848016841F040410160FCF790
:103720004FFD00201CBD000000ED00E071C20F4104
:1037300000E400E08C00002034EF00E02DE9FF5FA2
:103740008346DDE90E87994616468A469000FFF7C4
:103750006FFA05001CD06020FFF76AFA040014D04D
:103760000020256384F85D00CDE90240CDE90087A3
:103770004B46324651465846FFF754F92046FFF76C
:1037800079F8012004B0BDE8F09F2846FFF7BAFBA6
:103790004FF0FF30F6E7F0B585B0DDE90B640A9D28
:1037A000A6B1DCB1602700972663022684F85D602D
:1037B000002604AFCDE90246CDE90057FFF732F904
:1037C0002046FFF757F8049805B0F0BD502080F36D
:1037D0001188BFF34F8FBFF36F8FFEE7502080F348
:1037E0001188BFF34F8FBFF36F8FFEE70548416924
:1037F00019B1006B18B100207047012070470220FA
:1038000070470000280000202DE9F0412F4C0026D1
:10381000206B28B1A069401CA0613046BDE8F08152
:10382000E5686D1CE56013D1E06B006838B150208D
:1038300080F31188BFF34F8FBFF36F8FFEE7E06B0C
:10384000216CE1632064206A401C2062FFF796F936
:10385000A06ADFF87C80854209D3E06B0068A0B1E4
:10386000E06BC068C7687868854211D2A0622068A2
:10387000C06A00EB800158F82100012800D9012618
:10388000E0690028C9D00126C7E74FF0FF30EDE717
:10389000381DFFF751FAB86A18B107F11800FFF7A1
:1038A0004BFAF96A0120226988401043206101EB3C
:1038B000810108EB8100391DFFF7E4FAF86A2168FD
:1038C000C96A8842C9D30126C7E700002800002042
:1038D000900400202DE9F0472C4D00242746286B4A
:1038E00038B1FFF7DBFA286B401E2863286B40B124
:1038F00046E0502080F31188BFF34F8FBFF36F8FE6
:10390000FEE7A968224E0120D1B3A6F1B409804692
:103910003068E8B1F068C46804F11800FFF70CFAE9
:10392000201DFFF709FAE06A2A6908FA00F111433D
:10393000296100EB800109EB8100211DFFF7A2FA4C
:10394000E06A2968C96A8842E2D3C5F81C80DFE7CB
:103950000CB1FFF713F9AC6944B14646FFF754FFC9
:1039600000B1EE61641EF9D10020A861E86938B1A8
:103970000849012738070860BFF34F8FBFF36F8FE7
:10398000FFF7ACFA3846BDE8F087000028000020B9
:103990004405002004ED00E0283A0008751B0008EB
:1039A000FFFF000000000000800000000000000099
:1039B00000000000343A0008391B0008FEFF000038
:1039C0000000000080000000000000000000000077
:1039D0002C3A0008991B00080000000000000000BD
:1039E0008000000000000000000000003C3A0008D9
:1039F0008D1B000801000000000000008000000096
:103A0000000000000000000000061016000610165E
:103A1000000000000000000001020304060708097E
:103A200000000000010203044C4544005573657218
:103A3000494600004D736750726F00005374617205
:103A400074000000643A0008000000209C000000A0
:103A500018220008003B00089C000020944500004C
:103A60002822000800000000000000000000000004
:103A70000000000000000000000000000100000045
:103A800010000000000000000024F400000000000E
:103A90000000000000000000000000000000000026
:103AA0000000000000000000000000000000000016
:103AB0000000000000000000000000000000000006
:103AC00000000000000000000000000000000000F6
:103AD00000000000000000000000000000000000E6
:103AE00000000000000000000000000000000000D6
:103AF00000000000AAAAAAAA00000000000000001E
:040000050800018965
:00000001FF
