:020000040800F2
:100000004846002061020008FB1C0008E7190008B0
:10001000F91C0008B10300081D25000800000000BD
:10002000000000000000000000000000A101000826
:100030000105000800000000FD0100081D1F000868
:100040007B0200087B0200087B0200087B0200089C
:100050007B0200087B0200087B0200087B0200088C
:100060007B0200087B0200087B0200087B0200087C
:100070007B0200087B0200087B0200087B0200086C
:100080007B0200087B0200087B0200087B0200085C
:100090007B0200087B0200087B0200087B0200084C
:1000A0007B020008ED1F00087B0200087B020008AD
:1000B0007B0200087B0200087B0200087B0200082C
:1000C0007B0200087B0200087B0200087B0200081C
:1000D0007B020008D52400087B0200087B02000890
:1000E0007B0200087B0200087B0200087B020008FC
:1000F0007B0200087B0200087B0200087B020008EC
:100100007B0200087B0200087B0200087B020008DB
:100110007B0200087B020008F91F00087B02000830
:100120007B0200087B020008B50300087B02000880
:100130007B0200087B0200087B0200087B020008AB
:100140007B0200087B0200087B0200087B0200089B
:100150007B0200087B020008C10300087B02000844
:100160007B0200087B0200087B0200087B0200087B
:100170007B0200087B0200087B02000800000000F0
:100180007B0200087B020008DFF810D000F0FEF8C8
:1001900000480047C92A0008AFF300804846002005
:1001A0002C4B19680868B0E8F04F80F30988BFF35A
:1001B0006F8F4FF0000080F311887047000000003F
:1001C00008480068006880F308884FF0000080F35A
:1001D000148862B661B6BFF34F8FBFF36F8F00DF35
:1001E00000BF00BF08ED00E0DFF80C00016841F43B
:1001F00070010160704700BF88ED00E0EFF30980F7
:10020000BFF36F8F134B1A681EF0100F08BF20ED5D
:10021000108A20E9F04F106009B44FF0500080F3CD
:100220001188BFF34F8FBFF36F8F03F073FA4FF056
:10023000000080F3118809BC19680868B0E8F04F25
:100240001EF0100F08BFB0EC108A80F30988BFF3CE
:100250006F8F70472C000020EFF30580704700007F
:100260000648804706480047FEE7FEE7FEE7FEE750
:10027000FEE7FEE7FEE7FEE7FEE7FEE7DD1F00081C
:10028000890100082DE9F05F0546002092469B4653
:1002900088460646814640241BE02846414647469C
:1002A000224600F063F853465A46C01A914110D3D3
:1002B00011461846224600F04AF82D1A67EB01084D
:1002C0004F4622460120002100F041F817EB0009BB
:1002D0004E41201EA4F10104DFDC484631462A4687
:1002E0004346BDE8F09F40EA01039B0703D009E0C5
:1002F00008C9121F08C0042AFAD203E011F8013B12
:1003000000F8013B521EF9D27047D2B201E000F86A
:10031000012B491EFBD270470022F6E710B51346A9
:100320000A4604461946FFF7F0FF204610BD421C5E
:1003300010F8011B0029FBD1801A7047034611F801
:10034000012B00F8012B002AF9D118467047202A0A
:1003500004DB203A00FA02F1002070479140C2F11C
:10036000200320FA03F3194390407047202A04DB4E
:10037000203A21FA02F00021704721FA02F3D0401E
:10038000C2F120029140084319467047064C074DC0
:1003900006E0E06840F0010394E807009847103455
:1003A000AC42F6D3FFF7F4FE103C0008303C0008E6
:1003B000FEE70000014800F001B90000A0030020A2
:1003C000F0B52249202081F83D00214A012082F821
:1003D0003500204D20491F4B4C3DDFF87CC0106894
:1003E0001D4E2F1FB8394FF00064ACF1600C9842DD
:1003F00001D92C6008E0B04201D93C6004E06045BE
:1004000001D9CC6000E08C604FF08064984201D943
:100410002C6008E0B04201D93C6004E0604501D99D
:10042000CC6000E08C604FF48004984201D92C60CD
:1004300008E0B04201D93C6004E0604501D9CC60DD
:1004400000E08C60002082F83400F0BD5C030020E6
:100450000004002058640240B8600240016818237C
:10046000CAB2103AB2FBF3F2054B6FF30901032A4B
:100470009B5CC36500D9091D816508467047000073
:10048000D43B000810B5014600208B698A6A4FF002
:10049000C07453B1B3F5005F15D072B1012A0CD00E
:1004A000022A0AD0032A09D104E01AB1012A06D08F
:1004B000022A03D1C96AC90100D5012010BDC96A49
:1004C000A142FAD010BD002AF7D0012AF2D0022AA8
:1004D000F3D0032AF3D010BD30B50468256825F4A5
:1004E00080252560046863608368402B036803D01F
:1004F00099600068C26030BD9A600068C16030BD1C
:10050000704772B6FEE72DE9F0410446876D00F0B2
:10051000CDFA064694F835000025022806D0802042
:10052000606584F834500120BDE8F08120680168DE
:1005300021F0160101602068416921F080014161CC
:10054000206C08B9A06C20B12068016821F0080176
:1005500001602068016821F0010101600CE000F0F9
:10056000A5FA801B052807D920206065032084F8A0
:10057000350084F83450D7E720680068C007EED112
:1005800094F85C103F208840B860012084F8350062
:1005900084F834500020C7E790F83510022903D0C2
:1005A0008021416501207047052180F835100068E1
:1005B000016821F001010160002070472DE9F84336
:1005C00004464FF00009CDF8009063484FF41651EF
:1005D000A56D0068B0FBF1F72E6894F85C10082058
:1005E00000FA01F131420FD021680A6852070BD599
:1005F0000A6822F004020A6094F85C108840A8603F
:10060000606D40F00100606594F85C104FF00108E7
:1006100008FA01F0304208D021684969090604D57A
:10062000A860606D40F00200606594F85C100420E2
:100630008840304208D021680968890704D5A8603D
:10064000606D40F00400606594F85C1010208840F4
:10065000304218D021680968090714D5A8602068BD
:100660000168490304D50068000308D5A16C07E0C0
:100670000168C90503D4016821F008010160216CFB
:1006800009B12046884794F85C1020208840304209
:1006900031D021680968C9062DD5A86094F83500C5
:1006A00005282068016806D0490347D50068000383
:1006B0001DD4616C1CE021F01601016020684169C5
:1006C00021F080014161206C08B9A06C20B1206844
:1006D000016821F00801016094F85C103F20884017
:1006E000A86084F8358084F83490216D1FE0E16BB8
:1006F00009B120468847606D00282BD0606DC00787
:1007000014D0052084F835002068016821F001012B
:1007100001600098401C0090B84203D8206800682F
:10072000C007F6D184F8358084F83490E16C002954
:1007300010D001B02046BDE8F04308470168C90564
:10074000D5D4016821F01001016084F8358084F867
:100750003490CCE7BDE8F883280000202DE9F04173
:10076000044600F0A3F906465CB1022084F8350087
:10077000002584F834502068016821F001010160EF
:100780000DE00120BDE8F08100F090F9801B052804
:1007900005D920206065032084F83500F2E7206841
:1007A0000068C007F0D12268116820480140D4E9F0
:1007B00001031843D4E903363343184363691843EC
:1007C000A3691843E3691843236A18430843616A1D
:1007D000042903D1D4E90B1319430843106020689E
:1007E0004069666A20F0070130460E43012704285D
:1007F0000CD1A06A0643E06A40B12046FFF742FEF2
:1008000020B14020606584F83570BAE72068466101
:100810002046FFF723FE94F85C203F219140816041
:10082000656584F835700020ACE700003F8010F06B
:100830002DE9F0410446866D90F83400002501282A
:100840000DD0012084F8340094F835700020012F79
:1008500007D084F8340002252846BDE8F081022044
:10086000FBE7022784F8357060652046FFF734FE09
:1008700094F85C103F208840B0602068016841F027
:1008800016010160206C20B12068016841F0080168
:1008900001602068016841F001010160DCE70000AF
:1008A0002DE9F84FDFF8BCA1002201250AF1040B65
:1008B00003264FF00F090BF1040E00BF0B6805FA79
:1008C00002F42340A34270D10F7907F00307012FF0
:1008D00001D0022F16D187684FEA420806FA08FCB9
:1008E00027EA0C07D1F80CC00CFA08FC4CEA070CFC
:1008F000C0F808C04768A7430C79C4F300149440BB
:100900003C4344600C79E443A4070AD0C4684FEA2E
:10091000420C06FA0CF7BC438F6807FA0CF7274322
:10092000C7600C7904F00304022C12D1D40800EB48
:10093000840CDCF820405707FF0E09FA07F824EA78
:100940000804D1F8108008FA07F848EA0408CCF83F
:10095000208004684FEA420C06FA0CF7BC430F797A
:1009600007F0030707FA0CF7274307604C6814F4F5
:10097000403F70D03C4C276847F48047276024688C
:1009800022F0030704F480440094384C07EB040C75
:10099000DCF8084897074FEA177809FA08F7BC43CC
:1009A000334FB84202D1002724E054E0314FB8421F
:1009B00001D101271EE0304FB84201D1022719E0D2
:1009C0002E4FB84201D1032714E02D4FB84201D178
:1009D00004270FE02B4FB84201D105270AE02A4F28
:1009E000B84201D1062705E0284FB84201D10727B8
:1009F00000E0082707FA08F72743CCF80878DAF868
:100A000000405746D1F804C09C435FEACC3C00D577
:100A10001C433C60DBF800405F46D1F804C09C43B7
:100A20005FEA8C3C00D51C433C60DEF80040774612
:100A3000D1F804C09C435FEACC2C00D51C433C6039
:100A4000084F0C373C68D1F804C09C435FEA8C2CFB
:100A500000D51C433C60521C102AFFF42FAFBDE8A8
:100A6000F88F0000003C0140443802400030014053
:100A7000000002400004024000080240000C024056
:100A8000001002400014024000180240001C024006
:100A9000426921EA02030A4043EA02418161704748
:100AA0000AB1816170470904FBE7000001488068D2
:100AB000704700001C000020024881680278114441
:100AC000816070471C0000200B4810B5016841F49C
:100AD00000710160016841F480610160016841F4C6
:100AE00080710160032000F08DF8002000F006F80E
:100AF00000F03EF8002010BD003C024010B5014659
:100B000088B00022192000F05DF8192000F04CF8A0
:100B100013480024016841F001010160006805A943
:100B200000F001000690684600F018F900F046F960
:100B30000C494000B0FBF1F10C480B4A491E026021
:100B400040F2E732C0E90324C0E9011400F078FB69
:100B500010B1012008B010BD044800F0BDFBF9E75A
:100B60004438024040420F00000001406004002071
:100B70000C4882B0016841F480410160006800F4D3
:100B8000804000900748001F016841F080510160DB
:100B90000068002200F0805000900F21901E02B0EB
:100BA00000F010B844380240002809DB00F01F02B2
:100BB000012191404009800000F1E020C0F80011BF
:100BC00070470000F0B40E4B1B680C46C3F30223C1
:100BD000C3F10705042D00D90425191D072901D2E9
:100BE000002300E0DB1E012606FA05F1491E214024
:100BF00099409E40761E16403143F0BC01F0B4BCD3
:100C00000CED00E0064900F0070208684FF6FF030C
:100C1000184040EA0220034A104308607047000071
:100C20000CED00E00000FA052DE9F0470E46050046
:100C300065D0DFF81481D8F80000F7B200F00700A3
:100C4000B04207D288F80070D8F8000000F0070022
:100C5000B04254D128683D4C810712D5400703D5D6
:100C6000206840F4E05020602878000703D5206811
:100C700040F4604020602068A96820F0F00008433C
:100C800020602878C0072DD03049686808390128CD
:100C900012D0022813D0032811D00968890700292F
:100CA0002DDA216821F0030101432160FFF7FEFEE8
:100CB000814641F2883A0EE009688903EFE7096846
:100CC0008901ECE7FFF7F2FEA0EB0901514502D9DB
:100CD0000320BDE8F0872068696800F00C00B0EBE5
:100CE000810FEFD1D8F80010404601F00701B14262
:100CF00007D90770006800F00700B04201D001205A
:100D0000E7E72878400705D52068E96820F4E05037
:100D1000084320602878000706D52068296920F458
:100D2000604040EAC100206000F058F82168084A9D
:100D3000C1F30311515CC8400649086006480068C9
:100D4000FFF7DCFE0020C4E7003C02400838024008
:100D5000DC3B000828000020200000200F22026059
:100D60000C4A136803F003034360136803F0F003B5
:100D70008360136803F4E053C36012684FF4E053D8
:100D800003EAD20202610448006800F0070008602C
:100D90007047000008380240003C02400448054902
:100DA00000680968044AC1F38221515CC840704759
:100DB0002800002008380240EC3B000804480549A0
:100DC00000680968044AC1F34231515CC840704769
:100DD0002800002008380240EC3B0008154810B5F8
:100DE000006810F00C02144813D01449042A0FD0E4
:100DF000082A0ED10F4C241F2268236802F03F02FC
:100E00005B0207D52068C0F38810A0FB010106E053
:100E1000084610BD2168C1F38811A1FB0001002321
:100E2000FFF730FA2168C1F30141491C4900B0FBCA
:100E3000F1F010BD083802400024F40040787D0134
:100E40002DE9F84F04006ED02078DFF84C93C007EE
:100E5000A9F104054AD009F104000168C1F3810138
:100E6000012908D00068C0F3810002280AD1D9F80E
:100E70000000400206D52868800337D56068002846
:100E8000E1D033E06068B0F5803F10D0B0F5A02F1E
:100E9000286810D020F480302860286820F4802052
:100EA00028606068A8B1FFF701FE06460DE02868DB
:100EB00040F48030F4E740F480202860F7E700BF7A
:100EC000FFF7F4FD801B642873D828688003F7D5EA
:100ED0000CE0FFF7EBFD064605E000BFFFF7E6FD7F
:100EE000801B6428F0D828688003F7D42078DFF8C6
:100EF000AC8280074FF0000A3ED5A748001D01686C
:100F000011F00C0F08D00068C0F3810002280BD14B
:100F1000D9F80000400207D42868800716D5E06899
:100F2000012800D112E033E1E068B8B10120C8F82F
:100F30000000FFF7BBFD064605E000BFFFF7B6FD6A
:100F4000801B0228C0D828688007F7D52868216947
:100F500020F0F80040EAC10028600DE0C8F800A0C9
:100F6000FFF7A4FD064604E0FFF7A0FD801B022862
:100F70001FD828688007F7D42078000722D5864F2D
:100F800087486169703771B101210160FFF78EFDFB
:100F9000064604E0FFF78AFD801B022809D838685E
:100FA0008007F7D50EE0C0F800A0FFF77FFD0646EA
:100FB00005E082E0FFF77AFD801B02287DD83868C3
:100FC0008007F7D42078400768D5DFF8CCB1002738
:100FD0000BF13C0BDBF80000C0000BD4DBF8001079
:100FE00041F08051CBF80010DBF80000012700F041
:100FF000805000906B4E3068C00510D4306840F4CB
:1010000080703060FFF752FD009005E0FFF74EFD65
:101010000099401A022850D83068C005F6D55E4EB7
:10102000A0686C3601280FD00528306810D020F059
:1010300001003060306820F004003060A068B8B172
:10104000FFF734FD00900FE0306840F00100F4E756
:1010500040F004003060F7E7FFF728FD0099411ADF
:1010600041F28830814266D830688007F4D50EE0BE
:10107000FFF71CFD009007E0FFF718FD0099411AEB
:1010800041F28830814256D830688007F4D42FB1BD
:10109000DBF8001021F08051CBF80010A069C8B334
:1010A0003D49091D0968C1F3810102294AD002287E
:1010B000504607D0C8F8600000E03CE0FFF7F6FCBF
:1010C00004463BE04746C8F86000FFF7EFFC0646E1
:1010D00005E000BFFFF7EAFC801B02282BD8286838
:1010E0008001F7D4D4E907010843A16A2E4A4908D0
:1010F00002EB0141626A41EA8211084394F82C1024
:1011000040EA0161C9F8001001203866FFF7CEFC03
:10111000044606E03EE000BFFFF7C8FC001B0228C3
:1011200009D828688001F7D534E000BFFFF7BEFC7E
:10113000001B022802D90320BDE8F88F286880012F
:10114000F4D427E00128F7D0D9F80000E26900F4D0
:10115000800191421CD1226A00F03F01914217D1D7
:1011600047F6C071626A0140B1EB821F10D1A26ADA
:101170004FF0FF3300F4403103EB5202B1EB024F6A
:1011800006D194F82C1000F07060B0EB016F01D024
:101190000120D1E70020CFE7043802400000474299
:1011A000800E4742007000400000FFFF704770470C
:1011B00070B590F83C20012A32D0012480F83C40E0
:1011C000022280F83D2003685A689D6822F070066C
:1011D0000A6832435A60134B02689A4214D0B2F143
:1011E000804F11D0104B9A420ED0104B9A420BD028
:1011F0000F4B9A4208D00F4B9A4205D00E4B9A42A1
:1012000002D00E4B9A4204D1496825F0800319435D
:10121000916080F83D40002180F83C10084670BD88
:10122000022070BD000001400004004000080040A2
:10123000000C004000040140004001400018004044
:1012400010B5040003D094F83D0010B107E0012070
:1012500010BD002084F83C00204600F01FF802205A
:1012600084F83D00211D206800F0CCFE012084F8A8
:10127000460084F83E0084F83F0084F8400084F87B
:10128000410084F8420084F8430084F8440084F864
:10129000450084F83D00002010BD000008B500683E
:1012A0000B49884212D10B48016841F010010160DE
:1012B0000068002200F01000009005213620FFF7A2
:1012C00081FCBDE808403620FFF76EBC08BD000079
:1012D000001000404038024090F83D10012901D034
:1012E00001207047022180F83D100168CA6842F071
:1012F0000102CA6000681149884214D0B0F1804FE1
:1013000011D00F4988420ED00E4988420BD00E49A9
:10131000884208D00D49884205D00D49884202D044
:101320000C49884204D1816801F00701062903D0E5
:10133000016841F001010160002070470000014098
:101340000004004000080040000C00400004014080
:101350000040014000180040704770B50446006826
:1013600001694FF00005C943890715D4C168C94315
:10137000890711D4E91E0161012020772068806966
:101380008007204602D0FFF7E7FF04E000F098F85E
:10139000204600F096F8257720680169C94349077F
:1013A00017D4C168C943490713D46FF00401016120
:1013B000022020772068806910F4407F204602D008
:1013C000FFF7CAFF04E000F07BF8204600F079F850
:1013D000257720680169C943090716D4C168C94344
:1013E000090712D46FF008010161042020772068FA
:1013F000C0698007204602D0FFF7AEFF04E000F08E
:101400005FF8204600F05DF8257720680169C94340
:10141000C90617D4C168C943C90613D46FF01001B7
:101420000161082020772068C06910F4407F2046C1
:1014300002D0FFF791FF04E000F042F8204600F0F0
:1014400040F8257720680169C943C90708D1C168F8
:10145000C943C90704D1891E0161204600F032F852
:1014600020680169C943090609D4C168C94309064E
:1014700005D46FF0800101612046FFF797FE2068D8
:101480000169C943490609D4C168C943490605D45D
:101490006FF040010161204600F02CF820680169DE
:1014A000C94389060BD4C168C943890607D46FF0C4
:1014B000200101612046BDE87040FFF778BE70BD95
:1014C0007047704710B5044600680749884201D14B
:1014D000FFF7F2FA05492068884203D10448016801
:1014E000491C016010BD00000000014000100040D8
:1014F000000000207047704710B50446006840693E
:1015000094F83D10C0F3C010212911D180B120689A
:10151000143050E8001F21F0800140E80012002A3A
:10152000F5D1606B08B1FEF7EEFF204600F096FEA5
:101530002068406994F83E10C0F38010222911D130
:1015400080B12068143050E8001F21F0400140E8CD
:101550000012002AF5D1A06B08B1FEF7D4FF204697
:1015600000F055FE002010BD70470000F8B501687E
:1015700004460868CA684B6910F00F0F4FF0000569
:1015800059D003F0010602F49077374365D0C107C4
:1015900005D0D10503D5216C41F00101216441073B
:1015A00005D5D90703D0216C41F0020121648107E0
:1015B00005D5D90703D0216C41F00401216401074E
:1015C00007D502F02001314303D0216C41F008011E
:1015D0002164216C00293AD0800604D5900602D5FA
:1015E000204600F049FE20684069216CC0F380105D
:1015F000090700D460B3204600F009FE2068406966
:10160000400621D52068143050E8001F21F0400129
:1016100040E80012002AF5D1A06BA8B16C49016521
:10162000A06BFEF7B9FF002811D0A06B016D01B0CF
:10163000BDE8F040084783060FD593060DD5204638
:10164000BDE8F84000F018BE2046FFF78DFFF8BD5A
:101650002046FFF789FF2564F8BD266B2023012E65
:1016600079D1C60677D5D60675D508684868009042
:101670004869400640D5A16B086840680004000C2A
:10168000EAD0A28D8242E7D9E085C869B0F5807FB3
:101690002DD020680C3050E8001F21F4807140E804
:1016A0000012002AF5D12068143050E8001F21F004
:1016B000010140E80012002AF5D12068143050E8FA
:1016C000001F21F0400140E80012002AF5D184F803
:1016D0003E30256320680C3050E8001F21F01001D7
:1016E00040E80012002AF5D1A06BFEF70CFFA08D98
:1016F000E18D401A81B229E0A08DE18D401A81B2BE
:10170000E08D0028A8D00029A6D020680C3050E831
:10171000002F22F4907240E80026002EF5D12068B8
:10172000143050E8002F22F0010240E80026002E7D
:10173000F5D184F83E30256320680C3050E8002F46
:1017400022F0100240E80023002BF5D12046FFF7DD
:10175000D2FEF8BDFFE705062BD5150629D594F86E
:101760003D002128F5D1A068B0F5805F01D1206946
:10177000B0B1206A411C2162216800784860E08C89
:10178000401E0004000CE084E3D12068C16821F011
:101790008001C1602068C16841F04001C160D8E7A4
:1017A000206A0088C0F308004860206A801C20621C
:1017B000E5E74006CDD55006CBD5CA68204622F0D5
:1017C0004002CA6084F83D3000F008F9C1E700002B
:1017D000CD20000870B5040004D094F83D00002529
:1017E00010B106E0012070BD84F83C50204600F0A6
:1017F00023F8242084F83D002068C16821F40051BA
:10180000C160204600F098FD2068016921F49041F4
:1018100001612068416921F02A0141612068C168A5
:1018200041F40051C1602564202084F83D0084F813
:101830003E00002070BD00002DE9F04186B0064654
:1018400014216846FEF768FD30493068884259D156
:101850002F480024016841F010010160006800F089
:10186000100005902A481438016841F00101016018
:101870000068694600F0010005904FF4C0600090D8
:101880000220CDE9010403200390072004902148A1
:10189000FFF706F8214D20484FF000672860C5E9A2
:1018A00001744FF48068C5E903486C61AC61EC6178
:1018B0002C6228466C62FEF751FF08B1FEF721FE4C
:1018C000B563AE63154D144860357830E5E802071E
:1018D0004020A5E81101114845F814496030AC6179
:1018E000EC612C626C62FEF739FF08B1FEF709FE6D
:1018F0007563002206212520AE63FFF763F92520DA
:10190000FFF752F906B0BDE8F08100000010014079
:10191000443802400000024040640240A00300201E
:1019200090F83E30202B0ED159B152B190F83C3096
:10193000012B08D0012380F83C300023036300F022
:1019400081BD01207047022070477047704700003A
:1019500070B5044690F83D00202836D191B38AB383
:1019600094F83C00012830D0012084F83C0021622A
:10197000A284E28400252564212084F83D00636B65
:101980001348D863636B13481864636B1248D864B8
:10199000606B134605652668606B321DFEF748FFD5
:1019A00021686FF04000086084F83C5020681430D3
:1019B00050E8001F41F0800140E80012002AF5D1F4
:1019C000002070BDFFE70120FBE70220F9E70000DF
:1019D000C321000805220008DD200008202180F82E
:1019E0003D1070477047FEE703480069C00501D409
:1019F00001207047002070470020024010B5FFF71B
:101A0000F3FF20B100F006F808B1012010BD00205E
:101A100010BD000003480068800401D40120704715
:101A2000002070471008024003480069000501D4F7
:101A300001207047002070470020024003480068E2
:101A4000400701D40120704700207047101C02405D
:101A500003480068000701D4012070470020704748
:101A6000101C024003480068000501D401207047A3
:101A7000002070471014024003480068000601D49B
:101A8000012070470020704710180240034800688A
:101A9000000401D40120704700207047101C024050
:101AA00010B5FFF7A1FF20B1FFF7B4FF08B1012087
:101AB00010BD002010BD00000D4808B5016841F4BC
:101AC000800101600068002200F480000090012184
:101AD0003A20FFF777F83A20FFF766F80022022154
:101AE0004620FFF76FF8BDE808404620FFF75CB8D6
:101AF0003038024010B59CB001F046FE1A4C206010
:101B000078B31AA000F00CFD1C221D496846FEF7B0
:101B1000EAFB0021684601F001F8194960601C22C7
:101B20001C3107A8FEF7DFFB002107A800F0F6FF35
:101B30001349A0601C2238310EA8FEF7D4FB002107
:101B40000EA800F0EBFF0E49E0601C22543115A8EE
:101B5000FEF7C9FB002115A800F0E0FF20611CB0D2
:101B600010BDFFE707A0CDE704000020CAC2BCFEFD
:101B7000B1EAD6BED7E9B4B4BDA8B3C9B9A60A00C4
:101B8000643B0008CAC2BCFEB1EAD6BED7E9B4B411
:101B9000BDA8CAA7B0DC0A0070B586B0142168469B
:101BA000FEF7BAFB28480024016841F48071016007
:101BB000016801F480710591016841F00401016040
:101BC000016801F004010591016841F02001016004
:101BD000016801F020010591016841F08001016078
:101BE000016801F080010591016841F00101016087
:101BF0000068164E00F00100059001228021304659
:101C0000FEF74EFF4FF4106001258DE83100694664
:101C10000F48FEF745FE68038DE8310069460D4820
:101C2000FEF73EFE80200090CDE901546946304623
:101C30000394FEF735FE0C208DE831006946064816
:101C4000FEF72EFE06B070BD303802400014024090
:101C50000020024000080240001C02401CB5002485
:101C60000E4800940C49019401604721C0E9011419
:101C700063218461C160FFF7E3FA08B1FEF741FC1C
:101C80000094694605480194FFF792FA002801D0B4
:101C9000FEF737FC1CBD00000010004000030020D0
:101CA00010B5144C12480C2120604FF4E1306060F4
:101CB0000020A060E060C4E90401A061E06120466A
:101CC000FFF788FD08B1FEF71CFC2068C16841F0F1
:101CD0001001C1602068C16841F04001C160054940
:101CE0001422BDE8104014390248FFF719BE000065
:101CF000001001405C030020FEE7FEE700250C4ECB
:101D00000C4C307801280FD121780BA000F008FC92
:101D100022780A490A48FFF71BFE25703570142205
:101D200006490748FFF7FCFD142000F0EBFEE8E74A
:101D3000190000201800002025643A004803002004
:101D40005C030020044C80212046FEF7A1FEC82041
:101D500000F0D8FEF7E700000014024000F046FE55
:101D60000A2000F0CFFEF9E7A6B0294C00F0D8FD1C
:101D7000002848D0072827D004DC012807D00428F1
:101D800041D11AE00A2828D00D283CD132E021A008
:101D900000F0C6FB2CA000F0C3FB684601F050FB2E
:101DA000694635A000F0BCFB35A000F0B9FB6846E1
:101DB00001F0F4FA694630A00CE00121206801F03E
:101DC000F1FC014638A005E00221206801F0EAFCA0
:101DD000014639A000F0A4FB15E0606830B13AA0DC
:101DE00000F09EFB606801F02FFC0CE03EA000F0CC
:101DF00097FB08E060680028F8D040A000F090FB56
:101E0000606801F0ABFB142000F07CFEAEE7000040
:101E1000040000203D3D3D3D3D3D3D3D3D3D3D3DC2
:101E20003D3D3D3D3D3D3D3D3D3D3D3D3D3D3D3DE2
:101E30003D3D3D3D3D3D3D3D3D3D3D3D3D3D3D3DD2
:101E40003D3D3D3D3D0D0A00C8CECEF1C3FB2020F7
:101E50002020202020C8CECEF1D7B4CCAC20D3C5D2
:101E6000CFC8BCB62020CAA3D3E0D5BB20C8CECEF5
:101E7000F1D0F2BAC50D0A0025730D0A000000006A
:101E8000C8CECEF1C3FB20202020202020D4CBD0F0
:101E9000D0BCC6CAFD202020202020202020CAB986
:101EA000D3C3C2CA0D0A00004B32BCFCB0B4CFC2CF
:101EB00025640D0A000000004B33BCFCB0B4CFC257
:101EC00025640D0A00000000555020B0B4CFC2A315
:101ED000ACB9D2C6F0C8CECEF120765461736B4C4B
:101EE00045440D0A00000000CEDEC8CECEF12076BB
:101EF0005461736B4C45440D0A000000444F574E2B
:101F000020B0B4CFC2A3ACBBD6B8B4C8CECEF120FB
:101F1000765461736B4C45440D0A000010B5502097
:101F200080F31188BFF34F8FBFF36F8F01F052FD25
:101F300018B104494FF080500860002080F31188E8
:101F400010BD000004ED00E030B593B030216846CC
:101F5000FEF7E2F914210CA8FEF7DEF91D48002572
:101F6000016841F080510160006800F080501190DC
:101F70001948016841F4804101600068022400F4BE
:101F8000804011900120039010200490009406944A
:101F90000820CDE90750A820CDE9090404200B90C2
:101FA0006846FEF74DFF08B172B6FEE70CA90F2098
:101FB00081E831004FF4A0500F904FF48050109002
:101FC00005210CA8FEF730FE002801D072B6FEE70E
:101FD00013B030BD40380240007000400248016834
:101FE00041F470010160704788ED00E00148FFF79F
:101FF000B4B90000600400200148FFF7AEB900004A
:1020000000030020F0B50268254C264D264E274FD0
:10201000274B4FF0804CA04209D0604507D0A84222
:1020200005D0B04203D0B84201D0984204D122F08A
:10203000700E4A6842EA0E02A0421BD0604519D0D9
:10204000A84217D0B04215D0B84213D0984211D050
:10205000184DA8420ED0184DA8420BD0174DA842DB
:1020600008D0174DA84205D0164DA84202D0164DF3
:10207000A84203D122F44075CA682A434D6922F070
:1020800080022A4302608A68C2620A688262A042B1
:1020900001D0984201D10969016301214161F0BD7C
:1020A000000001400004004000080040000C004017
:1020B000000401400040014000440140004801404C
:1020C00000180040001C00400020004010B5806B4C
:1020D0000021C185C184FFF747FA10BD70B5846B3C
:1020E0002068406994F83D10C0F3C01000252129F4
:1020F00004D118B1E584204600F0B0F820684069AA
:1021000094F83E10C0F38010222904D118B1E5855F
:10211000204600F07CF8206C40F01000206420463F
:10212000FFF722FA70BD10B50146806B0968096897
:10213000C9052FD40021C18501680C3151E8002F59
:1021400022F4807241E80023002BF5D1016814319C
:1021500051E8002F22F0010241E80023002BF5D1C5
:102160000168143151E8002F22F0400241E80023B9
:10217000002BF5D1202180F83E10016B012909D1F7
:1021800001680C3151E8002F22F0100241E80023D1
:10219000002BF5D1016B012902D0FFF7D6FB10BD52
:1021A000818DFFF7A8F910BD10B5806B016B012977
:1021B00002D0FFF7CBFB10BD818D4908FFF79BF9DB
:1021C00010BD10B50146806B09680968C90516D4B1
:1021D0000021C1840168143151E8002F22F08002EF
:1021E00041E80023002BF5D101680C3151E8002FA4
:1021F00042F0400241E80023002BF5D110BDFFF76B
:10220000EDFB10BD10B5806BFFF7ECFB10BD016856
:102210000C3151E8002F22F4907241E80023002B8A
:10222000F5D10168143151E8002F22F0010241E894
:102230000023002BF5D1016B012909D101680C3174
:1022400051E8002F22F0100241E80023002BF5D1C5
:10225000202180F83E1000210163704701680C3195
:1022600051E8002F22F0C00241E80023002BF5D1F5
:10227000202180F83D10704708B590F83E102229C3
:1022800001D0022008BD82684FF480539A4201D1E8
:10229000016921B1816A9A421BD04AB10AE0026801
:1022A000816A5268C2F308020A80816A891C08E0C8
:1022B000026972B10268526802F07F020A70816A94
:1022C000491C8162C18D491E0904090CC18503D0D6
:1022D00019E002685268F1E70168CA6822F020023A
:1022E000CA600168CA6822F48072CA6001684A69DB
:1022F00022F001024A61202180F83E10016B012981
:1023000003D0FFF722FB002008BD00210163016814
:102310000C3151E8002F22F0100241E80023002B7D
:10232000F5D101680A68D20602D50A6849680091A9
:10233000818DFFF7E0F8E6E770B5044600680169B3
:10234000E26821F44051114301612169A068E2690A
:1023500008436169114308432168CA6849F20C6364
:102360009A430243CA6020684169A26921F440711E
:102370001143416131492068884202D03049884286
:1023800002D1FEF71BFD01E0FEF708FDE269002324
:10239000192164253226B2F5004F626828D0A0FBCF
:1023A0000101930F9200FDF76DFF0146B0FBF5F0C0
:1023B0006FF01802504301EB800006EB0010B0FBF9
:1023C000F5F000F0F002B1FBF5F002EB0012B1FB0A
:1023D000F5F06FF01803584301EB800006EB001096
:1023E000B0FBF5F000F00F0021681044886070BD6C
:1023F000A0FB010192185B41FDF744FF0146B0FBD1
:10240000F5F00201B1FBF5F06FF01803584301EB52
:10241000800006EBC000B0FBF5F000F0F80002EB26
:102420004002B1FBF5F0584301EB800006EBC00021
:10243000B0FBF5F000F00700D6E700000010014007
:102440000014014038B58162828500251346044698
:102450000564222084F83E00A26B1B48D063A26B67
:102460001A481064A26B1A48D064A06B0A4605652E
:102470002168A06B091DFEF7DBF920680168406840
:10248000009084F83C5020680C3050E8001F41F464
:10249000807140E80012002AF5D12068143050E81D
:1024A000001F41F0010140E80012002AF5D1206828
:1024B000143050E8001F41F0400140E80012002AAB
:1024C000F5D1002038BD000027210008A92100080F
:1024D000DD2000080D4808B500680168C943C90639
:1024E0000FD40168406800900848FFF705F80848D5
:1024F000006840680749C0F11400087006490120CF
:102500000870BDE808400148FFF730B85C030020C0
:10251000A00300201800002019000020FEE70000A2
:102520000FB4054B10B503A9044A029800F03CF81B
:1025300010BC5DF814FB00009D2A00089C000020E0
:102540000FB4084B10B504A902AA039800F02CF8A8
:10255000044602A9002000F087F9204610BC5DF86F
:1025600014FB0000692800080907090E002804DB95
:1025700000F1E02080F80014704700F00F0000F137
:10258000E02080F8141D704702E008C8121F08C13F
:10259000002AFAD170477047002001E001C1121FE4
:1025A000002AFBD1704700002DE9FF4F8DB09B46FC
:1025B0000F460446002606E025280BD05A460F9900
:1025C0009047641C761C20780028F5D111B0304665
:1025D000BDE8F08F0025A8460122984900E0054398
:1025E00014F8013F203B02FA03F00842F7D12078AB
:1025F0002E2817D114F8010F45F004052A280ED013
:102600006FF02F022078A0F1300109290AD808EBD9
:10261000880102EB410100EB0108641CF2E757F866
:10262000048B641C20786C280DD004DC4C2812D05C
:102630006A2811D104E074280DD07A280CD10AE060
:1026400045F4001507E0617845F48015814202D118
:10265000641C05F58015641C2078692844D008DCCA
:102660000028B3D0582867D063280FD0642808D139
:102670003AE0702865D0732812D075285AD078288F
:102680005AD05A460F999047761CD5E017F8040B9C
:102690008DF8000000208DF80100E946012003E0DC
:1026A00057F8049B4FF0FF3069074FF0000501D445
:1026B0000AE06D1C45450DDA8542FADB19F8051074
:1026C0000029F6D106E06D1C8542FCDB19F80510E7
:1026D0000029F8D12E4404E019F8010B5A460F994D
:1026E00090476D1EF8D2A7E00A200021CDE908012D
:1026F000C5F3025002280CD001CFC117021E71F1A0
:1027000000020CDA0023D0EB030063EB01012D2261
:1027100008E0FF1D27F00707F7E80201EEE72A05AA
:1027200004D52B228DF8282001223CE0EA073AD07C
:102730002022F7E70A2000E010200021CDE908015F
:1027400007E01020002145F00405CDE908014FF015
:102750000808C5F30250022810D001CF00214FF025
:10276000000A2A0720D52278702A0DD0DDE908C397
:102770008CF0100C5CEA030C0CD015E0FF1D27F068
:102780000707F7E80201EAE740228DF828204FF01A
:10279000010A0CE050EA010306D030238DF82830FE
:1027A0008DF82920022292462278582A04D024A2A9
:1027B0000DF120090B9209E026A2F9E7DDE90823D3
:1027C000FDF760FD0B9B9B5C09F8013D50EA01029F
:1027D000F4D1ADEB090020300890680701D44FF028
:1027E00001080899884503DD0898A8EB000000E07F
:1027F00000208046002506E00AA85A46405D0F9951
:1028000090476D1C761C5545F6DB04E030205A4697
:102810000F999047761CB8F10001A8F10108F5DC8A
:1028200005E019F8010B5A460F999047761C089954
:10283000481E08900029F4DC641CC4E60928010045
:102840003031323334353637383961626364656626
:1028500000000000303132333435363738394142E8
:1028600043444546000000000A68531C0B6010708A
:102870007047000070B50646284800EB0614206833
:102880008047052100250028207906EB460331D03A
:10289000052801D2217170BD0A2802D2401C207186
:1028A00070BDA07A06EB4606761C20B90120A07206
:1028B000F0B200F0A5F821890029F1D0E088884223
:1028C00008D2401C80B2E08021898842E8D1DB1C1C
:1028D000D8B20BE0E07A0028E2D0207B401CC0B2E6
:1028E0002073E17A8842DBD32573F0B2BDE87040F3
:1028F00000F086B8052801D921710BE010B1401E07
:10290000207107E0A07A012804D19B1CA572D8B2DF
:1029100000F076F8E580257370BD00009841002036
:1029200007498A7AC87A824201D100207047885CC0
:10293000521CD2B28A720A2AF8D300228A727047D5
:102940003842002030B51E48002164238172C172D4
:102950000173A0380A46022500EB0214521C2381A1
:102960002571A172E172D2B221730A2AF4D30387CE
:10297000052180F83B10A0F8483080F84B10A0F8F3
:10298000583080F85B10A0F8683080F86B100D4963
:1029900040F82C1B0C4940F81C1C0C4940F80C1C3E
:1029A0000B4941600B4941610B4941620B4941634D
:1029B0000B4941640B4941650B49416630BD00003C
:1029C00038420020E9190008151A0008291A0008E1
:1029D0003D1A0008511A0008651A0008791A000803
:1029E0008D1A0008A11A0008FD19000810B500246E
:1029F0002046FFF73FFF641CE4B20A2CF8D310BD59
:102A00000549CA7A8854C87A401CC0B2C8720A28DC
:102A100001D30020C87270473842002001490020CD
:102A200008607047000000202DE9F041040006D046
:102A3000184E306884420AD10020BDE8F081502051
:102A400080F31188BFF34F8FBFF36F8FFEE700F065
:102A5000C5FB6569F76B366C00F0E0FBBD4201D049
:102A6000B54201D10220E8E70B48854208D1A06AAF
:102A70000028F7D194F85C000128F3D00320DCE7AC
:102A800005481438854202D00DB10120D5E7042055
:102A9000D3E700002C0000208405002013B5064871
:102AA00000680168C9434906FBD40122694602480F
:102AB000FEF74EFF00981CBD5C0300200148006833
:102AC0007047000000000020FDF7FEFFFFF73CFA12
:102AD000FFF762F8FEF7F0FFFFF7E2F8FFF7BEF846
:102AE0000448FEF7F9FBFFF72DFFFFF703F800F0AE
:102AF00010F8FEE70003002001460020842900D0E2
:102B0000C81C704710B500B9012000F0DFFB0020A1
:102B100010BD10B500F060FD002010BD7FB50D4662
:102B200004464169B0F9080081B1A16971B1FFF7AC
:102B3000E3FFD4E905128DE80700D4E900102B4625
:102B4000226900F01CFF039004B070BDFFF7D4FFB2
:102B500003A9CDE90001208A2B4682B2D4E90010F6
:102B600000F0E0FE012801D00020EDE70398EBE73C
:102B70002DE9F041184C0F460546E6682068001D17
:102B800000F086FA38B9206890F82C1001208840AF
:102B9000216981432161681C07D137B12168BDE8F3
:102BA000F0410E48091D00F00DBB20683544B542C8
:102BB0004560216805D2206CBDE8F041091D00F098
:102BC000E9BAE06B091D00F0E5FAA06A854200D27F
:102BD000A562BDE8F08100002C00002084050020E3
:102BE0002DE9F041054600F0F9FA2E4CA068401C92
:102BF000A06020682C4F10B1606940B32DE02560C3
:102C0000A068012829D1002606EB860007EB80008A
:102C100000F0B2FA761C072EF6D323488C3000F071
:102C2000ABFA2148A03000F0A7FA1F48B43000F0FA
:102C3000A3FA1D48C83000F09FFA1B48DC3000F0B2
:102C40009BFA19488C30E0631430206405E020685A
:102C5000E96AC06A884200D82560606A401C6062E8
:102C60006864E96A0120226988401043206101EB11
:102C7000810007EB8000291D00F0A4FA00F0CEFAD5
:102C8000606900280CD02068E96AC06A884207D2CF
:102C900006494FF080500860BFF34F8FBFF36F8F2E
:102CA000BDE8F0812C000020A804002004ED00E025
:102CB00010B5044690F85D0058B101280CD00228E8
:102CC0000FD0502080F31188BFF34F8FBFF36F8F69
:102CD000FEE7206B00F0B6FA2046BDE8104000F099
:102CE000B1BA10BD10484FF47051420706D0C01D54
:102CF0000D4920F00700411AC1F570510B4A00231D
:102D00000144C2E900030839183A21F007011160B3
:102D10004B600B600B1AC0E9001393604FF000404A
:102D20005360506170470000980500208800002023
:102D3000144E154CA6F1C8074FF08058DFF84C90A0
:102D400012E000BF00F04AFAF068C568281D00F0E4
:102D50009FF9A068401EA0606068401E606000F09F
:102D60005DFA2846FFF7A4FF60680028EAD13868BA
:102D70000128F9D9C9F80080BFF34F8FBFF36F8FD7
:102D8000F2E70000700500202C00002004ED00E0B8
:102D90002DE9F05F8846DDE90B94154683469100E6
:102DA0009A460A9EA522206BFDF7AFFA6FF0030149
:102DB000206B01EB8501084420F00707780707D056
:102DC000502080F31188BFF34F8FBFF36F8FFEE762
:102DD0000025B8F1000F0FD05FF00000221818F89E
:102DE000001082F8341018F8001011B1401C10289F
:102DF000F4D384F8435001E084F83450072E00D314
:102E00000626E662C4E91365201D00F0C0F904F14E
:102E1000180000F0BCF92461C6F107006462A061EB
:102E20006565A56584F85C5052465946384600F001
:102E300019F92060B9F1000F01D0C9F80040BDE8D0
:102E4000F09F000030B5114900E011460A68824247
:102E5000FBD34B685C18844203D140681844486037
:102E6000084643681C18944209D1084C183C246851
:102E7000A24209D052681A4442600A68126802608D
:102E8000814200D0086030BD0460F9E7880000206E
:102E90002DE9F0478146086892460C46002600B3AB
:102EA000606804F1080540686060A84201D141688B
:102EB00061606068D0F80C80606840686060A8421B
:102EC00001D141686160606806EBC60109EB8101D0
:102ED000C76853460122384600F01EFA761C474563
:102EE000EAD13046BDE8F0870648C16B096829B1D0
:102EF000C16BC968C9684968816270474FF0FF318A
:102F0000FAE700002C00002008484068401C4FF001
:102F1000500080F3118804D0BFF34F8FBFF36F8F41
:102F2000FEE7BFF34F8FBFF36F8FFEE790000020E7
:102F3000002150B10A4B42699A420FD1806AA3F135
:102F4000280290420AD040B108E0502080F3118856
:102F5000BFF34F8FBFF36F8FFEE701210846704725
:102F60008405002010B50446FDF7E8F92046FDF77A
:102F7000DEF9202101E02154401C0F28FBD3002161
:102F80002154204410BD00002DE9F04105460027E2
:102F900000F0B8FB324E306808B9FFF7A3FE706945
:102FA00005424ED1C5B3083568070ED005F00700BD
:102FB000C0F108000544680707D0502080F311884D
:102FC000BFF34F8FBFF36F8FFEE72DB3706885425D
:102FD00037D82348183001460C6801E020460C46DB
:102FE0006168A94202D221680029F7D131688C4278
:102FF00027D007682168016060680837411B1029E5
:103000000FD96019420708D0502080F31188BFF310
:103010004F8FBFF36F8FFEE713E041606560FFF7EE
:1030200011FF61687068401A7060B268904200D207
:10303000B060706901430020C4E90001F068401CE1
:10304000F06000F02DFD780707D0502080F3118844
:10305000BFF34F8FBFF36F8FFEE73846BDE8F081B7
:103060007000002010B5031F4FF080741C601B1F00
:1030700021F001011960191F044B0B6014390A601B
:10308000091F6FF0020244380A6010BD092F0008C2
:10309000D0E9013201699A60D0E901235A604A6897
:1030A000824201D182684A60002202610868401EA3
:1030B00008600868704700002DE9F04717460A4687
:1030C00005460024072600F01DFBDFF89080D8F8A5
:1030D000080082423CD3DFF88890761E06EB86011A
:1030E00004EBC40009EB810105EB80000122FFF72E
:1030F000CFFE0444002EF0D104EBC40005EB8000A9
:1031000002224646D8F83C10FFF7C2FE044404EB06
:10311000C40005EB80000222316CFFF7B9FE0444C5
:103120000F4904EBC40005EB80000422C831FFF70F
:10313000AFFE04440A4904EBC40005EB80000322FF
:10314000DC31FFF7A5FE044417B1FFF7B7FC386088
:1031500000F0A6FC2046BDE8F08700002C0000200F
:10316000A8040020034B036003F160000860802086
:1031700010607047A000002000F108014FF0FF32FE
:10318000C0E90112C16001610021016070470021A6
:103190000161704730B50B685A1C02D000F108027B
:1031A00002E0026904E02246546825689D42FAD98B
:1031B00053684B6099608A60516008610168491CDE
:1031C000016030BD42684A6093688B6093685960C3
:1031D000916008610168491C01607047502080F3CC
:1031E0001188BFF34F8FBFF36F8F0A494868401CA7
:1031F000486001280CD10848006810F0FF0F07D084
:10320000502080F31188BFF34F8FBFF36F8FFEE71D
:10321000704700009000002004ED00E00849486875
:1032200028B1401E486001D180F3118870475020BA
:1032300080F31188BFF34F8FBFF36F8FFEE700005D
:103240009000002070B500282AD0164DA0F1080487
:1032500060686969084207D1502080F31188BFF384
:103260004F8FBFF36F8FFEE722683AB1502080F393
:103270001188BFF34F8FBFF36F8FFEE78843606005
:1032800000F040FA60686968084468602046FFF70B
:10329000D9FD2869401C2861BDE8704000F000BCE1
:1032A00070BD0000700000204FF0E020002101619F
:1032B000816105494FF47A720968B1FBF2F1491E48
:1032C00041610721016170472800002010B502000C
:1032D00014D00F48006B38B1502080F31188BFF331
:1032E0004F8FBFF36F8FFEE700F00CFA00211046FE
:1032F000FFF73EFC00F0D4FB002807D105494FF052
:1033000080500860BFF34F8FBFF36F8F10BD000078
:103310002C00002004ED00E02DE9F0410C461E4990
:103320001646B8B14FEA000505F13400C4E9005073
:10333000E86A2061286BE061686CA060E86C6061FD
:10334000686D0027A061052B12D00868854203D163
:10335000277311E00D68E7E72373032B0CD100F00E
:10336000D1F9A86A08B10220207300F099FB03E0AC
:103370002846FFF759FB20735EB10021286B01E05E
:10338000401C491C0278A52AFAD088082084BDE890
:10339000F0812784FBE700002C0000202DE9F84392
:1033A0000021804601701F488468806800EBC000DF
:1033B0008000FFF7E9FD060031D06A462146FFF79D
:1033C0007BFE074600986421B0FBF1F0009018B333
:1033D00000241FE004EBC40006EB80050099A869F7
:1033E000B0FBF1F940466968FFF7BCFD8046AA6969
:1033F000B9F1000005D003460BA14046FFF7A0F845
:1034000003E00CA14046FFF79BF84046FCF78FFF16
:103410008044641CBC42DDD33046FFF713FFBDE897
:10342000F88300002C000020092575090925752561
:10343000250D0A0009257509093C3125250D0A00CD
:103440002DE9FC470021814601702348846880688B
:1034500000EBC0008000FFF797FD060039D0002286
:103460002146FFF729FE0746002423E004EBC400B1
:1034700006EB8005287B052829D2DFE800F003054C
:1034800022242600582000E05220804648466968E1
:10349000FFF768FD8146A968288CCDE90001424606
:1034A0000EA148462B69FFF74BF84846FCF73FFF53
:1034B0008144641CBC42D9D33046BDE8FC47FFF7C9
:1034C000C1BE4220E1E75320DFE74420DDE70020D2
:1034D000DBE7BDE8FC8700002C000020092563091C
:1034E00025750925750925750D0A000070B5194E59
:1034F000326BFAB141F000410160C46814B3FFF7C8
:10350000C7FD201DFFF7C4FDE16A0125326905FAF8
:1035100001F01043306101EB81000F4901EB8000A5
:10352000211DFFF74FFEE06A3168C96A884200D961
:10353000F56170BD502080F31188BFF34F8FBFF34A
:103540006F8FFEE7502080F31188BFF34F8FBFF3DA
:103550006F8FFEE72C000020A804002070B5040047
:103560002BD01A4D286884422FD0FFF737FE204613
:10357000FFF7DEFCE8B1201DFFF78AFDE06A0121BC
:103580002A69814011432961114900EB800001EB58
:103590008000211DFFF716FEE06A2968C96A88428B
:1035A00007D30C494FF080500860BFF34F8FBFF333
:1035B0006F8FBDE87040FFF731BE502080F3118857
:1035C000BFF34F8FBFF36F8FFEE770BD2C0000205D
:1035D000A804002004ED00E010B586B00024039498
:1035E00005AA04A903A80494FFF7BCFDDDE90301C3
:1035F0000094CDE9011000230FA11148059A00F0B5
:10360000BEF910490028C86213D0502080F31188F9
:10361000BFF34F8FBFF36F8F4FF0FF3088620120F1
:103620004861CC60FFF7FAF906B0BDE8104000F041
:10363000FFB806B010BD000049444C450000000032
:10364000312D00082C00002070B50446FFF7C6FDA0
:10365000294D04B92C68201DFFF71AFD58B9E06AFE
:10366000264A00EB800152F8211021B90121814046
:10367000286988432861A06A18B104F11800FFF78F
:1036800007FD1E48211DDC30FFF79CFD94F85C000F
:103690000026012801D184F85C60FFF7BFFD68694E
:1036A00028B1FFF79BFDFFF71FFCFFF7B7FD286868
:1036B000844213D1686990B1286B38B1502080F3EF
:1036C0001188BFF34F8FBFF36F8FFEE70C494FF0A8
:1036D00080500860BFF34F8FBFF36F8F70BD0748F6
:1036E000DC300068A968884201D12E6070BDBDE859
:1036F000704000F00FB800002C000020A80400204B
:1037000004ED00E00248016B491C016370470000B2
:103710002C00002010B51A4C206B10B10120E06184
:1037200010BD0020E061FFF7C9F9A063626B904211
:1037300004D92168821A4B6D1A444A656063206976
:103740001049B0FA80F0C0F11F0000EB800051F882
:1037500020206AB101EB800000F10802416849684D
:103760004160914201D149684160C868206010BD44
:10377000502080F31188BFF34F8FBFF36F8FFEE7A8
:103780002C000020A804002070B52020FFF7FCFBCF
:10379000040005D00025201D2560FFF7EDFC2577EE
:1037A000204670BD2DE9F0410027884604000AD06C
:1037B0005FEA18600FD0502080F31188BFF34F8F5D
:1037C000BFF36F8FFEE7502080F31188BFF34F8F58
:1037D000BFF36F8FFEE7261D04F10C05FFF792FF84
:1037E0002168F06841EA0801216017E0D0E900167D
:1037F00001F07F425301236821F07F4102D40B4244
:1038000003D10AE031EA030307D1D20100D50F4307
:10381000216841F00071FFF769FE3046A842E5D10A
:103820002068B843206000F03BF92068BDE8F081D3
:103830001CB537480168374A914207D1502080F3C0
:103840001188BFF34F8FBFF36F8FFEE700683149D8
:10385000491E884207D1502080F31188BFF34F8F53
:10386000BFF36F8FFEE72C4908780190FF200870A6
:1038700008788DF800009DF800009DF8002000F009
:10388000F000904207D0502080F31188BFF34F8F93
:10389000BFF36F8FFEE79DF80000204C00F0500052
:1038A00020700720A06005E09DF8002052008DF8F0
:1038B0000020401E9DF800201206F5D4A0600328C9
:1038C00007D0502080F31188BFF34F8FBFF36F8F65
:1038D000FEE74FF44070A060019808700C4820305B
:1038E000016841F470010160016841F070410160BC
:1038F000FFF7DAFC00206060FCF776FC08480168FE
:1039000041F040410160FCF75BFC00201CBD000061
:1039100000ED00E071C20F4100E400E090000020E3
:1039200034EF00E02DE9FF5F8346DDE90E8799461D
:1039300016468A469000FFF727FB05001CD0602042
:10394000FFF722FB040014D00020256384F85D00FB
:10395000CDE90240CDE900874B46324651465846F4
:10396000FFF716FA2046FFF73BF9012004B0BDE847
:10397000F09F2846FFF766FC4FF0FF30F6E7F0B502
:1039800085B0DDE90B640A9DA6B1DCB16027009724
:103990002663022684F85D60002604AFCDE9024666
:1039A000CDE90057FFF7F4F92046FFF719F904981D
:1039B00005B0F0BD502080F31188BFF34F8FBFF3E7
:1039C0006F8FFEE7502080F31188BFF34F8FBFF356
:1039D0006F8FFEE72DE9F0412F4C0026206B28B1B8
:1039E000A069401CA0613046BDE8F081E5686D1C0F
:1039F000E56013D1E06B006838B1502080F3118886
:103A0000BFF34F8FBFF36F8FFEE7E06B216CE16375
:103A10002064206A401C2062FFF766FAA06ADFF883
:103A20007C80854209D3E06B0068A0B1E06BC06880
:103A3000C7687868854211D2A0622068C06A00EB2E
:103A4000800158F82100012800D90126E0690028EA
:103A5000C9D00126C7E74FF0FF30EDE7381DFFF76B
:103A600017FBB86A18B107F11800FFF711FBF96AE4
:103A70000120226988401043206101EB810108EB9D
:103A80008100391DFFF79EFBF86A2168C96A8842E8
:103A9000C9D30126C7E700002C000020A80400209D
:103AA0002DE9F0472C4D00242746286B38B1FFF74D
:103AB00095FB286B401E2863286B40B146E05020E0
:103AC00080F31188BFF34F8FBFF36F8FFEE7A968B4
:103AD000224E0120D1B3A6F1B40980463068E8B186
:103AE000F068C46804F11800FFF7D2FA201DFFF750
:103AF000CFFAE06A2A6908FA00F11143296100EB64
:103B0000800109EB8100211DFFF75CFBE06A296859
:103B1000C96A8842E2D3C5F81C80DFE70CB1FFF721
:103B2000E3F9AC6944B14646FFF754FF00B1EE61DA
:103B3000641EF9D10020A861E86938B1084901275D
:103B400038070860BFF34F8FBFF36F8FFFF766FB37
:103B50003846BDE8F08700002C0000205C050020FE
:103B600004ED00E0F43B0008451D0008FFFF0000E5
:103B700000000000800000000000000000000000C5
:103B8000003C0008FD1C0008FEFF000000000000D3
:103B9000800000000000000000000000F83B00086A
:103BA000691D000800000000000000008000000007
:103BB0000000000000000000083C00085D1D000837
:103BC0000100000000000000800000000000000074
:103BD000000000000006101600061016000000008D
:103BE00000000000010203040607080900000000AD
:103BF000010203044C4544005573657249460000B8
:103C00004D736750726F000053746172740000004E
:103C1000303C000800000020A000000088250008BB
:103C2000D03C0008A0000020A8450000982500080E
:103C30000000000000000000000000000000000084
:103C40000000000000000000000000000100000073
:103C500010000000000000000024F400000000003C
:103C60000000000000000000000000000000000054
:103C70000000000000000000000000000000000044
:103C80000000000000000000000000000000000034
:103C90000000000000000000000000000000000024
:103CA0000000000000000000000000000000000014
:103CB0000000000000000000000000000000000004
:103CC00000000000AAAAAAAA00000000000000004C
:040000050800018965
:00000001FF
