:020000040800F2
:10000000B84E002061020008AB12000887100008FB
:10001000A9120008910300089917000800000000C9
:10002000000000000000000000000000A101000826
:100030009303000800000000FD010008811400087F
:100040007B0200087B0200087B0200087B0200089C
:100050007B0200087B0200087B0200087B0200088C
:100060007B0200087B0200087B0200087B0200087C
:100070007B0200087B0200087B0200087B0200086C
:100080007B0200087B0200087B0200087B0200085C
:100090007B0200087B0200087B0200087B0200084C
:1000A0007B020008411500087B0200087B02000863
:1000B0007B0200087B0200087B0200087B0200082C
:1000C0007B0200087B0200087B0200087B0200081C
:1000D0007B0200087B0200087B0200087B0200080C
:1000E0007B0200087B0200087B0200087B020008FC
:1000F0007B0200087B0200087B0200087B020008EC
:100100007B0200087B0200087B0200087B020008DB
:100110007B0200087B0200087B0200087B020008CB
:100120007B0200087B0200087B0200087B020008BB
:100130007B0200087B0200087B0200087B020008AB
:100140007B0200087B0200087B0200087B0200089B
:100150007B0200087B0200087B0200087B0200088B
:100160007B0200087B0200087B0200087B0200087B
:100170007B0200087B0200087B02000800000000F0
:100180007B0200087B020008DFF810D000F0EEF8D8
:1001900000480047891C0008AFF30080B84E0020DB
:1001A0002C4B19680868B0E8F04F80F30988BFF35A
:1001B0006F8F4FF0000080F311887047000000003F
:1001C00008480068006880F308884FF0000080F35A
:1001D000148862B661B6BFF34F8FBFF36F8F00DF35
:1001E00000BF00BF08ED00E0DFF80C00016841F43B
:1001F00070010160704700BF88ED00E0EFF30980F7
:10020000BFF36F8F134B1A681EF0100F08BF20ED5D
:10021000108A20E9F04F106009B44FF0500080F3CD
:100220001188BFF34F8FBFF36F8F02F0E3FC4FF0E5
:10023000000080F3118809BC19680868B0E8F04F25
:100240001EF0100F08BFB0EC108A80F30988BFF3CE
:100250006F8F704720000020EFF30580704700008B
:100260000648804706480047FEE7FEE7FEE7FEE750
:10027000FEE7FEE7FEE7FEE7FEE7FEE731150008D2
:10028000890100082DE9F05F0546002092469B4653
:1002900088460646814640241BE02846414647469C
:1002A000224600F053F853465A46C01A914110D3E3
:1002B00011461846224600F03AF82D1A67EB01085D
:1002C0004F4622460120002100F031F817EB0009CB
:1002D0004E41201EA4F10104DFDC484631462A4687
:1002E0004346BDE8F09F40EA01039B0703D009E0C5
:1002F00008C9121F08C0042AFAD203E011F8013B12
:1003000000F8013B521EF9D27047D2B201E000F86A
:10031000012B491EFBD270470022F6E710B51346A9
:100320000A4604461946FFF7F0FF204610BD202A72
:1003300004DB203A00FA02F1002070479140C2F13C
:10034000200320FA03F3194390407047202A04DB6E
:10035000203A21FA02F00021704721FA02F3D0403E
:10036000C2F120029140084319467047064C074DE0
:1003700006E0E06840F0010394E807009847103475
:10038000AC42F6D3FFF704FF1437000834370008F7
:10039000FEE7704772B6FEE72DE9F84FDFF8BCA123
:1003A000002201250AF1040B03264FF00F090BF17F
:1003B000040E00BF0B6805FA02F42340A34270D17B
:1003C0000F7907F00307012F01D0022F16D187689C
:1003D0004FEA420806FA08FC27EA0C07D1F80CC0DD
:1003E0000CFA08FC4CEA070CC0F808C04768A743A1
:1003F0000C79C4F3001494403C4344600C79E4430A
:10040000A4070AD0C4684FEA420C06FA0CF7BC43B2
:100410008F6807FA0CF72743C7600C7904F00304D0
:10042000022C12D1D40800EB840CDCF820405707D2
:10043000FF0E09FA07F824EA0804D1F8108008FA38
:1004400007F848EA0408CCF8208004684FEA420C18
:1004500006FA0CF7BC430F7907F0030707FA0CF70D
:10046000274307604C6814F4403F70D03C4C276829
:1004700047F480472760246822F0030704F480448F
:100480000094384C07EB040CDCF8084897074FEA57
:10049000177809FA08F7BC43334FB84202D1002756
:1004A00024E054E0314FB84201D101271EE0304F23
:1004B000B84201D1022719E02E4FB84201D10327DB
:1004C00014E02D4FB84201D104270FE02B4FB84262
:1004D00001D105270AE02A4FB84201D1062705E0DD
:1004E000284FB84201D1072700E0082707FA08F78C
:1004F0002743CCF80878DAF800405746D1F804C012
:100500009C435FEACC3C00D51C433C60DBF80040D8
:100510005F46D1F804C09C435FEA8C3C00D51C4385
:100520003C60DEF800407746D1F804C09C435FEAA7
:10053000CC2C00D51C433C60084F0C373C68D1F8EC
:1005400004C09C435FEA8C2C00D51C433C60521CC9
:10055000102AFFF42FAFBDE8F88F0000003C0140E7
:1005600044380240003001400000024000040240D4
:1005700000080240000C024000100240001402403B
:1005800000180240001C0240426921EA02030A40AE
:1005900043EA0241816170470AB1816170470904F1
:1005A000FBE7000001488068704700001000002051
:1005B0000248816802781144816070471000002071
:1005C0000B4810B5016841F400710160016841F405
:1005D00080610160016841F480710160032000F0D6
:1005E0008DF8002000F006F800F03EF8002010BD65
:1005F000003C024010B5014688B00022192000F0EE
:100600005DF8192000F04CF813480024016841F00F
:1006100001010160006805A900F00100069068462C
:1006200000F018F900F046F90C494000B0FBF1F178
:100630000C480B4A491E026040F2E732C0E903242D
:10064000C0E9011400F030FB10B1012008B010BD6A
:10065000044800F057FBF9E74438024040420F00DD
:1006600000000140E80000200C4882B0016841F41D
:1006700080410160006800F4804000900748001F3E
:10068000016841F0805101600068002200F0805054
:1006900000900F21901E02B000F010B844380240C4
:1006A000002809DB00F01F02012191404009800071
:1006B00000F1E020C0F8001170470000F0B40E4BCC
:1006C0001B680C46C3F30223C3F10705042D00D9B0
:1006D0000425191D072901D2002300E0DB1E012695
:1006E00006FA05F1491E214099409E40761E1640AB
:1006F0003143F0BC01F062B80CED00E0064900F0B7
:10070000070208684FF6FF03184040EA0220034A38
:1007100010430860704700000CED00E00000FA058F
:100720002DE9F0470E46050065D0DFF81481D8F8B2
:100730000000F7B200F00700B04207D288F800705E
:10074000D8F8000000F00700B04254D128683D4CB2
:10075000810712D5400703D5206840F4E05020609F
:100760002878000703D5206840F4604020602068A6
:10077000A96820F0F000084320602878C0072DD039
:10078000304968680839012812D0022813D003289C
:1007900011D00968890700292DDA216821F00301A9
:1007A00001432160FFF7FEFE814641F2883A0EE0E8
:1007B00009688903EFE709688901ECE7FFF7F2FEB2
:1007C000A0EB0901514502D90320BDE8F08720685C
:1007D000696800F00C00B0EB810FEFD1D8F8001081
:1007E000404601F00701B14207D90770006800F0E8
:1007F0000700B04201D00120E7E72878400705D57F
:100800002068E96820F4E050084320602878000759
:1008100006D52068296920F4604040EAC1002060C4
:1008200000F058F82168084AC1F30311515CC84030
:100830000649086006480068FFF7DCFE0020C4E7B0
:10084000003C024008380240E03600081C0000204E
:10085000140000200F2202600C4A136803F0030307
:100860004360136803F0F0038360136803F4E053FC
:10087000C36012684FF4E05303EAD20202610448F5
:10088000006800F007000860704700000838024068
:10089000003C02400448054900680968044AC1F365
:1008A0008221515CC84070471C000020083802407B
:1008B000F03600080448054900680968044AC1F395
:1008C0004231515CC84070471C000020083802408B
:1008D000F0360008154810B5006810F00C021448F6
:1008E00013D01449042A0FD0082A0ED10F4C241F0C
:1008F0002268236802F03F025B0207D52068C0F33C
:100900008810A0FB010106E0084610BD2168C1F374
:100910008811A1FB00010023FFF7B4FC2168C1F39B
:100920000141491C4900B0FBF1F010BD08380240FC
:100930000024F40040787D012DE9F84F04006ED0CA
:100940002078DFF84C93C007A9F104054AD009F1DB
:1009500004000168C1F38101012908D00068C0F3D7
:10096000810002280AD1D9F80000400206D5286883
:10097000800337D560680028E1D033E06068B0F5C7
:10098000803F10D0B0F5A02F286810D020F4803020
:100990002860286820F4802028606068A8B1FFF7EC
:1009A00001FE06460DE0286840F48030F4E740F48C
:1009B00080202860F7E700BFFFF7F4FD801B642864
:1009C00073D828688003F7D50CE0FFF7EBFD0646E7
:1009D00005E000BFFFF7E6FD801B6428F0D828681B
:1009E0008003F7D42078DFF8AC8280074FF0000A4C
:1009F0003ED5A748001D016811F00C0F08D0006813
:100A0000C0F3810002280BD1D9F80000400207D4BE
:100A10002868800716D5E068012800D112E033E18C
:100A2000E068B8B10120C8F80000FFF7BBFD06463A
:100A300005E000BFFFF7B6FD801B0228C0D828687C
:100A40008007F7D52868216920F0F80040EAC10046
:100A500028600DE0C8F800A0FFF7A4FD064604E0FA
:100A6000FFF7A0FD801B02281FD828688007F7D455
:100A70002078000722D5864F87486169703771B1A9
:100A800001210160FFF78EFD064604E0FFF78AFDB5
:100A9000801B022809D838688007F7D50EE0C0F817
:100AA00000A0FFF77FFD064605E082E0FFF77AFD34
:100AB000801B02287DD838688007F7D4207840074B
:100AC00068D5DFF8CCB100270BF13C0BDBF8000058
:100AD000C0000BD4DBF8001041F08051CBF80010BF
:100AE000DBF80000012700F0805000906B4E30686A
:100AF000C00510D4306840F480703060FFF752FDBC
:100B0000009005E0FFF74EFD0099401A022850D8EA
:100B10003068C005F6D55E4EA0686C3601280FD04F
:100B20000528306810D020F001003060306820F0D7
:100B300004003060A068B8B1FFF734FD00900FE00A
:100B4000306840F00100F4E740F004003060F7E75F
:100B5000FFF728FD0099411A41F28830814266D89A
:100B600030688007F4D50EE0FFF71CFD009007E029
:100B7000FFF718FD0099411A41F28830814256D89A
:100B800030688007F4D42FB1DBF8001021F08051D9
:100B9000CBF80010A069C8B33D49091D0968C1F32D
:100BA000810102294AD00228504607D0C8F86000C7
:100BB00000E03CE0FFF7F6FC04463BE04746C8F89F
:100BC0006000FFF7EFFC064605E000BFFFF7EAFC18
:100BD000801B02282BD828688001F7D4D4E90701AC
:100BE0000843A16A2E4A490802EB0141626A41EAC0
:100BF0008211084394F82C1040EA0161C9F80010F2
:100C000001203866FFF7CEFC044606E03EE000BF58
:100C1000FFF7C8FC001B022809D828688001F7D517
:100C200034E000BFFFF7BEFC001B022802D90320FE
:100C3000BDE8F88F28688001F4D427E00128F7D0B8
:100C4000D9F80000E26900F4800191421CD1226AC7
:100C500000F03F01914217D147F6C071626A01402E
:100C6000B1EB821F10D1A26A4FF0FF3300F4403184
:100C700003EB5202B1EB024F06D194F82C1000F0B6
:100C80007060B0EB016F01D00120D1E70020CFE709
:100C90000438024000004742800E47420070004086
:100CA0000000FFFF7047704710B5040003D094F8B0
:100CB0003D0010B107E0012010BD002084F83C0089
:100CC000204600F01EF8022084F83D00211D206817
:100CD00000F03CFC012084F8460084F83E0084F8D3
:100CE0003F0084F8400084F8410084F8420084F812
:100CF000430084F8440084F8450084F83D00002057
:100D000010BD704790F83D10012901D001207047B7
:100D1000022180F83D100168CA6842F00102CA60F1
:100D200000681149884214D0B0F1804F11D00F49AA
:100D300088420ED00E4988420BD00E49884208D016
:100D40000D49884205D00D49884202D00C4988429D
:100D500004D1816801F00701062903D0016841F040
:100D600001010160002070470000014000040040C4
:100D700000080040000C0040000401400040014019
:100D800000180040704770B50446006801694FF0D4
:100D90000005C943890715D4C168C943890711D41F
:100DA000E91E0161012020772068806980072046C4
:100DB00002D0FFF7E7FF04E000F098F8204600F0CB
:100DC00096F8257720680169C943490717D4C16897
:100DD000C943490713D46FF0040101610220207751
:100DE0002068806910F4407F204602D0FFF7CAFFD8
:100DF00004E000F07BF8204600F079F825772068C1
:100E00000169C943090716D4C168C943090712D447
:100E10006FF008010161042020772068C069800715
:100E2000204602D0FFF7AEFF04E000F05FF8204656
:100E300000F05DF8257720680169C943C90617D419
:100E4000C168C943C90613D46FF0100101610820BD
:100E500020772068C06910F4407F204602D0FFF759
:100E600091FF04E000F042F8204600F040F82577BA
:100E700020680169C943C90708D1C168C943C907C6
:100E800004D1891E0161204600F032F82068016912
:100E9000C943090609D4C168C943090605D46FF0DE
:100EA000800101612046FFF7FDFE20680169C9430A
:100EB000490609D4C168C943490605D46FF0400109
:100EC0000161204600F01EF820680169C9438906C7
:100ED0000BD4C168C943890607D46FF020010161B2
:100EE0002046BDE87040FFF7DEBE70BD704770471A
:100EF00000680349884201D1FFF75ABB70470000E0
:100F000000000140704770B5040004D094F83D0023
:100F1000002510B106E0012070BD84F83C50204649
:100F200000F022F8242084F83D002068C16821F4F4
:100F30000051C160204600F06DFB2068016921F47A
:100F4000904101612068416921F02A0141612068D6
:100F5000C16841F40051C1602564202084F83D003F
:100F600084F83E00002070BD10B586B00446142100
:100F70006846FFF7D1F914492068884221D1134807
:100F80000021026842F010020260006800F01000C8
:100F900005900E481438026842F0010202600068B1
:100FA00000F0010005904FF4C06000900220CDE9F0
:100FB0000101032003900720049069460448FFF7CD
:100FC000EBF906B010BD00000010014044380240AB
:100FD000000002402DE9F843044690F83D001F460A
:100FE00016460D4620284CD1C5B1BEB194F83C0040
:100FF000012846D0012084F83C004FF00008C4F8D6
:101000004080212084F83D00FFF7CCFAA684814679
:10101000E684A068B0F5805F03D004E00120BDE85D
:10102000F883206928B12E465FF0000584F83C80E3
:101030000EE00026FAE78021204600F071FBA0B9FF
:10104000AEB116F8010B21684860E08C401EE084C8
:10105000E08C4B464FF0000200970028EBD14FF098
:101060004001204600F05CFB30B10320D7E735F8A3
:10107000020BC0F30800E6E7202084F83D000020C2
:10108000CDE70220CBE7FEE703480069C00501D4A5
:1010900001207047002070470020024010B5FFF784
:1010A000F3FF20B100F006F808B1012010BD0020C8
:1010B00010BD000003480068800401D4012070477F
:1010C000002070471008024003480069000501D461
:1010D000012070470020704700200240034800684C
:1010E000400701D40120704700207047101C0240C7
:1010F00003480068000701D40120704700207047B2
:10110000101C024003480068000501D4012070470C
:10111000002070471014024003480068000601D404
:1011200001207047002070471018024003480068F3
:10113000000401D40120704700207047101C0240B9
:1011400010B5FFF7A1FF20B1FFF7B4FF08B10120F0
:1011500010BD002010BD000010B50E4A00210E4841
:1011600000F0DEFD0D4C0B4A0021206024320C48BB
:1011700000F0D6FD074A606048320021094800F0BF
:10118000CFFD044AA0606C320021074800F0C8FD82
:10119000E06010BD50360008B512000800000020C5
:1011A000AD120008D9120008CD12000870B586B043
:1011B00014216846FFF7B0F828480024016841F47C
:1011C00080710160016801F480710591016841F04E
:1011D00004010160016801F004010591016841F01A
:1011E00020010160016801F020010591016841F0D2
:1011F00080010160016801F080010591016841F002
:10120000010101600068164E00F001000590012206
:1012100080213046FFF7C0F94FF4106001258DE8BA
:10122000310069460F48FFF7B7F868038DE83100D1
:1012300069460D48FFF7B0F880200090CDE90154D1
:10124000694630460394FFF7A7F80C208DE831007B
:1012500069460648FFF7A0F806B070BD3038024076
:10126000001402400020024000080240001C02401E
:101270000C4810B50A4901604FF4E131416000218A
:1012800081600C22C160C0E904128161C161FFF775
:101290003AFE002803D0BDE81040FFF77BB810BD30
:1012A00000100140A4000020FEE7FEE7C82000F087
:1012B000FCFCFBE7044C80212046FFF765F9C820C1
:1012C00000F0F3FCF7E700000014024000F0B2FC6D
:1012D0000A2000F0EAFCF9E7254C00BF00F044FCCE
:1012E00000283FD007281CD004DC012807D00428A0
:1012F00038D10CE00A2824D00D2833D12AE01DA0D3
:1013000000F04CFA28A000F049FA30A00CE038A018
:1013100000F044FA2068002824D001F009FB0020E6
:101320000DE0206818B138A000F038FA1AE03CA0AF
:1013300000F034FA404A0021404800F0F1FC2060FF
:1013400010E0206890B13EA000F028FA206801F07B
:10135000FBFB07E0206848B13FA000F01FFA2068BF
:1013600001F070FB142000F0A0FCB7E740A0DBE721
:10137000000000203D3D3D3D3D3D3D3D3D3D3D3D71
:101380003D3D3D3D3D3D3D3D3D3D3D3D3D3D3D3D8D
:101390003D3D3D3D3D3D3D3D3D3D3D3D3D3D3D3D7D
:1013A0003D3D3D3D3D0D0A004E414D452020202054
:1013B000202053746174652050726920202053747A
:1013C000616374204E6F0D0A000000000D0A4E612B
:1013D0006D6520202020202020636F756E742020F2
:1013E00020202020202020726174650D0A0000005A
:1013F0004B322064656C65746520765461736B4C68
:1014000045440D0A00000000765461736B4C45445E
:1014100020E5B7B2E5AD98E59CA85C720A00000033
:101420004B332052656275696C6420765461736B2E
:101430004C45440D0A00000050360008B512000863
:1014400055502053757370656E6420765461736BCC
:101450004C45440D0A000000444F574E205265731E
:10146000756D6520765461736B4C45440D0A000020
:101470004E6F20765461736B4C45440D0A0000009A
:1014800010B54FF0E020006901F02CFF012803D0D7
:10149000BDE8104001F05ABC10BD000030B593B05B
:1014A00030216846FEF738FF14210CA8FEF734FF00
:1014B0001D480025016841F080510160006800F07E
:1014C000805011901948016841F480410160006822
:1014D000022400F480401190012003901020049019
:1014E000009406940820CDE90750A820CDE909040E
:1014F00004200B906846FFF71FFA08B172B6FEE7AA
:101500000CA90F2081E831004FF4A0500F904FF448
:101510008050109005210CA8FFF702F9002801D097
:1015200072B6FEE713B030BD403802400070004094
:101530000248016841F470010160704788ED00E0E5
:101540000148FFF720BC0000E8000020F0B5026869
:10155000254C264D264E274F274B4FF0804CA0425E
:1015600009D0604507D0A84205D0B04203D0B842A8
:1015700001D0984204D122F0700E4A6842EA0E026D
:10158000A0421BD0604519D0A84217D0B04215D058
:10159000B84213D0984211D0184DA8420ED0184D21
:1015A000A8420BD0174DA84208D0174DA84205D02D
:1015B000164DA84202D0164DA84203D122F4407520
:1015C000CA682A434D6922F080022A4302608A6871
:1015D000C2620A688262A04201D0984201D10969C0
:1015E000016301214161F0BD0000014000040040A1
:1015F00000080040000C0040000401400040014091
:10160000004401400048014000180040001C004018
:101610000020004070B5044600680169E26821F4CA
:101620004051114301612169A068E2690843616981
:10163000114308432168CA6849F20C639A43024384
:10164000CA6020684169A26921F440711143416177
:1016500031492068884202D03049884202D1FFF7E0
:1016600029F901E0FFF716F9E26900231921642541
:101670003226B2F5004F626828D0A0FB0101930F1B
:101680009200FEF7FFFD0146B0FBF5F06FF0180287
:10169000504301EB800006EB0010B0FBF5F000F0CA
:1016A000F002B1FBF5F002EB0012B1FBF5F06FF0C8
:1016B0001803584301EB800006EB0010B0FBF5F077
:1016C00000F00F0021681044886070BDA0FB01018C
:1016D00092185B41FEF7D6FD0146B0FBF5F0020122
:1016E000B1FBF5F06FF01803584301EB800006EBF7
:1016F000C000B0FBF5F000F0F80002EB4002B1FBD7
:10170000F5F0584301EB800006EBC000B0FBF5F0AC
:1017100000F00700D6E7000000100140001401406F
:101720002DE9F041984617460E460446069D27E0EF
:10173000681C25D02DB1FEF735FFA0EB0800A842AC
:101740001ED920680C3050E8001F21F4D07140E809
:101750000012002AF5D12068143050E8001F21F053
:10176000010140E80012002AF5D1202084F83D0054
:1017700084F83E00002084F83C000320BDE8F0819E
:101780002068006836EA000004D00020B842CFD0BC
:101790000020F3E70120F9E7FEE700000FB4054B56
:1017A00010B503A9044A029800F028F810BC5DF8AF
:1017B00014FB0000651C0008A00000200907090EAA
:1017C000002804DB00F1E02080F80014704700F0EE
:1017D0000F0000F1E02080F8141D704702E008C8F7
:1017E000121F08C1002AFAD170477047002001E09B
:1017F00001C1121F002AFBD1704700002DE9FF4FE5
:101800008DB09B460F460446002606E025280BD0E7
:101810005A460F999047641C761C20780028F5D111
:1018200011B03046BDE8F08F0025A8460122984946
:1018300000E0054314F8013F203B02FA03F00842A0
:10184000F7D120782E2817D114F8010F45F00405A0
:101850002A280ED06FF02F022078A0F1300109293C
:101860000AD808EB880102EB410100EB0108641C77
:10187000F2E757F8048B641C20786C280DD004DC48
:101880004C2812D06A2811D104E074280DD07A288F
:101890000CD10AE045F4001507E0617845F48015A5
:1018A000814202D1641C05F58015641C20786928EA
:1018B00044D008DC0028B3D0582867D063280FD064
:1018C000642808D13AE0702865D0732812D07528B2
:1018D0005AD078285AD05A460F999047761CD5E0AE
:1018E00017F8040B8DF8000000208DF80100E94680
:1018F000012003E057F8049B4FF0FF3069074FF0D9
:10190000000501D40AE06D1C45450DDA8542FADB7D
:1019100019F805100029F6D106E06D1C8542FCDBA4
:1019200019F805100029F8D12E4404E019F8010B2C
:101930005A460F9990476D1EF8D2A7E00A20002161
:10194000CDE90801C5F3025002280CD001CFC11720
:10195000021E71F100020CDA0023D0EB030063EBEE
:1019600001012D2208E0FF1D27F00707F7E802011B
:10197000EEE72A0504D52B228DF8282001223CE031
:10198000EA073AD02022F7E70A2000E010200021E1
:10199000CDE9080107E01020002145F00405CDE95C
:1019A00008014FF00808C5F30250022810D001CFFB
:1019B00000214FF0000A2A0720D52278702A0DD086
:1019C000DDE908C38CF0100C5CEA030C0CD015E0C8
:1019D000FF1D27F00707F7E80201EAE740228DF82C
:1019E00028204FF0010A0CE050EA010306D0302312
:1019F0008DF828308DF82920022292462278582A24
:101A000004D024A20DF120090B9209E026A2F9E7E7
:101A1000DDE90823FEF736FC0B9B9B5C09F8013DD2
:101A200050EA0102F4D1ADEB0900203008906807BC
:101A300001D44FF001080899884503DD0898A8EB08
:101A4000000000E000208046002506E00AA85A4673
:101A5000405D0F9990476D1C761C5545F6DB04E000
:101A600030205A460F999047761CB8F10001A8F132
:101A70000108F5DC05E019F8010B5A460F9990476B
:101A8000761C0899481E08900029F4DC641CC4E602
:101A90000928010030313233343536373839616244
:101AA0006364656600000000303132333435363708
:101AB00038394142434445460000000070B50646AF
:101AC000284800EB061420688047052100250028DF
:101AD000207906EB460331D0052801D2217170BD73
:101AE0000A2802D2401C207170BDA07A06EB46067F
:101AF000761C20B90120A072F0B200F0A5F821896F
:101B00000029F1D0E088884208D2401C80B2E080F1
:101B100021898842E8D1DB1CD8B20BE0E07A0028AA
:101B2000E2D0207B401CC0B22073E17A8842DBD334
:101B30002573F0B2BDE8704000F086B8052801D9E1
:101B400021710BE010B1401E207107E0A07A01283E
:101B500004D19B1CA572D8B200F076F8E5802573FD
:101B600070BD0000044A002007498A7AC87A824280
:101B700001D100207047885C521CD2B28A720A2AB6
:101B8000F8D300228A727047A44A002030B51E485C
:101B9000002164238172C1720173A0380A460225B4
:101BA00000EB0214521C23812571A172E172D2B2A2
:101BB00021730A2AF4D30387052180F83B10A0F88B
:101BC000483080F84B10A0F8583080F85B10A0F82F
:101BD000683080F86B100D4940F82C1B0C4940F818
:101BE0001C1C0C4940F80C1C0B4941600B4941611D
:101BF0000B4941620B4941630B4941640B49416503
:101C00000B49416630BD0000A44A0020891000083D
:101C1000B5100008C9100008DD100008F110000818
:101C200005110008191100082D11000841110008C4
:101C30009D10000810B500242046FFF73FFF641CEC
:101C4000E4B20A2CF8D310BD0549CA7A8854C87A80
:101C5000401CC0B2C8720A2801D30020C872704765
:101C6000A44A002013B50023012269460548FFF766
:101C7000B1F9044800680168C9434906FBD40098DB
:101C80001CBD0000A4000020FEF79AFCFFF706FC34
:101C9000FFF78CFAFFF7ECFAFFF778FF00F012F885
:101CA000FFF75AFA00F020F8FEE710B5EFF30581D0
:101CB00011B16FF0050403E0002408B100F012FE3A
:101CC000204610BDEFF3058010B16FF0050070479E
:101CD0000448016811B14FF0FF30704701210160E5
:101CE000002070477000002010B5EFF3058010B1A0
:101CF0006FF0050010BD08480168012902D04FF0BF
:101D0000FF3010BD054A002182F8141D0221016038
:101D100000F0D6FE002010BD700000200BE000E0B7
:101D20002DE9FF414FEA01034FF00005EFF3058174
:101D3000039549BB40B38027182100244AB3166895
:101D400006B1344696691EB13146761E382E02D24F
:101D50001679F60703D0002004B0BDE8F08156697B
:101D600006B1B708D2F808C0BCF1000F0DD0D56895
:101D70005C2D18D312693AB136B18DE806103A4697
:101D8000214601F084FA03900DE0D6685EB912692D
:101D90004AB903AACDE90012BAB2214601F04AFAC3
:101DA000012800D003950398D6E700002DE9F04103
:101DB000134C0F460546E6682068001D00F05EFCE7
:101DC000681C07D137B12168BDE8F0410D48091DF5
:101DD00000F0A4BC20683544B5424560216805D2B6
:101DE000A06BBDE8F041091D00F080BC606B091DCF
:101DF00000F07CFCA06A854200D2A562BDE8F081BB
:101E000020000020200600202DE9F041054600F0CA
:101E100091FC2D4CA068401CA06020682B4F10B195
:101E2000606930B32BE02560A068012827D1002627
:101E300006EB860007EB800000F04AFC761C382E8B
:101E4000F6D3234800F044FC2148143000F040FC55
:101E50001F48283000F03CFC1D483C3000F038FCA6
:101E60001B48503000F034FC194860631430A06304
:101E700005E02068E96AC06A884200D82560606A87
:101E8000401C60626864E86A2169884200D9206168
:101E900000EB800007EB8000291D00F03FFC00F004
:101EA00069FC606900280CD02068E96AC06A884231
:101EB00007D208494FF080500860BFF34F8FBFF33F
:101EC0006F8FBDE8F081000020000020700100202D
:101ED000D005002004ED00E038B500F02BFC104CDC
:101EE0002068C8B90F4800F0F3FB0E48143000F02A
:101EF000EFFB0C48E060143020610A4B0020F03BFF
:101F0000009003F1500210210A2000F035FF2060FC
:101F100010B105A100F0B0FCBDE8384000F02ABCCB
:101F20005C00002024070020546D72510000000066
:101F300030B4026C0B46002A0BD0C1681144C1605A
:101F40008468A14201D30168C16030BC1846FEF725
:101F5000CAB930BC70472DE9F041856B174604467D
:101F60000026026C82B1C7B1E068FEF7BCF9E168F7
:101F7000206C091AE1602268914202D2A168081A15
:101F8000E060022F16D017E02068A8B9A06801F021
:101F900021FA06460020A0600EE06068FEF7A3F973
:101FA000216C606808446060A168884204D320689E
:101FB000606001E005B16D1E6D1CA5633046BDE893
:101FC000F08110B5044690F8590058B101280CD0A2
:101FD00002280FD0502080F31188BFF34F8FBFF33A
:101FE0006F8FFEE7206B00F0D9FB2046BDE8104064
:101FF00000F0D4BB10BD000010484FF470514207F0
:1020000006D0C01D0D4920F00700411AC1F57051DE
:102010000B4A00230144C2E900030839183A21F0B1
:10202000070111604B600B600B1AC0E9001393604D
:102030004FF000405360506170470000040E0020D4
:102040008C000020144E154CA6F29C474FF080588F
:10205000DFF84C9012E000BF00F06CFBF068C56840
:10206000281D00F00BFBA068401EA0606068401EA9
:10207000606000F07FFB2846FFF7A3FF6068002840
:10208000EAD138680128F9D9C9F80080BFF34F8F29
:10209000BFF36F8FF2E700000C0600202000002045
:1020A00004ED00E070B51D46049C51B1C4F8002059
:1020B000C4E90F010121204600F092FE84F84C5043
:1020C00070BD2460F4E700002DE9F05F8846DDE98B
:1020D0000B941546834691009A460A9EA522206BD2
:1020E000FEF713F96FF00301206B01EB8501084443
:1020F00020F00707780707D0502080F31188BFF33E
:102100004F8FBFF36F8FFEE70025B8F1000F0FD0A0
:102110005FF00000221818F8001082F8341018F848
:10212000001011B1401C1028F4D384F8435001E092
:1021300084F83450382E00D33726E662C4E913659C
:10214000201D00F0D0FA04F1180000F0CCFA246150
:10215000C6F138006462A061656584F85850524643
:102160005946384600F074FA2060B9F1000F01D0EA
:10217000C9F80040BDE8F09F30B5114900E01146B4
:102180000A688242FBD34B685C18844203D14068E2
:1021900018444860084643681C18944209D1084C0A
:1021A000183C2468A24209D052681A4442600A6866
:1021B00012680260814200D0086030BD0460F9E717
:1021C0008C00002070B5002441600B4D00619142ED
:1021D00006D8D11A8269914206D2011D286907E00A
:1021E0009A4203D2994201D3012403E0011DE86819
:1021F00000F07CFA204670BD5C00002010B504465B
:1022000000F098FAA06B28B15FF0000400F0B2FA79
:10221000204610BD0124F9E730B589B03C4D6EE091
:102220000498002806DADDE90601059A904704982B
:10223000002864DB069C606910B1201D00F01EFAC6
:1022400003A800F0D7F8024604980A2857D2DFE81E
:1022500000F00505052D334A05052D3394F82800B7
:1022600040F0010084F828000599A069059B01440D
:102270002046FFF7A7FF68B3216A2046884794F8F5
:10228000280040073BD5002000900598A169002355
:1022900042181946204601F0A7F9D8B9502080F31A
:1022A0001188BFF34F8FBFF36F8FFEE714F8280F2D
:1022B00020F00100207022E094F8280040F0010096
:1022C00084F828000598A06128B18118134620469B
:1022D000FFF778FF13E0502080F31188BFF34F8F92
:1022E000BFF36F8FFEE794F82800810703D42046E0
:1022F00000F054FA03E020F0010084F828000022E6
:1023000004A9286800F0C0FE002889D109B030BDBA
:102310005C0000202DE9FC410F46054600F062FC00
:1023200001A800F067F80446019818B101F0CAF856
:10233000BDE8FC81254EAFB130690068D0B30027FD
:10234000291B3A46306800F0ABFA01F0BBF80028D0
:10235000EED11F494FF080500860BFF34F8FBFF39D
:102360006F8FE5E7A542EBD801F0ACF8F06827469F
:10237000C068C468201D00F081F994F82800410766
:1023800019D5A0692B4641193A462046FFF71AFF96
:10239000A8B100200346014600902A46204601F0DD
:1023A00023F960B9502080F31188BFF34F8FBFF33A
:1023B0006F8FFEE707E020F0010084F82800216A13
:1023C00020468847B4E70127BAE700005C000020F8
:1023D00004ED00E00648416B096829B1416BC9680A
:1023E000C9684968816270474FF0FF31FAE7000021
:1023F0002000002070B5054600F082FF064E04461E
:10240000B068844203D200F009F8012000E0002007
:1024100028602046B46070BD5C000020F8B5194DFE
:1024200020E0C068C4680668201D00F027F9216A12
:102430002046884794F82800400713D5A069304407
:10244000B04206D924616060211DE86800F04EF9B1
:1024500008E000200346014600903246204601F085
:10246000C3F838B1E86801680029DAD12969C5E9FB
:102470000310F8BD502080F31188BFF34F8FBFF3D6
:102480006F8FFEE75C00002008484068401C4FF05A
:10249000500080F3118804D0BFF34F8FBFF36F8FCC
:1024A000FEE7BFF34F8FBFF36F8FFEE7940000206E
:1024B000002150B10A4B42699A420FD1806AA3F1C0
:1024C000280290420AD040B108E0502080F31188E1
:1024D000BFF34F8FBFF36F8FFEE7012108467047B0
:1024E00020060020074CE068016841B1C068002167
:1024F000D0F80000FFF70EFFFFF78EFEF3E7012193
:102500000020F7E75C0000202DE9F041044600F0D0
:1025100011F994F9455004F1240609E0606A48B1C4
:10252000304600F097FF08B100F052FA6D1E6DB210
:10253000002DF3DC4FF0FF3684F8456000F01AF907
:1025400000F0F8F894F9445004F1100709E020690C
:1025500048B1384600F07EFF08B100F039FA6D1E30
:102560006DB2002DF3DC84F84460BDE8F04100F06A
:1025700001B900002DE9F0410546002700F032FBCB
:10258000324E306808B9FFF737FD706905424ED109
:10259000C5B3083568070ED005F00700C0F1080084
:1025A0000544680707D0502080F31188BFF34F8F90
:1025B000BFF36F8FFEE72DB37068854237D823488D
:1025C000183001460C6801E020460C466168A942BB
:1025D00002D221680029F7D131688C4227D00768E0
:1025E0002168016060680837411B10290FD9601904
:1025F000420708D0502080F31188BFF34F8FBFF3FC
:102600006F8FFEE713E041606560FFF7B5FD61681D
:102610007068401A7060B268904200D2B060706911
:1026200001430020C4E90001F068401CF06000F0A4
:1026300049FF780707D0502080F31188BFF34F8FF0
:10264000BFF36F8FFEE73846BDE8F08174000020CD
:1026500010B5031F4FF080741C601B1F21F0010197
:102660001960191F044B0B6014390A60091F6FF0C1
:10267000020244380A6010BD89240008D0E9013202
:1026800001699A60D0E901235A604A68824201D107
:1026900082684A60002202610868401E086008687B
:1026A00070470000034B036003F15C00086080206A
:1026B000106070474C070020044B036003F15C007E
:1026C00008604FF48070106070470000A809002077
:1026D00000F108014FF0FF32C0E90112C160016151
:1026E00000210160704700210161704730B50B681F
:1026F0005A1C02D000F1080202E0026904E02246FE
:10270000546825689D42FAD953684B6099608A6085
:10271000516008610168491C016030BD42684A602F
:1027200093688B6093685960916008610168491CE7
:1027300001607047502080F31188BFF34F8FBFF3C3
:102740006F8F0A494868401C486001280CD108482E
:10275000006810F0FF0F07D0502080F31188BFF3FE
:102760004F8FBFF36F8FFEE770470000940000208B
:1027700004ED00E00849486828B1401E486001D1D6
:1027800080F311887047502080F31188BFF34F8F7A
:10279000BFF36F8FFEE700009400002070B50028A3
:1027A0002AD0164DA0F1080460686969084207D173
:1027B000502080F31188BFF34F8FBFF36F8FFEE778
:1027C00022683AB1502080F31188BFF34F8FBFF3D6
:1027D0006F8FFEE78843606000F004FA6068696804
:1027E000084468602046FFF7C7FC2869401C286140
:1027F000BDE8704000F066BE70BD000074000020AF
:102800004FF0E02000210161816105494FF47A72A7
:102810000968B1FBF2F1491E41610721016170476E
:102820001C00002010B5FDF717FD114910280ED32C
:1028300000F1E02090F8F0030A78904207D250208F
:1028400080F31188BFF34F8FBFF36F8FFEE7094806
:102850000068896800F4E060884207D9502080F35E
:102860001188BFF34F8FBFF36F8FFEE710BD0000DD
:10287000940000200CED00E010B5084B002200BFD2
:1028800053F832401CB1521C082AF9D310BD43F84A
:10289000321003EBC201486010BD0000300100207F
:1028A00070B515460E460446FFF744FF94F94410F0
:1028B0000020491C01D184F8440094F94510491CBA
:1028C00001D184F84500FFF755FFA06B28B92A46CF
:1028D000314604F1240000F099F82046BDE870402C
:1028E000FFF712BE10B5020014D00F48006B38B1CC
:1028F000502080F31188BFF34F8FBFF36F8FFEE737
:1029000000F070F900211046FFF750FA00F0DAFDF0
:10291000002807D105494FF080500860BFF34F8F62
:10292000BFF36F8F10BD00002000002004ED00E019
:1029300070B50546FFF7FEFE1E4C05B92568281D3B
:10294000FFF79CFEA86A18B105F11800FFF796FE84
:10295000606A401C60622068854207D1291D1648C4
:10296000FFF7DCFE6068401C606007E0A068401E66
:10297000A0602846FFF725FBFFF72CFDFFF7FAFEC6
:102980006069002814D02068854211D1206B38B1CD
:10299000502080F31188BFF34F8FBFF36F8FFEE796
:1029A00006494FF080500860BFF34F8FBFF36F8F21
:1029B00070BD0000200000200C06002004ED00E0A7
:1029C00002490A6A0260C96841607047200000201D
:1029D00001490120C86170472000002010B50C4655
:1029E00050B1094909681831FFF780FE2046BDE85B
:1029F00010400121FFF7DAB9502080F31188BFF3AE
:102A00004F8FBFF36F8FFEE72000002070B5144694
:102A10000D4668B10A4909681831FFF77FFE0CB10D
:102A20004FF0FF3521462846BDE87040FFF7BEB99C
:102A3000502080F31188BFF34F8FBFF36F8FFEE7F5
:102A40002000002070B504002AD01A4D2868844266
:102A50002ED0FFF76FFE2046FFF72AFDE0B1201DC4
:102A6000FFF70CFEE06A2969884200D92861124903
:102A700000EB800001EB8000211DFFF74FFEE06AB4
:102A80002968C96A884207D30C494FF08050086012
:102A9000BFF34F8FBFF36F8FBDE87040FFF76ABE83
:102AA000502080F31188BFF34F8FBFF36F8FFEE785
:102AB00070BD0000200000207001002004ED00E047
:102AC00030B587B00024039405AA04A903A8049490
:102AD000FFF7E8FDDDE903010094CDE901100023D3
:102AE00015A11748059A00F0D2FB164D0028E862A0
:102AF0001FD000F049FD012809D0401C19D15020F9
:102B000080F31188BFF34F8FBFF36F8FFEE7502024
:102B100080F31188BFF34F8FBFF36F8F4FF0FF30FB
:102B2000A86201206861EC6007B0BDE8304000F0A9
:102B300093B807B030BD000049444C450000000088
:102B4000452000082000002070B50446FFF7F2FD84
:102B5000214D04B92C68201DFFF790FDA06A18B123
:102B600004F11800FFF78AFD211D1C48FFF7D6FD70
:102B700094F858000026012801D184F85860FFF726
:102B8000F9FD686928B1FFF7D5FDFFF723FCFFF7D2
:102B9000F1FD2868844213D1686990B1286B38B17F
:102BA000502080F31188BFF34F8FBFF36F8FFEE784
:102BB0000B494FF080500860BFF34F8FBFF36F8F0A
:102BC00070BD06480068A968884201D12E6070BDBA
:102BD000BDE8704000F00EB8200000202006002064
:102BE00004ED00E00248016B491C016370470000DE
:102BF00020000020164810B5016B11B10121C16100
:102C000010BD0021C1610169124A01E0B9B1491E3C
:102C100001EB810352F82330002BF7D001EB810345
:102C200002EB830202F1080453685B685360A3421D
:102C300001D15B685360DA680260016110BD502009
:102C400080F31188BFF34F8FBFF36F8FFEE7000053
:102C500020000020700100201CB537480168374A69
:102C6000914207D1502080F31188BFF34F8FBFF3FB
:102C70006F8FFEE700683149491E884207D1502016
:102C800080F31188BFF34F8FBFF36F8FFEE72C499E
:102C900008780190FF20087008788DF800009DF8F2
:102CA00000009DF8002000F0F000904207D0502076
:102CB00080F31188BFF34F8FBFF36F8FFEE79DF84E
:102CC0000000204C00F0500020700720A06005E0BC
:102CD0009DF8002052008DF80020401E9DF8002035
:102CE0001206F5D4A060032807D0502080F3118885
:102CF000BFF34F8FBFF36F8FFEE74FF44070A060BC
:102D0000019808700C482030016841F4700101609E
:102D1000016841F070410160FFF772FD00206060C2
:102D2000FDF762FA0848016841F040410160FDF793
:102D300047FA00201CBD000000ED00E071C20F4109
:102D400000E400E09400002034EF00E010B55020D3
:102D500080F31188BFF34F8FBFF36F8F00F0D6FA67
:102D600018B104494FF080500860002080F31188AA
:102D700010BD000004ED00E038B5049D18B153B15A
:102D8000CAB181B120E0502080F31188BFF34F8F8A
:102D9000BFF36F8FFEE7502080F31188BFF34F8F92
:102DA000BFF36F8FFEE7502080F31188BFF34F8F82
:102DB000BFF36F8FFEE739B1502080F31188BFF366
:102DC0004F8FBFF36F8FFEE750241C46012384F81A
:102DD00046302B460094FFF765F9204638BD0000C9
:102DE00070B50D46040025D0FFF7A4FCD4E90F20F0
:102DF000216802FB0011A1600021A16321686160CC
:102E00000A46D4E90F01401E00FB0121E160214682
:102E10004FF0FF3001F8440F487004F110008DB1FD
:102E2000FFF756FC04F12400FFF752FCFFF7A2FC69
:102E3000012070BD502080F31188BFF34F8FBFF386
:102E40006F8FFEE721690029F0D000F003FB002816
:102E5000ECD004494FF080500860BFF34F8FBFF3B0
:102E60006F8FE3E704ED00E02DE9FF4782B01D46D8
:102E70008A464FF00008040003D0BAF1000F08D0D2
:102E800011E0502080F31188BFF34F8FBFF36F8F95
:102E9000FEE7206C38B1502080F31188BFF34F8FCC
:102EA000BFF36F8FFEE7022D0AD1E06B012807D038
:102EB000502080F31188BFF34F8FBFF36F8FFEE771
:102EC00000F010FA3F4F4FF000094FF0805648B91C
:102ED000049838B1502080F31188BFF34F8FBFF3AF
:102EE0006F8FFEE7FFF726FCA06BE16B884207D3EC
:102EF000022D05D00498D0B1B8F1000F1AD01EE011
:102F00002A4651462046FFF726F8616A19B104F1B6
:102F1000240000F09FFA20B13E60BFF34F8FBFF353
:102F20006F8FFFF727FC012006B0BDE8F087FFF7A1
:102F300021FC22E06846FFF743FD4FF00108FFF750
:102F400019FCFFF74FFEFFF7F5FB94F94400401C16
:102F500001D184F8449094F94500401C01D184F8D3
:102F60004590FFF707FC04A9684600F029F930B145
:102F70002046FFF7C9FA00F0A5FA0020D4E7FFF7D2
:102F8000D9FBA06BE16B884213D1FFF7F3FB04F18F
:102F900010000499FFF722FD2046FFF7B5FA00F074
:102FA00091FA00289ED13E60BFF34F8FBFF36F8F21
:102FB00098E7FFF7DFFB2046FFF7A6FA00F082FA5A
:102FC00090E7000004ED00E02DE9F0471F46904631
:102FD0008946040003D0B9F1000F08D011E0502059
:102FE00080F31188BFF34F8FBFF36F8FFEE7206C24
:102FF00038B1502080F31188BFF34F8FBFF36F8F2C
:10300000FEE7022F0AD1E06B012807D0502080F3A1
:103010001188BFF34F8FBFF36F8FFEE7FFF702FCFE
:103020005020EFF3118680F31188BFF34F8FBFF369
:103030006F8FA06BE16B884206D3022F04D0002073
:1030400086F31188BDE8F08794F94550A06B3A46A5
:1030500049462046FEF77FFF681C04D06D1C84F8AB
:1030600045500120ECE7606A0028FAD004F1240002
:1030700000F0F0F90028F4D0B8F1000FF1D00121F0
:10308000C8F80010EDE700002DE9F747002683B0EF
:103090008A46040003D0BAF1000F08D011E0502096
:1030A00080F31188BFF34F8FBFF36F8FFEE7206C63
:1030B00038B1502080F31188BFF34F8FBFF36F8F6B
:1030C000FEE700F00FF9DFF8F4804FF000094FF051
:1030D000805748B9059838B1502080F31188BFF364
:1030E0004F8FBFF36F8FFEE7FFF724FBA56BC5B1D2
:1030F00051462046FEF71CFF6D1EA563206950B1A6
:1031000004F1100000F0A6F928B1C8F80070BFF370
:103110004F8FBFF36F8FFFF72DFB012006B0BDE887
:10312000F087059808B11EB106E0FFF723FB27E002
:103130006846FFF745FC0126FFF71CFBFFF752FD31
:10314000FFF7F8FA94F94400401C01D184F8449048
:1031500094F94500401C01D184F84590FFF70AFB23
:1031600005A9684600F02CF8002820460AD0FFF791
:10317000CBF900F0A7F92046FFF740F80028B3D0BC
:103180000020CBE7FFF73AF890B104F1240005994D
:10319000FFF724FC2046FFF7B7F900F093F9002869
:1031A000A2D1C8F80070BFF34F8FBFF36F8F9BE7BA
:1031B0002046FFF7A9F900F085F995E704ED00E056
:1031C0002DE9F0410C46050011D0C4B1FFF7B2FA69
:1031D000174BDA686E682068911B471C17D02F6860
:1031E0001B6A9F4219D0964217D8012410E0502044
:1031F00080F31188BFF34F8FBFF36F8FFEE750202E
:1032000080F31188BFF34F8FBFF36F8FFEE7002469
:10321000FFF7B0FA2046BDE8F081884205D9401A90
:1032200020602846FFF7CCFBF1E700202060DCE7B8
:10323000200000202DE9FF5F8346DDE90E879946D7
:1032400016468A469000FFF795F905001CD05C20D1
:10325000FFF790F9040014D00020256384F859008A
:10326000CDE90240CDE900874B46324651465846EB
:10327000FEF72AFF2046FEF7C7FD012004B0BDE897
:10328000F09F2846FFF78AFA4FF0FF30F6E7F0B5D7
:1032900085B0DDE90B640A9DA6B1DCB15C2700971F
:1032A0002663022684F85960002604AFCDE9024661
:1032B000CDE90057FEF708FF2046FEF7A5FD04986C
:1032C00005B0F0BD502080F31188BFF34F8FBFF3DE
:1032D0006F8FFEE7502080F31188BFF34F8FBFF34D
:1032E0006F8FFEE70548416919B1006B18B10020E6
:1032F0007047012070470220704700002000002026
:103300000148C06870470000200000202DE9F0410E
:103310002E4C0027206B28B1A069401CA0613846C4
:10332000BDE8F081E668761CE66013D1606B00684A
:1033300038B1502080F31188BFF34F8FBFF36F8FE8
:10334000FEE7606BA16B6163A063206A401C206292
:10335000FFF740F8A06ADFF87880864209D3606BF7
:103360000068A0B1606BC068C5686868864211D209
:10337000A0622068C06A00EB800158F82100012893
:1033800000D90127E0690028C9D00127C7E74FF01D
:10339000FF30EDE7281DFFF771F9A86A18B105F1B4
:1033A0001800FFF76BF9E86A2169884200D92061AB
:1033B00000EB800108EB8100291DFFF7AFF9E86AF7
:1033C0002168C96A8842CAD30127C8E720000020C3
:1033D0007001002070B504004FF0000133D01B4D88
:1033E0002868844207D0502080F31188BFF34F8FA4
:1033F000BFF36F8FFEE7206D38B1401E2065E36C90
:10340000E26A9A421FD040B11DE0502080F311883B
:10341000BFF34F8FBFF36F8FFEE7201DFFF72EF92D
:10342000E06CE062C0F13800A061E06A296988427E
:1034300000D92861064900EB800001EB8000211DC6
:10344000FFF76CF90121084670BD00002000002044
:103450007001002070B5C068C46854B104F1180050
:103460000646FFF70BF9144D286B50B1314613484F
:1034700015E0502080F31188BFF34F8FBFF36F8F9B
:10348000FEE7201DFFF7FAF8E06A2969884200D9B3
:1034900028610B4900EB800001EB8000211DFFF744
:1034A0003DF9E06A2968C96A884202D90120E861C9
:1034B00070BD002070BD000020000020F805002035
:1034C000700100202DE9F0472C4D00242746286B81
:1034D00038B1FFF72FF9286B401E2863286B40B1E5
:1034E00046E0502080F31188BFF34F8FBFF36F8FFA
:1034F000FEE7A968224E0120D1B3A6F59169804666
:103500003068E0B1F068C46804F11800FFF7B6F85D
:10351000201DFFF7B3F8E06A2969884200D92861C5
:1035200000EB800109EB8100211DFFF7F7F8E06A4D
:103530002968C96A8842E3D3C5F81C80E0E70CB16A
:10354000FEF748FFAC694CB14FEA0806FFF7DEFE14
:1035500000B1EE61641EF9D10020A861E86938B1BC
:103560000849012738070860BFF34F8FBFF36F8FFB
:10357000FFF700F93846BDE8F08700002000002082
:10358000F805002004ED00E010B586B0FEF7A4FCBD
:10359000114C2068B8B100200390049005AA04A93A
:1035A00003A8FFF789F8DDE9032102208DE8070071
:1035B00000230AA10B48059AFFF769FE606010B16D
:1035C00006B0012010BD502080F31188BFF34F8F4B
:1035D000BFF36F8FFEE700005C000020546D722087
:1035E00053766300E52400082DE9FF411E4613468B
:1035F00002000A9D4FF0000016D0144C2768002FDF
:103600000FD0CDE900130292062917DAFFF76AFE00
:1036100002284FF000030FD0002269462068FFF710
:1036200023FC04B0BDE8F081502080F31188BFF383
:103630004F8FBFF36F8FFEE72A46EEE70023324637
:1036400069463846FFF7C0FCEBE700005C0000204D
:10365000F836000800000000000000000000000034
:1036600000000000000200000A000000000000004E
:103670000000000004370008000000000000000007
:103680000000000000000000000200000D0000002B
:103690000000000000000000FC36000800000000F0
:1036A0000000000000000000000000000002000018
:1036B0000B00000000000000000000000C370008B4
:1036C00000000000000000000000000000000000FA
:1036D00000020000180000000000000000000000D0
:1036E00000000000000000000102030406070809B2
:1036F00000000000010203044C454400557365724C
:10370000494600004D736750726F00005374617238
:10371000740000003437000800000020A4000000FE
:10372000DC170008D8370008A4000020144E000061
:10373000EC1700080000000000000000000000007E
:103740000000000001000000100000000000000068
:103750000024F40000000000000000000000000051
:103760000000000000000000000000000000000059
:103770000000000000000000000000000000000049
:103780000000000000000000000000000000000039
:103790000000000000000000000000000000000029
:1037A0000000000000000000000000000000000019
:1037B0000000000000000000000000000000000009
:1037C000000000000000000000000000AAAAAAAA51
:0837D0000000000000000000F1
:040000050800018965
:00000001FF
