:020000040800F2
:100000005046002061020008271D0008051A00085C
:10001000251D0008B1030008AD2500080000000000
:10002000000000000000000000000000A101000826
:100030000105000800000000FD010008811F000804
:100040007B0200087B0200087B0200087B0200089C
:100050007B0200087B0200087B0200087B0200088C
:100060007B0200087B0200087B0200087B0200087C
:100070007B0200087B0200087B0200087B0200086C
:100080007B0200087B0200087B0200087B0200085C
:100090007B0200087B0200087B0200087B0200084C
:1000A0007B020008512000087B0200087B02000848
:1000B0007B0200087B0200087B0200087B0200082C
:1000C0007B0200087B0200087B0200087B0200081C
:1000D0007B020008652500087B0200087B020008FF
:1000E0007B0200087B0200087B0200087B020008FC
:1000F0007B0200087B0200087B0200087B020008EC
:100100007B0200087B0200087B0200087B020008DB
:100110007B0200087B0200085D2000087B020008CB
:100120007B0200087B020008B50300087B02000880
:100130007B0200087B0200087B0200087B020008AB
:100140007B0200087B0200087B0200087B0200089B
:100150007B0200087B020008C10300087B02000844
:100160007B0200087B0200087B0200087B0200087B
:100170007B0200087B0200087B02000800000000F0
:100180007B0200087B020008DFF810D000F0FEF8C8
:1001900000480047512B0008AFF300805046002074
:1001A0002C4B19680868B0E8F04F80F30988BFF35A
:1001B0006F8F4FF0000080F311887047000000003F
:1001C00008480068006880F308884FF0000080F35A
:1001D000148862B661B6BFF34F8FBFF36F8F00DF35
:1001E00000BF00BF08ED00E0DFF80C00016841F43B
:1001F00070010160704700BF88ED00E0EFF30980F7
:10020000BFF36F8F134B1A681EF0100F08BF20ED5D
:10021000108A20E9F04F106009B44FF0500080F3CD
:100220001188BFF34F8FBFF36F8F03F08FFB4FF039
:10023000000080F3118809BC19680868B0E8F04F25
:100240001EF0100F08BFB0EC108A80F30988BFF3CE
:100250006F8F704730000020EFF30580704700007B
:100260000648804706480047FEE7FEE7FEE7FEE750
:10027000FEE7FEE7FEE7FEE7FEE7FEE741200008B7
:10028000890100082DE9F05F0546002092469B4653
:1002900088460646814640241BE02846414647469C
:1002A000224600F063F853465A46C01A914110D3D3
:1002B00011461846224600F04AF82D1A67EB01084D
:1002C0004F4622460120002100F041F817EB0009BB
:1002D0004E41201EA4F10104DFDC484631462A4687
:1002E0004346BDE8F09F40EA01039B0703D009E0C5
:1002F00008C9121F08C0042AFAD203E011F8013B12
:1003000000F8013B521EF9D27047D2B201E000F86A
:10031000012B491EFBD270470022F6E710B51346A9
:100320000A4604461946FFF7F0FF204610BD421C5E
:1003300010F8011B0029FBD1801A7047034611F801
:10034000012B00F8012B002AF9D118467047202A0A
:1003500004DB203A00FA02F1002070479140C2F11C
:10036000200320FA03F3194390407047202A04DB4E
:10037000203A21FA02F00021704721FA02F3D0401E
:10038000C2F120029140084319467047064C074DC0
:1003900006E0E06840F0010394E807009847103455
:1003A000AC42F6D3FFF7F4FEBC430008DC43000880
:1003B000FEE70000014800F001B90000A40300209E
:1003C000F0B52249202081F83D00214A012082F821
:1003D0003500204D20491F4B4C3DDFF87CC0106894
:1003E0001D4E2F1FB8394FF00064ACF1600C9842DD
:1003F00001D92C6008E0B04201D93C6004E06045BE
:1004000001D9CC6000E08C604FF08064984201D943
:100410002C6008E0B04201D93C6004E0604501D99D
:10042000CC6000E08C604FF48004984201D92C60CD
:1004300008E0B04201D93C6004E0604501D9CC60DD
:1004400000E08C60002082F83400F0BD60030020E2
:100450000404002058640240B86002400168182378
:10046000CAB2103AB2FBF3F2054B6FF30901032A4B
:100470009B5CC36500D9091D816508467047000073
:100480008043000810B5014600208B698A6A4FF04E
:10049000C07453B1B3F5005F15D072B1012A0CD00E
:1004A000022A0AD0032A09D104E01AB1012A06D08F
:1004B000022A03D1C96AC90100D5012010BDC96A49
:1004C000A142FAD010BD002AF7D0012AF2D0022AA8
:1004D000F3D0032AF3D010BD30B50468256825F4A5
:1004E00080252560046863608368402B036803D01F
:1004F00099600068C26030BD9A600068C16030BD1C
:10050000704772B6FEE72DE9F0410446876D00F0B2
:10051000CDFA064694F835000025022806D0802042
:10052000606584F834500120BDE8F08120680168DE
:1005300021F0160101602068416921F080014161CC
:10054000206C08B9A06C20B12068016821F0080176
:1005500001602068016821F0010101600CE000F0F9
:10056000A5FA801B052807D920206065032084F8A0
:10057000350084F83450D7E720680068C007EED112
:1005800094F85C103F208840B860012084F8350062
:1005900084F834500020C7E790F83510022903D0C2
:1005A0008021416501207047052180F835100068E1
:1005B000016821F001010160002070472DE9F84336
:1005C00004464FF00009CDF8009063484FF41651EF
:1005D000A56D0068B0FBF1F72E6894F85C10082058
:1005E00000FA01F131420FD021680A6852070BD599
:1005F0000A6822F004020A6094F85C108840A8603F
:10060000606D40F00100606594F85C104FF00108E7
:1006100008FA01F0304208D021684969090604D57A
:10062000A860606D40F00200606594F85C100420E2
:100630008840304208D021680968890704D5A8603D
:10064000606D40F00400606594F85C1010208840F4
:10065000304218D021680968090714D5A8602068BD
:100660000168490304D50068000308D5A16C07E0C0
:100670000168C90503D4016821F008010160216CFB
:1006800009B12046884794F85C1020208840304209
:1006900031D021680968C9062DD5A86094F83500C5
:1006A00005282068016806D0490347D50068000383
:1006B0001DD4616C1CE021F01601016020684169C5
:1006C00021F080014161206C08B9A06C20B1206844
:1006D000016821F00801016094F85C103F20884017
:1006E000A86084F8358084F83490216D1FE0E16BB8
:1006F00009B120468847606D00282BD0606DC00787
:1007000014D0052084F835002068016821F001012B
:1007100001600098401C0090B84203D8206800682F
:10072000C007F6D184F8358084F83490E16C002954
:1007300010D001B02046BDE8F04308470168C90564
:10074000D5D4016821F01001016084F8358084F867
:100750003490CCE7BDE8F8832C0000202DE9F0416F
:10076000044600F0A3F906465CB1022084F8350087
:10077000002584F834502068016821F001010160EF
:100780000DE00120BDE8F08100F090F9801B052804
:1007900005D920206065032084F83500F2E7206841
:1007A0000068C007F0D12268116820480140D4E9F0
:1007B00001031843D4E903363343184363691843EC
:1007C000A3691843E3691843236A18430843616A1D
:1007D000042903D1D4E90B1319430843106020689E
:1007E0004069666A20F0070130460E43012704285D
:1007F0000CD1A06A0643E06A40B12046FFF742FEF2
:1008000020B14020606584F83570BAE72068466101
:100810002046FFF723FE94F85C203F219140816041
:10082000656584F835700020ACE700003F8010F06B
:100830002DE9F0410446866D90F83400002501282A
:100840000DD0012084F8340094F835700020012F79
:1008500007D084F8340002252846BDE8F081022044
:10086000FBE7022784F8357060652046FFF734FE09
:1008700094F85C103F208840B0602068016841F027
:1008800016010160206C20B12068016841F0080168
:1008900001602068016841F001010160DCE70000AF
:1008A0002DE9F84FDFF8BCA1002201250AF1040B65
:1008B00003264FF00F090BF1040E00BF0B6805FA79
:1008C00002F42340A34270D10F7907F00307012FF0
:1008D00001D0022F16D187684FEA420806FA08FCB9
:1008E00027EA0C07D1F80CC00CFA08FC4CEA070CFC
:1008F000C0F808C04768A7430C79C4F300149440BB
:100900003C4344600C79E443A4070AD0C4684FEA2E
:10091000420C06FA0CF7BC438F6807FA0CF7274322
:10092000C7600C7904F00304022C12D1D40800EB48
:10093000840CDCF820405707FF0E09FA07F824EA78
:100940000804D1F8108008FA07F848EA0408CCF83F
:10095000208004684FEA420C06FA0CF7BC430F797A
:1009600007F0030707FA0CF7274307604C6814F4F5
:10097000403F70D03C4C276847F48047276024688C
:1009800022F0030704F480440094384C07EB040C75
:10099000DCF8084897074FEA177809FA08F7BC43CC
:1009A000334FB84202D1002724E054E0314FB8421F
:1009B00001D101271EE0304FB84201D1022719E0D2
:1009C0002E4FB84201D1032714E02D4FB84201D178
:1009D00004270FE02B4FB84201D105270AE02A4F28
:1009E000B84201D1062705E0284FB84201D10727B8
:1009F00000E0082707FA08F72743CCF80878DAF868
:100A000000405746D1F804C09C435FEACC3C00D577
:100A10001C433C60DBF800405F46D1F804C09C43B7
:100A20005FEA8C3C00D51C433C60DEF80040774612
:100A3000D1F804C09C435FEACC2C00D51C433C6039
:100A4000084F0C373C68D1F804C09C435FEA8C2CFB
:100A500000D51C433C60521C102AFFF42FAFBDE8A8
:100A6000F88F0000003C0140443802400030014053
:100A7000000002400004024000080240000C024056
:100A8000001002400014024000180240001C024006
:100A9000426921EA02030A4043EA02418161704748
:100AA0000AB1816170470904FBE7000001488068D2
:100AB000704700002000002002488168027811443D
:100AC00081607047200000200B4810B5016841F498
:100AD00000710160016841F480610160016841F4C6
:100AE00080710160032000F08DF8002000F006F80E
:100AF00000F03EF8002010BD003C024010B5014659
:100B000088B00022192000F05DF8192000F04CF8A0
:100B100013480024016841F001010160006805A943
:100B200000F001000690684600F018F900F046F960
:100B30000C494000B0FBF1F10C480B4A491E026021
:100B400040F2E732C0E90324C0E9011400F078FB69
:100B500010B1012008B010BD044800F0BDFBF9E75A
:100B60004438024040420F0000000140640400206D
:100B70000C4882B0016841F480410160006800F4D3
:100B8000804000900748001F016841F080510160DB
:100B90000068002200F0805000900F21901E02B0EB
:100BA00000F010B844380240002809DB00F01F02B2
:100BB000012191404009800000F1E020C0F80011BF
:100BC00070470000F0B40E4B1B680C46C3F30223C1
:100BD000C3F10705042D00D90425191D072901D2E9
:100BE000002300E0DB1E012606FA05F1491E214024
:100BF00099409E40761E16403143F0BC01F0FCBC8B
:100C00000CED00E0064900F0070208684FF6FF030C
:100C1000184040EA0220034A104308607047000071
:100C20000CED00E00000FA052DE9F0470E46050046
:100C300065D0DFF81481D8F80000F7B200F00700A3
:100C4000B04207D288F80070D8F8000000F0070022
:100C5000B04254D128683D4C810712D5400703D5D6
:100C6000206840F4E05020602878000703D5206811
:100C700040F4604020602068A96820F0F00008433C
:100C800020602878C0072DD03049686808390128CD
:100C900012D0022813D0032811D00968890700292F
:100CA0002DDA216821F0030101432160FFF7FEFEE8
:100CB000814641F2883A0EE009688903EFE7096846
:100CC0008901ECE7FFF7F2FEA0EB0901514502D9DB
:100CD0000320BDE8F0872068696800F00C00B0EBE5
:100CE000810FEFD1D8F80010404601F00701B14262
:100CF00007D90770006800F00700B04201D001205A
:100D0000E7E72878400705D52068E96820F4E05037
:100D1000084320602878000706D52068296920F458
:100D2000604040EAC100206000F058F82168084A9D
:100D3000C1F30311515CC8400649086006480068C9
:100D4000FFF7DCFE0020C4E7003C02400838024008
:100D5000884300082C000020240000200F2202609D
:100D60000C4A136803F003034360136803F0F003B5
:100D70008360136803F4E053C36012684FF4E053D8
:100D800003EAD20202610448006800F0070008602C
:100D90007047000008380240003C02400448054902
:100DA00000680968044AC1F38221515CC840704759
:100DB0002C000020083802409843000804480549E8
:100DC00000680968044AC1F34231515CC840704769
:100DD0002C0000200838024098430008154810B540
:100DE000006810F00C02144813D01449042A0FD0E4
:100DF000082A0ED10F4C241F2268236802F03F02FC
:100E00005B0207D52068C0F38810A0FB010106E053
:100E1000084610BD2168C1F38811A1FB0001002321
:100E2000FFF730FA2168C1F30141491C4900B0FBCA
:100E3000F1F010BD083802400024F40040787D0134
:100E40002DE9F84F04006ED02078DFF84C93C007EE
:100E5000A9F104054AD009F104000168C1F3810138
:100E6000012908D00068C0F3810002280AD1D9F80E
:100E70000000400206D52868800337D56068002846
:100E8000E1D033E06068B0F5803F10D0B0F5A02F1E
:100E9000286810D020F480302860286820F4802052
:100EA00028606068A8B1FFF701FE06460DE02868DB
:100EB00040F48030F4E740F480202860F7E700BF7A
:100EC000FFF7F4FD801B642873D828688003F7D5EA
:100ED0000CE0FFF7EBFD064605E000BFFFF7E6FD7F
:100EE000801B6428F0D828688003F7D42078DFF8C6
:100EF000AC8280074FF0000A3ED5A748001D01686C
:100F000011F00C0F08D00068C0F3810002280BD14B
:100F1000D9F80000400207D42868800716D5E06899
:100F2000012800D112E033E1E068B8B10120C8F82F
:100F30000000FFF7BBFD064605E000BFFFF7B6FD6A
:100F4000801B0228C0D828688007F7D52868216947
:100F500020F0F80040EAC10028600DE0C8F800A0C9
:100F6000FFF7A4FD064604E0FFF7A0FD801B022862
:100F70001FD828688007F7D42078000722D5864F2D
:100F800087486169703771B101210160FFF78EFDFB
:100F9000064604E0FFF78AFD801B022809D838685E
:100FA0008007F7D50EE0C0F800A0FFF77FFD0646EA
:100FB00005E082E0FFF77AFD801B02287DD83868C3
:100FC0008007F7D42078400768D5DFF8CCB1002738
:100FD0000BF13C0BDBF80000C0000BD4DBF8001079
:100FE00041F08051CBF80010DBF80000012700F041
:100FF000805000906B4E3068C00510D4306840F4CB
:1010000080703060FFF752FD009005E0FFF74EFD65
:101010000099401A022850D83068C005F6D55E4EB7
:10102000A0686C3601280FD00528306810D020F059
:1010300001003060306820F004003060A068B8B172
:10104000FFF734FD00900FE0306840F00100F4E756
:1010500040F004003060F7E7FFF728FD0099411ADF
:1010600041F28830814266D830688007F4D50EE0BE
:10107000FFF71CFD009007E0FFF718FD0099411AEB
:1010800041F28830814256D830688007F4D42FB1BD
:10109000DBF8001021F08051CBF80010A069C8B334
:1010A0003D49091D0968C1F3810102294AD002287E
:1010B000504607D0C8F8600000E03CE0FFF7F6FCBF
:1010C00004463BE04746C8F86000FFF7EFFC0646E1
:1010D00005E000BFFFF7EAFC801B02282BD8286838
:1010E0008001F7D4D4E907010843A16A2E4A4908D0
:1010F00002EB0141626A41EA8211084394F82C1024
:1011000040EA0161C9F8001001203866FFF7CEFC03
:10111000044606E03EE000BFFFF7C8FC001B0228C3
:1011200009D828688001F7D534E000BFFFF7BEFC7E
:10113000001B022802D90320BDE8F88F286880012F
:10114000F4D427E00128F7D0D9F80000E26900F4D0
:10115000800191421CD1226A00F03F01914217D1D7
:1011600047F6C071626A0140B1EB821F10D1A26ADA
:101170004FF0FF3300F4403103EB5202B1EB024F6A
:1011800006D194F82C1000F07060B0EB016F01D024
:101190000120D1E70020CFE7043802400000474299
:1011A000800E4742007000400000FFFF704770470C
:1011B00070B590F83C20012A32D0012480F83C40E0
:1011C000022280F83D2003685A689D6822F070066C
:1011D0000A6832435A60134B02689A4214D0B2F143
:1011E000804F11D0104B9A420ED0104B9A420BD028
:1011F0000F4B9A4208D00F4B9A4205D00E4B9A42A1
:1012000002D00E4B9A4204D1496825F0800319435D
:10121000916080F83D40002180F83C10084670BD88
:10122000022070BD000001400004004000080040A2
:10123000000C004000040140004001400018004044
:1012400010B5040003D094F83D0010B107E0012070
:1012500010BD002084F83C00204600F01FF802205A
:1012600084F83D00211D206800F0FEFE012084F876
:10127000460084F83E0084F83F0084F8400084F87B
:10128000410084F8420084F8430084F8440084F864
:10129000450084F83D00002010BD000008B500683E
:1012A0000B49884212D10B48016841F010010160DE
:1012B0000068002200F01000009005213620FFF7A2
:1012C00081FCBDE808403620FFF76EBC08BD000079
:1012D000001000404038024090F83D10012901D034
:1012E00001207047022180F83D100168CA6842F071
:1012F0000102CA6000681149884214D0B0F1804FE1
:1013000011D00F4988420ED00E4988420BD00E49A9
:10131000884208D00D49884205D00D49884202D044
:101320000C49884204D1816801F00701062903D0E5
:10133000016841F001010160002070470000014098
:101340000004004000080040000C00400004014080
:101350000040014000180040704770B50446006826
:1013600001694FF00005C943890715D4C168C94315
:10137000890711D4E91E0161012020772068806966
:101380008007204602D0FFF7E7FF04E000F098F85E
:10139000204600F096F8257720680169C94349077F
:1013A00017D4C168C943490713D46FF00401016120
:1013B000022020772068806910F4407F204602D008
:1013C000FFF7CAFF04E000F07BF8204600F079F850
:1013D000257720680169C943090716D4C168C94344
:1013E000090712D46FF008010161042020772068FA
:1013F000C0698007204602D0FFF7AEFF04E000F08E
:101400005FF8204600F05DF8257720680169C94340
:10141000C90617D4C168C943C90613D46FF01001B7
:101420000161082020772068C06910F4407F2046C1
:1014300002D0FFF791FF04E000F042F8204600F0F0
:1014400040F8257720680169C943C90708D1C168F8
:10145000C943C90704D1891E0161204600F032F852
:1014600020680169C943090609D4C168C94309064E
:1014700005D46FF0800101612046FFF797FE2068D8
:101480000169C943490609D4C168C943490605D45D
:101490006FF040010161204600F02CF820680169DE
:1014A000C94389060BD4C168C943890607D46FF0C4
:1014B000200101612046BDE87040FFF778BE70BD95
:1014C0007047704710B5044600680749884201D14B
:1014D000FFF7F2FA05492068884203D10448016801
:1014E000491C016010BD00000000014000100040D8
:1014F000000000207047704710B50446006840693E
:1015000094F83D10C0F3C010212911D180B120689A
:10151000143050E8001F21F0800140E80012002A3A
:10152000F5D1606B08B1FEF7EEFF204600F0A2FE99
:101530002068406994F83E10C0F38010222911D130
:1015400080B12068143050E8001F21F0400140E8CD
:101550000012002AF5D1A06B08B1FEF7D4FF204697
:1015600000F061FE002010BD70470000F8B5016872
:1015700004460868CA684B6910F00F0F4FF0000569
:1015800059D003F0010602F49077374365D0C107C4
:1015900005D0D10503D5216C41F00101216441073B
:1015A00005D5D90703D0216C41F0020121648107E0
:1015B00005D5D90703D0216C41F00401216401074E
:1015C00007D502F02001314303D0216C41F008011E
:1015D0002164216C00293AD0800604D5900602D5FA
:1015E000204600F055FE20684069216CC0F3801051
:1015F000090700D460B3204600F015FE206840695A
:10160000400621D52068143050E8001F21F0400129
:1016100040E80012002AF5D1A06BA8B16C49016521
:10162000A06BFEF7B9FF002811D0A06B016D01B0CF
:10163000BDE8F040084783060FD593060DD5204638
:10164000BDE8F84000F024BE2046FFF78DFFF8BD4E
:101650002046FFF789FF2564F8BD266B2023012E65
:1016600079D1C60677D5D60675D508684868009042
:101670004869400640D5A16B086840680004000C2A
:10168000EAD0A28D8242E7D9E085C869B0F5807FB3
:101690002DD020680C3050E8001F21F4807140E804
:1016A0000012002AF5D12068143050E8001F21F004
:1016B000010140E80012002AF5D12068143050E8FA
:1016C000001F21F0400140E80012002AF5D184F803
:1016D0003E30256320680C3050E8001F21F01001D7
:1016E00040E80012002AF5D1A06BFEF70CFFA08D98
:1016F000E18D401A81B229E0A08DE18D401A81B2BE
:10170000E08D0028A8D00029A6D020680C3050E831
:10171000002F22F4907240E80026002EF5D12068B8
:10172000143050E8002F22F0010240E80026002E7D
:10173000F5D184F83E30256320680C3050E8002F46
:1017400022F0100240E80023002BF5D12046FFF7DD
:10175000D2FEF8BDFFE705062BD5150629D594F86E
:101760003D002128F5D1A068B0F5805F01D1206946
:10177000B0B1206A411C2162216800784860E08C89
:10178000401E0004000CE084E3D12068C16821F011
:101790008001C1602068C16841F04001C160D8E7A4
:1017A000206A0088C0F308004860206A801C20621C
:1017B000E5E74006CDD55006CBD5CA68204622F0D5
:1017C0004002CA6084F83D3000F01BF9C1E7000018
:1017D0003121000870B5040004D094F83D000025C4
:1017E00010B106E0012070BD84F83C50204600F0A6
:1017F00023F8242084F83D002068C16821F40051BA
:10180000C160204600F0A4FD2068016921F49041E8
:1018100001612068416921F02A0141612068C168A5
:1018200041F40051C1602564202084F83D0084F813
:101830003E00002070BD00002DE9F04186B0064654
:1018400014216846FEF768FD30493068884259D156
:101850002F480024016841F010010160006800F089
:10186000100005902A481438016841F00101016018
:101870000068694600F0010005904FF4C0600090D8
:101880000220CDE9010403200390072004902148A1
:10189000FFF706F8214D20484FF000672860C5E9A2
:1018A00001744FF48068C5E903486C61AC61EC6178
:1018B0002C6228466C62FEF751FF08B1FEF721FE4C
:1018C000B563AE63154D144860357830E5E802071E
:1018D0004020A5E81101114845F814496030AC6179
:1018E000EC612C626C62FEF739FF08B1FEF709FE6D
:1018F0007563002206212520AE63FFF763F92520DA
:10190000FFF752F906B0BDE8F08100000010014079
:10191000443802400000024040640240A40300201A
:1019200090F83E30202B0ED159B152B190F83C3096
:10193000012B08D0012380F83C300023036300F022
:101940008DBD01207047022070477047704700002E
:101950002DE9F843044690F83D001F4616460D4613
:1019600020284CD1C5B1BEB194F83C00012846D026
:10197000012084F83C004FF00008C4F8408021208A
:1019800084F83D00FFF792F8A6848146E684A068BB
:10199000B0F5805F03D004E00120BDE8F883206942
:1019A00028B12E465FF0000584F83C800EE000264A
:1019B000FAE78021204600F099FDA0B9AEB116F8F3
:1019C000010B21684860E08C401EE084E08C4B46AF
:1019D0004FF0000200970028EBD14FF04001204665
:1019E00000F084FD30B10320D7E735F8020BC0F3D7
:1019F0000800E6E7202084F83D000020CDE7022023
:101A0000CBE77047FEE7000003480069C00501D43A
:101A100001207047002070470020024010B5FFF7FA
:101A2000F3FF20B100F006F808B1012010BD00203E
:101A300010BD000003480068800401D401207047F5
:101A4000002070471008024003480069000501D4D7
:101A500001207047002070470020024003480068C2
:101A6000400701D40120704700207047101C02403D
:101A700003480068000701D4012070470020704728
:101A8000101C024003480068000501D40120704783
:101A9000002070471014024003480068000601D47B
:101AA000012070470020704710180240034800686A
:101AB000000401D40120704700207047101C024030
:101AC00010B5FFF7A1FF20B1FFF7B4FF08B1012067
:101AD00010BD002010BD00000D4808B5016841F49C
:101AE000800101600068002200F480000090012164
:101AF0003A20FFF767F83A20FFF756F80022022154
:101B00004620FFF75FF8BDE808404620FFF74CB8D5
:101B10003038024010B5A0B001F052FF204C2060D8
:101B2000D8B320A000F044FD234B0DF1700C0FCB77
:101B30008CE80F0000211CA801F034F81E496061F8
:101B40001C2210316846FEF7CEFB0021684601F0EA
:101B50003CF8194960601C222C3107A8FEF7C3FB32
:101B6000002107A801F031F81349A0601C22483178
:101B70000EA8FEF7B8FB00210EA801F026F80E49CA
:101B8000E0601C22643115A8FEF7ADFB002115A80A
:101B900001F01BF8206120B010BDFFE707A0C1E7EE
:101BA00004000020CAC2BCFEB1EAD6BED7E9B4B474
:101BB000BDA8B3C9B9A60A0000430008CAC2BCFE4A
:101BC000B1EAD6BED7E9B4B4BDA8CAA7B0DC0A0052
:101BD00070B586B014216846FEF79EFB28480024A5
:101BE000016841F480710160016801F48071059120
:101BF000016841F004010160016801F004010591F0
:101C0000016841F020010160016801F020010591A7
:101C1000016841F080010160016801F080010591D7
:101C2000016841F0010101600068164E00F00100FA
:101C30000590012280213046FEF732FF4FF41060FC
:101C400001258DE8310069460F48FEF729FE68033B
:101C50008DE8310069460D48FEF722FE8020009095
:101C6000CDE90154694630460394FEF719FE0C2075
:101C70008DE8310069460648FEF712FE06B070BDD9
:101C800030380240001402400020024000080240A8
:101C9000001C02401CB500240E4800940C4901941D
:101CA00001604721C0E9011463218461C160FFF72D
:101CB000C7FA08B1FEF725FC00946946054801946F
:101CC000FFF776FA002801D0FEF71BFC1CBD0000D0
:101CD000001000400403002010B5114C0F480C21E7
:101CE00020604FF4E13060600020A060E060C4E953
:101CF0000401A061E0612046FFF76CFD08B1FEF72A
:101D000000FC2068C16841F01001C1600449142240
:101D1000BDE8104014390248FFF702BE0010014030
:101D200060030020FEE7FEE70B4C0C4E0C4F002535
:101D3000207801280CD100230A220849786901F093
:101D4000A5FF35702570142206490748FFF7E8FD06
:101D5000142000F01BFFEBE71D0000201C000020FA
:101D6000040000204C0300206003002008B5002080
:101D70000D4C0E4E8DF800004FF496752A466946BC
:101D8000606902F033F8C1B2012904D19DF8001056
:101D900007A000F00DFC80213046FEF779FEC82038
:101DA00000F0F4FEEAE70000040000200014024006
:101DB000CAD5B5BD2564B8F6CFFBCFA20A00000096
:101DC00000F05CFE0A2000F0E1FEF9E7A6B0294C25
:101DD00000F0EEFD002848D0072827D004DC0128B9
:101DE00007D0042841D11AE00A2828D00D283CD178
:101DF00032E021A000F0DCFB2CA000F0D9FB68460B
:101E000001F01CFC694635A000F0D2FB35A000F0C3
:101E1000CFFB684601F0B8FB694630A00CE0012119
:101E2000206801F0DBFD014638A005E002212068B2
:101E300001F0D4FD014639A000F0BAFB15E060685E
:101E400030B13AA000F0B4FB606801F019FD0CE07D
:101E50003EA000F0ADFB08E060680028F8D040A08C
:101E600000F0A6FB606801F095FC142000F08EFEE7
:101E7000AEE70000040000203D3D3D3D3D3D3D3DC1
:101E80003D3D3D3D3D3D3D3D3D3D3D3D3D3D3D3D82
:101E90003D3D3D3D3D3D3D3D3D3D3D3D3D3D3D3D72
:101EA0003D3D3D3D3D3D3D3D3D0D0A00C8CECEF1A1
:101EB000C3FB20202020202020C8CECEF1D7B4CCD8
:101EC000AC20D3C5CFC8BCB62020CAA3D3E0D5BBB5
:101ED00020C8CECEF1D0F2BAC50D0A0025730D0A86
:101EE00000000000C8CECEF1C3FB2020202020201F
:101EF00020D4CBD0D0BCC6CAFD202020202020205A
:101F00002020CAB9D3C3C2CA0D0A00004B32BCFCA0
:101F1000B0B4CFC225640D0A000000004B33BCFCF6
:101F2000B0B4CFC225640D0A00000000555020B0A7
:101F3000B4CFC2A3ACB9D2C6F0C8CECEF12076548D
:101F400061736B4C45440D0A00000000CEDEC8CE24
:101F5000CEF120765461736B4C45440D0A000000AD
:101F6000444F574E20B0B4CFC2A3ACBBD6B8B4C810
:101F7000CECEF120765461736B4C45440D0A0000BF
:101F800010B5502080F31188BFF34F8FBFF36F8FD0
:101F900002F068F818B104494FF080500860002042
:101FA00080F3118810BD000004ED00E030B593B05F
:101FB00030216846FEF7B0F914210CA8FEF7ACF901
:101FC0001D480025016841F080510160006800F063
:101FD000805011901948016841F480410160006807
:101FE000022400F4804011900120039010200490FE
:101FF000009406940820CDE90750A820CDE90904F3
:1020000004200B906846FEF71BFF08B172B6FEE78E
:102010000CA90F2081E831004FF4A0500F904FF42D
:102020008050109005210CA8FEF7FEFD002801D07D
:1020300072B6FEE713B030BD403802400070004079
:102040000248016841F470010160704788ED00E0CA
:102050000148FFF782B90000640400200148FFF73F
:102060007CB9000004030020F0B50268254C264D21
:10207000264E274F274B4FF0804CA04209D0604599
:1020800007D0A84205D0B04203D0B84201D0984250
:1020900004D122F0700E4A6842EA0E02A0421BD020
:1020A000604519D0A84217D0B04215D0B84213D01D
:1020B000984211D0184DA8420ED0184DA8420BD00E
:1020C000174DA84208D0174DA84205D0164DA8427A
:1020D00002D0164DA84203D122F44075CA682A43A3
:1020E0004D6922F080022A4302608A68C2620A684F
:1020F0008262A04201D0984201D1096901630121A5
:102100004161F0BD000001400004004000080040B3
:10211000000C004000040140004001400044014028
:102120000048014000180040001C00400020004012
:1021300010B5806B0021C185C184FFF715FA10BD71
:1021400070B5846B2068406994F83D10C0F3C010EE
:102150000025212904D118B1E584204600F08AF831
:102160002068406994F83E10C0F38010222904D101
:1021700018B1E585204600F056F8206C40F01000BC
:1021800020642046FFF7F0F970BD10B50146806B62
:1021900009680968C9052FD40021C18501680C317F
:1021A00051E8002F22F4807241E80023002BF5D182
:1021B0000168143151E8002F22F0010241E80023A8
:1021C000002BF5D10168143151E8002F22F04002B4
:1021D00041E80023002BF5D1202180F83E10016B4F
:1021E000012909D101680C3151E8002F22F01002B9
:1021F00041E80023002BF5D1016B012902D0FFF744
:10220000A4FB10BD818DFFF776F910BD10B5806B72
:10221000016B012902D0FFF799FB10BD818D4908A0
:10222000FFF769F910BD01680C3151E8002F22F465
:10223000907241E80023002BF5D10168143151E878
:10224000002F22F0010241E80023002BF5D1016BA1
:10225000012909D101680C3151E8002F22F0100248
:1022600041E80023002BF5D1202180F83E10002109
:102270000163704701680C3151E8002F22F0C00261
:1022800041E80023002BF5D1202180F83D10704754
:1022900008B590F83E10222901D0022008BD8268BE
:1022A0004FF480539A4201D1016921B1816A9A4267
:1022B0001BD04AB10AE00268816A5268C2F3080280
:1022C0000A80816A891C08E0026972B1026852685A
:1022D00002F07F020A70816A491C8162C18D491E29
:1022E0000904090CC18503D019E002685268F1E7BE
:1022F0000168CA6822F02002CA600168CA6822F434
:102300008072CA6001684A6922F001024A61202194
:1023100080F83E10016B012903D0FFF716FB002067
:1023200008BD0021016301680C3151E8002F22F043
:10233000100241E80023002BF5D101680A68D2069B
:1023400002D50A6849680091818DFFF7D4F8E6E765
:1023500070B5044600680169E26821F440511143F8
:1023600001612169A068E26908436169114308437A
:102370002168CA6849F20C639A430243CA60206824
:102380004169A26921F440711143416131492068DA
:10239000884202D03049884202D1FEF70FFD01E0A9
:1023A000FEF7FCFCE2690023192164253226B2F510
:1023B000004F626828D0A0FB0101930F9200FDF747
:1023C00061FF0146B0FBF5F06FF01802504301EBDE
:1023D000800006EB0010B0FBF5F000F0F002B1FB5E
:1023E000F5F002EB0012B1FBF5F06FF01803584363
:1023F00001EB800006EB0010B0FBF5F000F00F00E1
:1024000021681044886070BDA0FB010192185B41F7
:10241000FDF738FF0146B0FBF5F00201B1FBF5F026
:102420006FF01803584301EB800006EBC000B0FBCF
:10243000F5F000F0F80002EB4002B1FBF5F0584374
:1024400001EB800006EBC000B0FBF5F000F00700E8
:10245000D6E70000001001400014014038B5816249
:1024600082850025134604460564222084F83E0038
:10247000A26B1B48D063A26B1A481064A26B1A4867
:10248000D064A06B0A4605652168A06B091DFEF7A4
:10249000CFF9206801684068009084F83C502068BB
:1024A0000C3050E8001F41F4807140E80012002A0F
:1024B000F5D12068143050E8001F41F0010140E8D8
:1024C0000012002AF5D12068143050E8001F41F0B6
:1024D000400140E80012002AF5D1002038BD00007C
:1024E0008B2100080D220008412100082DE9F04150
:1024F000984617460E460446069D27E0681C25D0E0
:102500002DB1FEF7D3FAA0EB0800A8421ED920682F
:102510000C3050E8001F21F4D07140E80012002A6E
:10252000F5D12068143050E8001F21F0010140E887
:102530000012002AF5D1202084F83D0084F83E00E6
:10254000002084F83C000320BDE8F081206800688A
:1025500036EA000004D00020B842CFD00020F3E7D4
:102560000120F9E70D4808B500680168C943C906AC
:102570000FD40168406800900848FEF7BDFF084886
:10258000006840680749C0F114000870064901203E
:102590000870BDE808400148FEF7E8BF600300206E
:1025A000A40300201C0000201D000020FEE7000006
:1025B0000FB4054B10B503A9044A029800F03CF88B
:1025C00010BC5DF814FB00002D2B0008A0000020BB
:1025D0000FB4084B10B504A902AA039800F02CF818
:1025E000044602A9002000F087F9204610BC5DF8DF
:1025F00014FB0000F92800080907090E002804DB75
:1026000000F1E02080F80014704700F00F0000F1A6
:10261000E02080F8141D704702E008C8121F08C1AE
:10262000002AFAD170477047002001E001C1121F53
:10263000002AFBD1704700002DE9FF4F8DB09B466B
:102640000F460446002606E025280BD05A460F996F
:102650009047641C761C20780028F5D111B03046D4
:10266000BDE8F08F0025A8460122984900E0054307
:1026700014F8013F203B02FA03F00842F7D120781A
:102680002E2817D114F8010F45F004052A280ED082
:102690006FF02F022078A0F1300109290AD808EB49
:1026A000880102EB410100EB0108641CF2E757F8D6
:1026B000048B641C20786C280DD004DC4C2812D0CC
:1026C0006A2811D104E074280DD07A280CD10AE0D0
:1026D00045F4001507E0617845F48015814202D188
:1026E000641C05F58015641C2078692844D008DC3A
:1026F0000028B3D0582867D063280FD0642808D1A9
:102700003AE0702865D0732812D075285AD07828FE
:102710005AD05A460F999047761CD5E017F8040B0B
:102720008DF8000000208DF80100E946012003E04B
:1027300057F8049B4FF0FF3069074FF0000501D4B4
:102740000AE06D1C45450DDA8542FADB19F80510E3
:102750000029F6D106E06D1C8542FCDB19F8051056
:102760000029F8D12E4404E019F8010B5A460F99BC
:1027700090476D1EF8D2A7E00A200021CDE908019C
:10278000C5F3025002280CD001CFC117021E71F10F
:1027900000020CDA0023D0EB030063EB01012D22D1
:1027A00008E0FF1D27F00707F7E80201EEE72A051A
:1027B00004D52B228DF8282001223CE0EA073AD0EC
:1027C0002022F7E70A2000E010200021CDE90801CF
:1027D00007E01020002145F00405CDE908014FF085
:1027E0000808C5F30250022810D001CF00214FF095
:1027F000000A2A0720D52278702A0DD0DDE908C307
:102800008CF0100C5CEA030C0CD015E0FF1D27F0D7
:102810000707F7E80201EAE740228DF828204FF089
:10282000010A0CE050EA010306D030238DF828306D
:102830008DF82920022292462278582A04D024A218
:102840000DF120090B9209E026A2F9E7DDE9082342
:10285000FDF718FD0B9B9B5C09F8013D50EA010256
:10286000F4D1ADEB090020300890680701D44FF097
:1028700001080899884503DD0898A8EB000000E0EE
:1028800000208046002506E00AA85A46405D0F99C0
:1028900090476D1C761C5545F6DB04E030205A4607
:1028A0000F999047761CB8F10001A8F10108F5DCFA
:1028B00005E019F8010B5A460F999047761C0899C4
:1028C000481E08900029F4DC641CC4E609280100B5
:1028D0003031323334353637383961626364656696
:1028E0000000000030313233343536373839414258
:1028F00043444546000000000A68531C0B601070FA
:102900007047000070B50646284800EB06142068A2
:102910008047052100250028207906EB460331D0A9
:10292000052801D2217170BD0A2802D2401C2071F5
:1029300070BDA07A06EB4606761C20B90120A07275
:10294000F0B200F0A5F821890029F1D0E088884292
:1029500008D2401C80B2E08021898842E8D1DB1C8B
:10296000D8B20BE0E07A0028E2D0207B401CC0B255
:102970002073E17A8842DBD32573F0B2BDE8704062
:1029800000F086B8052801D921710BE010B1401E76
:10299000207107E0A07A012804D19B1CA572D8B24F
:1029A00000F076F8E580257370BD00009C410020A2
:1029B00007498A7AC87A824201D100207047885C30
:1029C000521CD2B28A720A2AF8D300228A72704745
:1029D0003C42002030B51E48002164238172C17240
:1029E0000173A0380A46022500EB0214521C238111
:1029F0002571A172E172D2B221730A2AF4D303873E
:102A0000052180F83B10A0F8483080F84B10A0F862
:102A1000583080F85B10A0F8683080F86B100D49D2
:102A200040F82C1B0C4940F81C1C0C4940F80C1CAD
:102A30000B4941600B4941610B4941620B494163BC
:102A40000B4941640B4941650B49416630BD0000AB
:102A50003C420020091A0008351A0008491A0008EB
:102A60005D1A0008711A0008851A0008991A0008F2
:102A7000AD1A0008C11A00081D1A000810B500247C
:102A80002046FFF73FFF641CE4B20A2CF8D310BDC8
:102A90000549CA7A8854C87A401CC0B2C8720A284C
:102AA00001D30020C87270473C4200200149002039
:102AB00008607047000000202DE9F041040006D0B6
:102AC000184E306884420AD10020BDE8F0815020C1
:102AD00080F31188BFF34F8FBFF36F8FFEE700F0D5
:102AE00073FC6569F76B366C00F08EFCBD4201D05B
:102AF000B54201D10220E8E70B48854208D1A06A1F
:102B00000028F7D194F85C000128F3D00320DCE71B
:102B100005481438854202D00DB10120D5E70420C4
:102B2000D3E70000300000208805002013B50523FE
:102B3000012269460248FEF70BFF00981CBD000009
:102B4000600300200148006870470000000000207A
:102B5000FDF7BAFFFFF72AFAFFF73AF8FEF7BCFFD6
:102B6000FFF7BAF8FFF796F80448FEF7B5FBFFF752
:102B700031FFFEF7CFFF00F010F8FEE7040300205E
:102B800001460020842900D0C81C704710B500B948
:102B9000012000F091FC002010BD10B500F038FEBF
:102BA000002010BD38B5D0E9011204683AB1C368FD
:102BB0002BB100200090204600F0F1FF38BD2046E8
:102BC000BDE83840002200F0C9BF7FB50D4604467D
:102BD0004169B0F9080081B1A16971B1FFF7D0FF77
:102BE000D4E905128DE80700D4E900102B462269CC
:102BF00001F0FFF9039004B070BDFFF7C1FF03A916
:102C0000CDE90001208A2B4682B2D4E9001001F000
:102C1000C3F9012801D00020EDE70398EBE700009D
:102C20002DE9F041184C0F460546E6682068001D66
:102C300000F024FB38B9206890F82C10012088405F
:102C4000216981432161681C07D137B12168BDE842
:102C5000F0410E48091D00F0ABBB20683544B54279
:102C60004560216805D2206CBDE8F041091D00F0E7
:102C700087BBE06B091D00F083FBA06A854200D290
:102C8000A562BDE8F081000030000020880500202A
:102C90002DE9F041054600F097FB2E4CA068401C42
:102CA000A06020682C4F10B1606940B32DE0256012
:102CB000A068012829D1002606EB860007EB8000DA
:102CC00000F050FB761C072EF6D323488C3000F022
:102CD00049FB2148A03000F045FB1F48B43000F00C
:102CE00041FB1D48C83000F03DFB1B48DC3000F0C4
:102CF00039FB19488C30E0631430206405E020680B
:102D0000E96AC06A884200D82560606A401C606237
:102D10006864E96A0120226988401043206101EB60
:102D2000810007EB8000291D00F042FB00F06CFBE6
:102D3000606900280CD02068E96AC06A884207D21E
:102D400006494FF080500860BFF34F8FBFF36F8F7D
:102D5000BDE8F08130000020AC04002004ED00E06C
:102D600030B4026C0B46002A0BD0C1681144C1601C
:102D70008468A14201D30168C16030BC1846FDF7E8
:102D8000B2BA30BC70472DE9F041856B1746044656
:102D90000026026C82B1C7B1E068FDF7A4FAE168D1
:102DA000206C091AE1602268914202D2A168081AD7
:102DB000E060022F16D017E02068A8B9A06801F0E3
:102DC000B7F906460020A0600EE06068FDF78BFAB8
:102DD000216C606808446060A168884204D3206860
:102DE000606001E005B16D1E6D1CA5633046BDE855
:102DF000F08110B5044690F85D0058B101280CD060
:102E000002280FD0502080F31188BFF34F8FBFF3FB
:102E10006F8FFEE7206B00F00BFB2046BDE81040F3
:102E200000F006BB10BD000010484FF4705142077F
:102E300006D0C01D0D4920F00700411AC1F57051A0
:102E40000B4A00230144C2E900030839183A21F073
:102E5000070111604B600B600B1AC0E9001393600F
:102E60004FF0004053605061704700009C05002007
:102E70008C000020144E154CA6F1C8074FF0805866
:102E8000DFF84C9012E000BF00F09EFAF068C568D1
:102E9000281D00F0F3F9A068401EA0606068401E85
:102EA000606000F0B1FA2846FFF7A3FF60680028D1
:102EB000EAD138680128F9D9C9F80080BFF34F8FEB
:102EC000BFF36F8FF2E70000740500203000002090
:102ED00004ED00E070B51D46049C51B1C4F800201B
:102EE000C4E90F010121204600F08CFE84F84C500B
:102EF00070BD2460F4E700002DE9F05F8846DDE94D
:102F00000B941546834691009A460A9EA522206B93
:102F1000FDF7FBF96FF00301206B01EB850108441D
:102F200020F00707780707D0502080F31188BFF3FF
:102F30004F8FBFF36F8FFEE70025B8F1000F0FD062
:102F40005FF00000221818F8001082F8341018F80A
:102F5000001011B1401C1028F4D384F8435001E054
:102F600084F83450072E00D30626E662C4E91365C0
:102F7000201D00F002FA04F1180000F0FEF92461AF
:102F8000C6F107006462A0616565A56584F85C50C0
:102F900052465946384600F05BF92060B9F1000FFF
:102FA00001D0C9F80040BDE8F09F000030B51149DC
:102FB00000E011460A688242FBD34B685C188442E9
:102FC00003D1406818444860084643681C1894427E
:102FD00009D1084C183C2468A24209D052681A440E
:102FE00042600A6812680260814200D0086030BD09
:102FF0000460F9E78C00002010B5044600F0E4F905
:10300000A06B28B15FF0000400F0FEF9204610BD6F
:103010000124F9E72DE9F0478146086892460C46FD
:10302000002600B3606804F1080540686060A842AB
:1030300001D1416861606068D0F80C8060684068C8
:103040006060A84201D141686160606806EBC6011A
:1030500009EB8101C76853460122384600F052FA55
:10306000761C4745EAD13046BDE8F0870648C16B7B
:10307000096829B1C16BC968C9684968816270472C
:103080004FF0FF31FAE700003000002008484068A8
:10309000401C4FF0500080F3118804D0BFF34F8FD5
:1030A000BFF36F8FFEE7BFF34F8FBFF36F8FFEE766
:1030B00094000020002150B10A4B42699A420FD17E
:1030C000806AA3F1280290420AD040B108E0502063
:1030D00080F31188BFF34F8FBFF36F8FFEE701219D
:1030E00008467047880500202DE9F041044600F0AD
:1030F0006BF994F9455004F1240609E0606A48B17F
:10310000304601F061F808B100F0EEFA6D1E6DB2C4
:10311000002DF3DC4FF0FF3684F8456000F074F9C1
:1031200000F052F994F9445004F1100709E02069C5
:1031300048B1384601F048F808B100F0D5FA6D1EE4
:103140006DB2002DF3DC84F84460BDE8F04100F07E
:103150005BB910B50446FDF7F1F82046FDF7E7F836
:10316000202101E02154401C0F28FBD300212154D1
:10317000204410BD2DE9F0410546002700F0DEFB9C
:10318000324E306808B9FFF74FFE706905424ED1E4
:10319000C5B3083568070ED005F00700C0F1080078
:1031A0000544680707D0502080F31188BFF34F8F84
:1031B000BFF36F8FFEE72DB37068854237D8234881
:1031C000183001460C6801E020460C466168A942AF
:1031D00002D221680029F7D131688C4227D00768D4
:1031E0002168016060680837411B10290FD96019F8
:1031F000420708D0502080F31188BFF34F8FBFF3F0
:103200006F8FFEE713E041606560FFF7CFFE6168F6
:103210007068401A7060B268904200D2B060706905
:1032200001430020C4E90001F068401CF06001F097
:1032300005F8780707D0502080F31188BFF34F8F2F
:10324000BFF36F8FFEE73846BDE8F08174000020C1
:1032500010B5031F4FF080741C601B1F21F001018B
:103260001960191F044B0B6014390A60091F6FF0B5
:10327000020244380A6010BD8D300008D0E90132E6
:1032800001699A60D0E901235A604A68824201D1FB
:1032900082684A60002202610868401E086008686F
:1032A000704700002DE9F04717460A4605460024FE
:1032B000072600F043FBDFF89080D8F80800824230
:1032C0003CD3DFF88890761E06EB860104EBC40041
:1032D00009EB810105EB80000122FFF79BFE04440E
:1032E000002EF0D104EBC40005EB8000022246461C
:1032F000D8F83C10FFF78EFE044404EBC40005EB45
:1033000080000222316CFFF785FE04440F4904EB74
:10331000C40005EB80000422C831FFF77BFE0444A3
:103320000A4904EBC40005EB80000322DC31FFF7FF
:1033300071FE044417B1FFF705FC386000F07EFF12
:103340002046BDE8F087000030000020AC040020DB
:10335000034B036003F16000086080201060704739
:10336000A400002000F108014FF0FF32C0E9011273
:10337000C160016100210160704700210161704757
:1033800030B50B685A1C02D000F1080202E0026955
:1033900004E02246546825689D42FAD953684B6080
:1033A00099608A60516008610168491C016030BD04
:1033B00042684A6093688B609368596091600861C5
:1033C0000168491C01607047502080F31188BFF3E9
:1033D0004F8FBFF36F8F0A494868401C486001282F
:1033E0000CD10848006810F0FF0F07D0502080F380
:1033F0001188BFF34F8FBFF36F8FFEE77047000058
:103400009400002004ED00E00849486828B1401EFF
:10341000486001D180F311887047502080F31188F3
:10342000BFF34F8FBFF36F8FFEE7000094000020C3
:1034300070B500282AD0164DA0F1080460686969AB
:10344000084207D1502080F31188BFF34F8FBFF39C
:103450006F8FFEE722683AB1502080F31188BFF3E6
:103460004F8FBFF36F8FFEE78843606000F066FA0E
:1034700060686968084468602046FFF797FD28691E
:10348000401C2861BDE8704000F0D8BE70BD00004F
:10349000740000204FF0E0200021016181610549A6
:1034A0004FF47A720968B1FBF2F1491E41610721BC
:1034B000016170472C00002010B5020014D00F48A5
:1034C000006B38B1502080F31188BFF34F8FBFF3EA
:1034D0006F8FFEE700F032FA00211046FFF7A0FBE5
:1034E00000F0ACFE002807D105494FF0805008607D
:1034F000BFF34F8FBFF36F8F10BD0000300000206F
:1035000004ED00E02DE9F0410C461E491646B8B125
:103510004FEA000505F13400C4E90050E86A206173
:10352000286BE061686CA060E86C6061686D0027E2
:10353000A061052B12D00868854203D1277311E0E2
:103540000D68E7E72373032B0CD100F0F7F9A86AA5
:1035500008B10220207300F071FE03E02846FFF757
:10356000ABFA20735EB10021286B01E0401C491CBE
:103570000278A52AFAD088082084BDE8F081278443
:10358000FBE70000300000202DE9F84300218046D1
:1035900001701F488468806800EBC0008000FFF75E
:1035A000E9FD060031D06A462146FFF77BFE07465B
:1035B00000986421B0FBF1F0009018B300241FE0E4
:1035C00004EBC40006EB80050099A869B0FBF1F993
:1035D00040466968FFF7BDFD8046AA69B9F1000061
:1035E00005D003460BA14046FEF7F2FF03E00CA115
:1035F0004046FEF7EDFF4046FCF799FE8044641C10
:10360000BC42DDD33046FFF713FFBDE8F88300006E
:10361000300000200925750909257525250D0A00AA
:1036200009257509093C3125250D0A0002490A6A58
:103630000260C96841607047300000202DE9FC47F6
:1036400000218146017023488468806800EBC00037
:103650008000FFF78FFD060039D000222146FFF7DA
:1036600021FE0746002423E004EBC40006EB80059E
:10367000287B052829D2DFE800F003052224260054
:10368000582000E05220804648466968FFF761FDF7
:103690008146A968288CCDE9000142460EA1484622
:1036A0002B69FEF795FF4846FCF741FE8144641CF8
:1036B000BC42D9D33046BDE8FC47FFF7B9BE422033
:1036C000E1E75320DFE74420DDE70020DBE7BDE84A
:1036D000FC870000300000200925630925750925B5
:1036E000750925750D0A000001490120C861704760
:1036F0003000002010B50C4650B109490968183156
:10370000FFF73EFE2046BDE810400121FFF788BAD2
:10371000502080F31188BFF34F8FBFF36F8FFEE708
:103720003000002070B5194E326BFAB141F0004103
:103730000160C46814B3FFF7A1FD201DFFF79EFDD3
:10374000E16A0125326905FA01F01043306101EBAD
:1037500081000F4901EB8000211DFFF729FEE06A7F
:103760003168C96A884200D9F56170BD502080F384
:103770001188BFF34F8FBFF36F8FFEE7502080F3A8
:103780001188BFF34F8FBFF36F8FFEE7300000202B
:10379000AC04002070B504002BD01A4D2868844278
:1037A0002FD0FFF711FE2046FFF784FCE8B1201D63
:1037B000FFF764FDE06A01212A6981401143296114
:1037C000114900EB800001EB8000211DFFF7F0FDA7
:1037D000E06A2968C96A884207D30C494FF08050D3
:1037E0000860BFF34F8FBFF36F8FBDE87040FFF7E6
:1037F0000BBE502080F31188BFF34F8FBFF36F8F44
:10380000FEE770BD30000020AC04002004ED00E0B5
:1038100010B586B00024039405AA04A903A8049453
:10382000FFF796FDDDE903010094CDE901100023C7
:103830000FA11148059A00F0DCFB10490028C8626E
:1038400013D0502080F31188BFF34F8FBFF36F8FD9
:103850004FF0FF30886201204861CC60FFF726F905
:1038600006B0BDE8104000F0FFB806B010BD000083
:1038700049444C4500000000752E0008300000202F
:1038800070B50446FFF7A0FD294D04B92C68201D32
:10389000FFF7F4FC58B9E06A264A00EB800152F8C1
:1038A000211021B901218140286988432861A06A3B
:1038B00018B104F11800FFF7E1FC1E48211DDC30AF
:1038C000FFF776FD94F85C000026012801D184F80A
:1038D0005C60FFF799FD686928B1FFF775FDFFF798
:1038E000C5FBFFF791FD2868844213D1686990B148
:1038F000286B38B1502080F31188BFF34F8FBFF38E
:103900006F8FFEE70C494FF080500860BFF34F8F78
:10391000BFF36F8F70BD0748DC300068A96888422C
:1039200001D12E6070BDBDE8704000F00FB80000FE
:1039300030000020AC04002004ED00E00248016BE0
:10394000491C0163704700003000002010B51A4C7C
:10395000206B10B10120E06110BD0020E061FFF795
:10396000F1F8A063626B904204D92168821A4B6D12
:103970001A444A65606320691049B0FA80F0C0F1CA
:103980001F0000EB800051F820206AB101EB80009D
:1039900000F10802416849684160914201D14968DB
:1039A0004160C868206010BD502080F31188BFF3CB
:1039B0004F8FBFF36F8FFEE730000020AC04002074
:1039C00070B52020FFF7D6FB040005D00025201D90
:1039D0002560FFF7C7FC2577204670BD2DE9F04133
:1039E0000027884604000AD05FEA18600FD05020F4
:1039F00080F31188BFF34F8FBFF36F8FFEE7502026
:103A000080F31188BFF34F8FBFF36F8FFEE7261D42
:103A100004F10C05FFF792FF2168F06841EA080104
:103A2000216017E0D0E9001601F07F4253012368BE
:103A300021F07F4102D40B4203D10AE031EA0303B3
:103A400007D1D20100D50F43216841F00071FFF783
:103A500069FE3046A842E5D12068B843206000F0F6
:103A6000EDFB2068BDE8F0811CB537480168374A96
:103A7000914207D1502080F31188BFF34F8FBFF3DD
:103A80006F8FFEE700683149491E884207D15020F8
:103A900080F31188BFF34F8FBFF36F8FFEE72C4980
:103AA00008780190FF20087008788DF800009DF8D4
:103AB00000009DF8002000F0F000904207D0502058
:103AC00080F31188BFF34F8FBFF36F8FFEE79DF830
:103AD0000000204C00F0500020700720A06005E09E
:103AE0009DF8002052008DF80020401E9DF8002017
:103AF0001206F5D4A060032807D0502080F3118867
:103B0000BFF34F8FBFF36F8FFEE74FF44070A0609D
:103B1000019808700C482030016841F47001016080
:103B2000016841F070410160FFF7B4FC0020606063
:103B3000FCF75AFB0848016841F040410160FCF77E
:103B40003FFB00201CBD000000ED00E071C20F41F2
:103B500000E400E09400002034EF00E0F8B51746E0
:103B60000E46050013D005FB06F05030FFF702FBB0
:103B700004000AD0002084F8460004F150023B46BD
:103B8000314628460094FFF7A5F92046F8BD50209D
:103B900080F31188BFF34F8FBFF36F8FFEE738B507
:103BA000049D18B153B1CAB181B120E0502080F317
:103BB0001188BFF34F8FBFF36F8FFEE7502080F364
:103BC0001188BFF34F8FBFF36F8FFEE7502080F354
:103BD0001188BFF34F8FBFF36F8FFEE739B15020CD
:103BE00080F31188BFF34F8FBFF36F8FFEE7502430
:103BF0001C46012384F846302B460094FFF76AF9EF
:103C0000204638BD70B50D46040025D0FFF7DCFB1B
:103C1000D4E90F20216802FB0011A1600021A163FB
:103C2000216861600A46D4E90F01401E00FB0121B2
:103C3000E16021464FF0FF3001F8440F487004F175
:103C400010008DB1FFF78EFB04F12400FFF78AFB13
:103C5000FFF7DAFB012070BD502080F31188BFF31D
:103C60004F8FBFF36F8FFEE721690029F0D000F07E
:103C7000ABFA0028ECD004494FF080500860BFF345
:103C80004F8FBFF36F8FE3E704ED00E02DE9FF47AF
:103C900082B01D468A464FF00008040003D0BAF1F6
:103CA000000F08D011E0502080F31188BFF34F8F30
:103CB000BFF36F8FFEE7206C38B1502080F311887E
:103CC000BFF34F8FBFF36F8FFEE7022D0AD1E06B7A
:103CD000012807D0502080F31188BFF34F8FBFF326
:103CE0006F8FFEE700F0B0F93F4F4FF000094FF043
:103CF000805648B9049838B1502080F31188BFF33A
:103D00004F8FBFF36F8FFEE7FFF75EFBA06BE16B9A
:103D1000884207D3022D05D00498D0B1B8F1000F26
:103D20001AD01EE02A4651462046FFF72CF8616A59
:103D300019B104F1240000F047FA20B13E60BFF34E
:103D40004F8FBFF36F8FFFF75FFB012006B0BDE819
:103D5000F087FFF759FB22E06846FFF767FC4FF05A
:103D60000108FFF751FBFFF7E9FDFFF72DFB94F981
:103D70004400401C01D184F8449094F94500401C53
:103D800001D184F84590FFF73FFB04A9684600F095
:103D9000C9F830B12046FFF7A7F900F04FFA00202C
:103DA000D4E7FFF711FBA06BE16B884213D1FFF75B
:103DB0002BFB04F110000499FFF79CFC2046FFF751
:103DC00093F900F03BFA00289ED13E60BFF34F8F7D
:103DD000BFF36F8F98E7FFF717FB2046FFF784F9D3
:103DE00000F02CFA90E7000004ED00E02DE9F74721
:103DF000002683B08A46040003D0BAF1000F08D031
:103E000011E0502080F31188BFF34F8FBFF36F8F05
:103E1000FEE7206C38B1502080F31188BFF34F8F3C
:103E2000BFF36F8FFEE700F00FF9DFF8F4804FF07B
:103E300000094FF0805748B9059838B1502080F3F9
:103E40001188BFF34F8FBFF36F8FFEE7FFF7BCFA08
:103E5000A56BC5B151462046FEF782FF6D1EA563D6
:103E6000206950B104F1100000F0AEF928B1C8F893
:103E70000070BFF34F8FBFF36F8FFFF7C5FA0120BC
:103E800006B0BDE8F087059808B11EB106E0FFF75F
:103E9000BBFA27E06846FFF7C9FB0126FFF7B4FA33
:103EA000FFF74CFDFFF790FA94F94400401C01D154
:103EB00084F8449094F94500401C01D184F8459061
:103EC000FFF7A2FA05A9684600F02CF80028204662
:103ED0000AD0FFF709F900F0B1F92046FFF78CF896
:103EE0000028B3D00020CBE7FFF786F890B104F1AB
:103EF00024000599FFF7FEFB2046FFF7F5F800F0D8
:103F00009DF90028A2D1C8F80070BFF34F8FBFF30E
:103F10006F8F9BE72046FFF7E7F800F08FF995E7F2
:103F200004ED00E02DE9F0410C46050011D0C4B1CC
:103F3000FFF74AFA174BDA686E682068911B471C36
:103F400017D02F681B6A9F4219D0964217D80124B8
:103F500010E0502080F31188BFF34F8FBFF36F8FB5
:103F6000FEE7502080F31188BFF34F8FBFF36F8FB0
:103F7000FEE70024FFF748FA2046BDE8F0818842BA
:103F800005D9401A20602846FFF750FBF1E70020D2
:103F90002060DCE7300000202DE9FF5F8346DDE98B
:103FA0000E87994616468A469000FFF7E3F805000B
:103FB0001CD06020FFF7DEF8040014D00020256339
:103FC00084F85D00CDE90240CDE900874B463246DA
:103FD00051465846FEF790FF2046FEF759FE012055
:103FE00004B0BDE8F09F2846FFF722FA4FF0FF30FB
:103FF000F6E7F0B585B0DDE90B640A9DA6B1DCB14A
:10400000602700972663022684F85D60002604AFCF
:10401000CDE90246CDE90057FEF76EFF2046FEF7D8
:1040200037FE049805B0F0BD502080F31188BFF32F
:104030004F8FBFF36F8FFEE7502080F31188BFF3DF
:104040004F8FBFF36F8FFEE70548416919B1006BD1
:1040500018B100207047012070470220704700000F
:10406000300000202DE9F0412F4C0026206B28B1B4
:10407000A069401CA0613046BDE8F081E5686D1C78
:10408000E56013D1E06B006838B1502080F31188EF
:10409000BFF34F8FBFF36F8FFEE7E06B216CE163DF
:1040A0002064206A401C2062FEF7E0FFA06ADFF86F
:1040B0007C80854209D3E06B0068A0B1E06BC068EA
:1040C000C7687868854211D2A0622068C06A00EB98
:1040D000800158F82100012800D90126E069002854
:1040E000C9D00126C7E74FF0FF30EDE7381DFFF7D5
:1040F000C5F8B86A18B107F11800FFF7BFF8F96AF8
:104100000120226988401043206101EB810108EB06
:104110008100391DFFF74CF9F86A2168C96A8842A5
:10412000C9D30126C7E7000030000020AC040020FE
:1041300070B504004FF0000140D0214D2868844242
:1041400007D0502080F31188BFF34F8FBFF36F8FDC
:10415000FEE7206D38B1401E2065E36CE26A9A42AA
:104160002CD040B12AE0502080F31188BFF34F8F4C
:10417000BFF36F8FFEE7201DFFF780F8114A012182
:1041800050B9E06A00EB800352F8233023B92B6961
:1041900001FA00F083432B61E06CE062C0F107009C
:1041A000A061E06A2B6981401943296100EB80001E
:1041B00002EB8000211DFFF7FBF80121084670BDCE
:1041C00030000020AC0400202DE9F041C068C46834
:1041D000ACB104F118000746FFF750F8154D286BF5
:1041E0000126A0B139461448FFF7E2F8E06A2968D1
:1041F000C96A88421CD90120EE61BDE8F0815020D7
:1042000080F31188BFF34F8FBFF36F8FFEE7201D40
:10421000FFF734F8E16A2A6906FA01F010432861D1
:1042200001EB81000449B43901EB8000211DDBE77B
:104230000020E2E730000020600500202DE9F04773
:104240002C4D00242746286B38B1FFF7BDF8286BAA
:10425000401E2863286B40B146E0502080F311884F
:10426000BFF34F8FBFF36F8FFEE7A968224E012087
:10427000D1B3A6F1B40980463068E8B1F068C468EB
:1042800004F11800FEF7FAFF201DFEF7F7FFE06AC1
:104290002A6908FA00F11143296100EB800109EB5A
:1042A0008100211DFFF784F8E06A2968C96A884205
:1042B000E2D3C5F81C80DFE70CB1FEF7D7FEAC698E
:1042C00044B14646FFF7CEFE00B1EE61641EF9D15F
:1042D0000020A861E86938B108490127380708605B
:1042E000BFF34F8FBFF36F8FFFF78EF83846BDE8EF
:1042F000F0870000300000206005002004ED00E0A1
:104300001400000001000000000000000000000098
:10431000A04300086D1D0008FEFF00000000000023
:10432000800000000000000000000000AC43000816
:10433000291D0008FFFF00000000000080000000B1
:104340000000000000000000A4430008CD1D00088C
:1043500000000000000000008000000000000000DD
:1043600000000000B4430008C11D00080100000067
:1043700000000000800000000000000000000000BD
:1043800000061016000610160000000000000000D5
:1043900001020304060708090000000001020304EB
:1043A0004C45440055736572494600004D73675093
:1043B000726F00005374617274000000DC430008E7
:1043C00000000020A4000000182600088044000817
:1043D000A4000020AC4500002826000800000000D2
:1043E00000000000000000000000000000000000CD
:1043F00000000000000000000000000001000000BC
:1044000010000000000000000024F4000000000084
:10441000000000000000000000000000000000009C
:10442000000000000000000000000000000000008C
:10443000000000000000000000000000000000007C
:10444000000000000000000000000000000000006C
:10445000000000000000000000000000000000005C
:10446000000000000000000000000000000000004C
:1044700000000000AAAAAAAA000000000000000094
:040000050800018965
:00000001FF
